:020000040800F2
:10000000200500209D010008671E0008431B000812
:10001000651E00084B070008D124000800000000FE
:100020000000000000000000000000006B1E00083F
:100030004D07000800000000691E00086D1E000842
:10004000B7010008B7010008B7010008B7010008B0
:10005000B7010008B7010008B7010008B7010008A0
:10006000B7010008B7010008B7010008B701000890
:10007000B7010008B7010008B7010008B701000880
:10008000B7010008B7010008B7010008B701000870
:10009000B7010008B7010008B7010008B701000860
:1000A000B7010008B7010008B7010008B701000850
:1000B000111F0008B7010008B7010008B7010008C8
:1000C000B7010008B7010008B7010008B701000830
:1000D000B7010008B7010008B7010008B701000820
:1000E000B7010008B7010008B7010008B701000810
:1000F000B7010008B7010008B7010008B701000800
:10010000B7010008B7010008B7010008B7010008EF
:10011000B7010008B7010008B7010008B7010008DF
:10012000B7010008B7010008B7010008B7010008CF
:10013000B7010008B7010008B7010008B7010008BF
:10014000B7010008B7010008B7010008B7010008AF
:10015000B7010008B7010008B7010008B70100089F
:10016000B7010008B7010008B7010008B70100088F
:10017000B7010008B7010008B7010008000000003F
:10018000B7010008B7010008DFF80CD000F05CFAF6
:1001900000480047012E000820050020064880473F
:1001A00006480047FEE7FEE7FEE7FEE7FEE7FEE75C
:1001B000FEE7FEE7FEE7FEE7F51E000889010008FE
:1001C0002DE9F05F0546002092469B46884606468C
:1001D000814640241BE0284641464746224600F01F
:1001E0006AF853465A46C01A914110D31146184630
:1001F000224600F051F82D1A67EB01084F462246BF
:100200000120002100F048F817EB00094E41201EA4
:10021000A4F10104DFDC484631462A464346BDE8E6
:10022000F09FD2B201E000F8012B491EFBD27047CB
:100230000022F6E710B513460A4604461946FFF7B2
:10024000F0FF204610BD00F0004230F000400AD020
:10025000C10D01F56071C0F3160042EA0151C208F8
:1002600040071143704700200146704730B50B46E8
:10027000014600202022012409E021FA02F59D42D6
:1002800005D303FA02F5491B04FA02F52844151EAA
:10029000A2F10102F1DC30BD202A04DB203A00FA91
:1002A00002F1002070479140C2F1200320FA03F3CD
:1002B000194390407047202A04DB203A21FA02F0CB
:1002C0000021704721FA02F3D040C2F12002914090
:1002D0000843194670472DE9FE4F804681EA030026
:1002E000C00F0C46009021F0004123F00045B8EB10
:1002F0000200A94105D24046214690461C460B46C5
:10030000024623F00040104347D0270DC7F30A00F0
:10031000C3F30A510290401A019040286BDAC3F3EC
:10032000130040F4801B0098924620B10023D2EBCA
:10033000030A63EB0B0B01985946C0F1400250468B
:10034000FFF7AAFF06460D4650465946019A00F0AF
:100350008DF910EB08006141002487EA115284EA0C
:10036000E7731A4340D0009A62B3019A012A4FEA18
:10037000075215DC001B61EB02014FF0004202EA5C
:100380000752CDE90042001C41F5801132462B4650
:1003900000F08DF903B0BDE8F08F40462146F9E743
:1003A000001B61EB0201001C41F5801300185B414A
:1003B0002018A2F5001747EB030140EAD570B619E3
:1003C0006D4111E06D084FEA360645EAC0754FEA07
:1003D0000752001B61EB0201001C41F58011490826
:1003E0004FEA30000019514132462B4603B0BDE8B8
:1003F000F04F00F04DB90098012240000023D0EBEF
:10040000020263EBE073009821464FEAE074B8EB18
:10041000000061EB0401E9E783F000435BE781F052
:10042000004158E72DE9FE4F81EA030404F000443F
:1004300021F0004100944FF0000B23F0004350EAFC
:1004400001045ED052EA03045BD0C3F30A54C1F343
:100450000A552C44A4F2F3340194A0FB0254C1F3D6
:10046000130141F48011C3F3130343F4801301FB20
:10047000024400FB034E840A970A44EA815447EA87
:100480008357A4FB076802958D0A05FB07854FEA91
:10049000932C04FB0C542705029D4FEA065847EAAB
:1004A0001637B5EB08056EEB070C870E920E47EA80
:1004B000811742EA8312A7FB0201B6EB0B0164EB42
:1004C00000042B0D43EA0C335E1844EB1C50DA4653
:1004D0005146E7FB0201C5F313044FEA0B3343EA2D
:1004E00014534FEA0432019C43EA0603A4F10C04BE
:1004F0000294009CCDE900B400F0D9F803B0BDE847
:10050000F08F00200146F9E72DE9F04D81EA030460
:1005100004F0004B21F0004514464FF0000A23F090
:10052000004150EA050220D054EA01021DD0C5F373
:100530000A570246C5F31303C1F31300C1F30A5669
:1005400040F4801543F48013A7EB0608101BD64631
:1005500008F2FD3873EB050002D308F1010801E051
:1005600092185B41B8F1000F03DA00200146BDE8A4
:10057000F08D00204FF48011064684460EE0171BD4
:1005800073EB050705D3121B63EB050306434CEA27
:10059000010C49084FEA300092185B4150EA01070C
:1005A000EDD152EA030012D082EA040083EA050189
:1005B000084305D0101BAB4106D20122002306E000
:1005C00000224FF0004302E06FF0010253101AEBDB
:1005D00006004CEB085110EB0A0041EB0B01BDE8A3
:1005E000F04D00F055B8C1F30A52C1F3130140F2C7
:1005F000FF3341F480119A4202DA0020014670472D
:1006000040F233439A42A2F2334202DC5242FFF7F5
:1006100052BEFFF741BE000030B5041E71F1000468
:1006200004DB4FF00044404264EB0101141E73F1FF
:10063000000405DB1C464FF00043524263EB040309
:10064000994208BF904230BD064C074D06E0E06875
:1006500040F0010394E8070098471034AC42F6D309
:10066000FFF796FDA82E0008C82E0008202A06DBFA
:10067000CB17203A41FA02F043EAE07306E041FA70
:1006800002F3D040C2F1200291400843194670475E
:1006900010B5141E73F1000408DA401C41F100018A
:1006A00092185B411A4301D120F0010010BD2DE9E1
:1006B000F04D92469B4611B1B1FA81F202E0B0FAD8
:1006C00080F220329046FFF7E7FD04460F4640EAED
:1006D0000A0041EA0B0153465A46084313D011461B
:1006E00053EA010019D0C8F140025046FFF7E3FD7C
:1006F00005460E46504659464246FFF7CDFD084393
:1007000005D0012004E020463946BDE8F08D0020E8
:10071000054346EAE0762C4337430A986305E40A2A
:10072000A0EB08000022FD0A44EA47540A3002D533
:1007300000200146E9E7010510196941DDE9084596
:1007400000196941BDE8F04DA2E7FEE77047704728
:100750002DE9F84F00224FF0010803254FF00F0E4E
:100760000B6808FA02F42340A3426ED14E68012EB2
:1007700005D0022E03D0112E01D0122E12D1866880
:100780004FEA420C05FA0CF7BE43CF6807FA0CF7A4
:10079000374387604668A6430C79C4F3001494403D
:1007A00034434460C668570005FA07FC8C6826EAA3
:1007B0000C06BC403443C4604C68022C01D0122C9F
:1007C00013D1D40800EB8404A346D4F82090540736
:1007D0004FEAD46A0EFA0AF629EA06090E6906FA01
:1007E0000AF646EA0906CBF8206006680C7926EA84
:1007F0000C0604F00304BC40344304604C68E4007D
:1008000065D5364C266846F480462660246822F07A
:10081000030604F480440094314C3444A446D4F8D4
:1008200008489607370F0EFA07F6B4432D4EB0422C
:1008300001D1002624E02C4EB04201D101261FE058
:100840002A4EB04202D102261AE040E0284EB042C1
:1008500001D1032614E0274EB04201D104260FE057
:10086000254EB04201D105260AE0244EB04201D106
:10087000062605E0224EB04201D1072600E00826F8
:10088000BE402643CCF808681E4E34684F689C432F
:10089000FF0300D51C4334601A4C241D26684F68A2
:1008A0009E43BF0300D51E432660164E08363468AB
:1008B0004F689C43FF0200D51C433460114E0C3638
:1008C00034684F689C43BF0200D51C433460521CFF
:1008D000102AFFF445AFBDE8F88F0000443802400D
:1008E00000300140000002400004024000080240C5
:1008F000000C0240001002400014024000180240A8
:10090000001C0240003C0140014880687047000024
:100910000C00002002488168027811448160704711
:100920000C0000200B4810B5016841F40071016013
:10093000016841F480610160016841F480710160E7
:10094000032000F06FF8002000F006F800F024F813
:10095000002010BD003C024070B50D4D04464FF420
:100960007A712878B1FBF0F00A490968B1FBF0F020
:1009700000F004FB48B9102C07D200222146501E7B
:1009800000F030F800206C6070BD012070BD0000E8
:100990000C000020180000200A4808B5016841F446
:1009A00080410160006800F4804000900548001F0D
:1009B000016841F080510160006800F080500090B3
:1009C00008BD000044380240002809DB00F01F0287
:1009D000012191404009800000F1E020C0F80011A1
:1009E00070470000F0B40E4B1B680C46C3F30223A3
:1009F000C3F10705042D00D90425191D072901D2CB
:100A0000002300E0DB1E012606FA05F1491E214005
:100A100099409E40761E16403143F0BC01F06ABDFD
:100A20000CED00E0064900F0070208684FF6FF03EE
:100A3000184040EA0220034A104308607047000053
:100A40000CED00E00000FA052DE9F0470E46050028
:100A500065D0DFF81481D8F80000F7B200F00F007D
:100A6000B04207D288F80070D8F8000000F00F00FC
:100A7000B04254D128683D4C810712D5400703D5B8
:100A8000206840F4E05020602878000703D52068F3
:100A900040F4604020602068A96820F0F00008431E
:100AA00020602878C0072DD03049686808390128AF
:100AB00012D0022813D0032811D009688907002911
:100AC0002DDA216821F0030101432160FFF71CFFAB
:100AD000814641F2883A0EE009688903EFE7096828
:100AE0008901ECE7FFF710FFA0EB0901514502D99E
:100AF0000320BDE8F0872068696800F00C00B0EBC7
:100B0000810FEFD1D8F80010404601F00F01B1423B
:100B100007D90770006800F00F00B04201D0012033
:100B2000E7E72878400705D52068E96820F4E05019
:100B3000084320602878000706D52068296920F43A
:100B4000604040EAC100206000F038F82168084A9F
:100B5000C1F30311515CC8400649086006480068AB
:100B6000FFF7FAFE0020C4E7003C024008380240CC
:100B7000902E0008180000201000002004480549AD
:100B800000680968044AC1F38221515CC84070477B
:100B90001800002008380240A02E0008044805492B
:100BA00000680968044AC1F34231515CC84070478B
:100BB0001800002008380240A02E0008154810B583
:100BC000006810F00C02144813D01449042A0FD006
:100BD000082A0ED10F4C241F2268236802F03F021E
:100BE0005B0207D52068C0F38810A0FB010106E076
:100BF000084610BD2168C1F38811A1FB0001002344
:100C0000FFF7DEFA2168C1F30141491C4900B0FB3E
:100C1000F1F010BD083802400024F40040787D0156
:100C20002DE9F84F04006ED02078DFF83C93C00720
:100C3000A9F104054AD009F104000168C1F381015A
:100C4000012908D00068C0F3810002280AD1D9F830
:100C50000000400206D52868800337D56068002868
:100C6000E1D033E06068B0F5803F10D0B0F5A02F40
:100C7000286810D020F480302860286820F4802074
:100C800028606068A8B1FFF73FFE06460DE02868BF
:100C900040F48030F4E740F480202860F7E700BF9C
:100CA000FFF732FE801B642873D828688003F7D5CD
:100CB0000CE0FFF729FE064605E000BFFFF724FE23
:100CC000801B6428F0D828688003F7D42078DFF8E8
:100CD0009C8280074FF0000A3ED5A348001D0168A2
:100CE00011F00C0F08D00068C0F3810002280BD16E
:100CF000D9F80000400207D42868800716D5E068BC
:100D0000012800D112E02BE1E068B8B10120C8F859
:100D10000000FFF7F9FD064605E000BFFFF7F4FD10
:100D2000801B0228C0D828688007F7D52868216969
:100D300020F0F80040EAC10028600DE0C8F800A0EB
:100D4000FFF7E2FD064604E0FFF7DEFD801B022808
:100D50001FD828688007F7D42078000722D5824E54
:100D600083486169703671B101210160FFF7CCFDE4
:100D7000074604E0FFF7C8FDC01B022809D8306809
:100D80008007F7D50EE0C0F800A0FFF7BDFD0746CD
:100D900005E082E0FFF7B8FDC01B02287DD830686F
:100DA0008007F7D42078400768D5DFF8BCB100276A
:100DB0000BF13C0BDBF80000C0000BD4DBF800109B
:100DC00041F08051CBF80010DBF80000012700F063
:100DD00080500090674E3068C00510D4306840F4F1
:100DE00080703060FFF790FD009005E0FFF78CFD0C
:100DF0000099401A022850D83068C005F6D55A4EDE
:100E0000A0686C3601280FD00528306810D020F07B
:100E100001003060306820F004003060A068B8B194
:100E2000FFF772FD00900FE0306840F00100F4E73A
:100E300040F004003060F7E7FFF766FD0099411AC3
:100E400041F28830814266D830688007F4D50EE0E0
:100E5000FFF75AFD009007E0FFF756FD0099411A91
:100E600041F28830814256D830688007F4D42FB1DF
:100E7000DBF8001021F08051CBF80010A069C8B356
:100E80003949091D0968C1F3810102294AD00228A4
:100E9000504607D0C8F8600000E03CE0FFF734FDA2
:100EA00004463BE04746C8F86000FFF72DFD0646C4
:100EB00005E000BFFFF728FD801B02282BD828681B
:100EC0008001F7D4D4E907010843A16A2A4A4908F6
:100ED00002EB0141626A41EA8211084394F82C1046
:100EE00040EA0161C9F8001001203866FFF70CFDE7
:100EF000044606E036E000BFFFF706FD001B0228AF
:100F000009D828688001F7D52CE000BFFFF7FCFC6A
:100F1000001B022802D90320BDE8F88F2868800151
:100F2000F4D41FE00128F7D0D9F80000E26900F4FA
:100F30008001914214D1226A00F03F0191420FD109
:100F400047F6C071626A0140914209D1A26A00F479
:100F50004031914204D1E16A00F07060884201D0D2
:100F60000120D9E70020D7E70438024000004742BB
:100F7000800E4742007000400000FFFF10B5401E89
:100F8000B0F1807F01D3012010BD4FF0E0246061FB
:100F90000F21601701F0AEFA0020A0610720206148
:100FA000002010BD7047704710B590F83C20012A12
:100FB00022D0012280F83C20CA688C6822F440725A
:100FC00022434C6822F4806222430C6822F40062BF
:100FD00022430C6922F4805222434C6922F40052CD
:100FE0002243C969002322F480420A4301684A640B
:100FF00080F83C30002010BD022010BD70B590F884
:101000003C20012A32D0012480F83C40022280F8A2
:101010003D2003685A689D6822F070060A683243D2
:101020005A60134B02689A4214D0B2F1804F11D02B
:10103000104B9A420ED0104B9A420BD00F4B9A4253
:1010400008D00F4B9A4205D00E4B9A4202D00E4B5D
:101050009A4204D1496825F080031943916080F8D1
:101060003D40002180F83C10084670BD022070BD54
:10107000000001400004004000080040000C004057
:1010800000040140004001400018004010B5044633
:101090000068042200F0B3FF2068416C41F4004175
:1010A00041642068816801F00701062903D00168C6
:1010B00041F001010160002010BD10B5040003D013
:1010C00094F83D0010B107E0012010BD002084F825
:1010D0003C00204600F00CF8022084F83D00211D61
:1010E000206800F01BFF012084F83D00002010BDA7
:1010F00010B586B0044614216846FFF799F8234BD3
:101100002268002122489A4207D1016841F001017A
:101110000160006800F001000CE0B2F1804F0CD0DB
:101120001C498A4207D1016841F002010160006850
:1011300000F00200059006B010BD1548001F0268BF
:1011400042F001020260006800F0010005901048C2
:101150001438026842F0010202600068022200F0C6
:101160000100059001200090CDE90121CDE9031097
:1011700069460948FFF7ECFA002211461C20FFF7E8
:1011800031FC1C20FFF720FCD5E7000000000140E7
:1011900044380240000401400000024070B504469B
:1011A00090F83C00012817D0012584F83C5002201B
:1011B00084F83D002068826822F0770222F47F42A2
:1011C00082600868502830D00DDC20284DD005DC26
:1011D00098B310283BD148E0022070BD302844D09D
:1011E000402834D139E0602828D0702806D0B0F5E6
:1011F000805F2CD0B0F5005F29D10AE0CB68D1E93F
:101200000121206800F008FF2068816841F0770123
:1012100009E0CB68D1E90121206800F0FDFE2068DB
:10122000816841F48041816011E0CA6849682068A2
:1012300001F009F85021206807E016E0CA68496803
:10124000206801F051F86021206800F0EFFE84F87A
:101250003D50002084F83C0070BDCA684968206891
:1012600000F0F1FF40212068EFE7226801461046B8
:10127000EBE700007CB5007F012841D10021254823
:1012800000F059FB244C60800421224800F053FBFD
:1012900020806088A8B320886421401C484300EE69
:1012A000100A6088F8EE400A401C00EE100AB8EE02
:1012B000400A80EE801A84ED011A6088DFED170A7B
:1012C000401C00EE100AB8EE400A80EE801A84ED51
:1012D000021A94ED020A10EE100AFEF7B4FF94ED24
:1012E000010A05460E4610EE100AFEF7ACFF41EC6F
:1012F000100BCDE9005653EC102B09A001F0EAF8D1
:101300007CBDFFE79FED0F0A84ED010A84ED020A20
:10131000F6E700006000002000000020002474496F
:10132000447574794379636C65203D20256C662093
:10133000204672657175656E6379203D20256C6667
:1013400020000000000000002DE9F041044690F864
:101350003C000D4601283DD0012684F83C60022067
:1013600084F83D00AAB3042A46D02068082A55D044
:10137000D5E90027E968036A23F480530362D0F8B3
:101380001CC0036A2CF4407C4CEA07274FF6FF7C14
:1013900027F470470CEA013139434FF4204723F416
:1013A000204307EA02321A43C16102622068C16920
:1013B00021F44061C1612068C169AA6841EA022143
:1013C000C0F81C1084F83D60002084F83C00BDE8A3
:1013D000F08101E00220FAE7D5E90012EB6820680D
:1013E00000F042FF2068816921F00C0181612068D2
:1013F0008169AA6811430FE0D5E90012EB68206803
:1014000000F084FF2068816921F4406181612068D7
:101410008169AA6841EA02218161D3E7D5E9002CFC
:101420002F7B016A21F480710162C169036A21F096
:10143000030141EA0C0121F0F00C39074FF4206759
:101440004CEA116123F4206307EA02221A43C161C6
:1014500002622068C16921F00C01C1612068C16984
:10146000AA681143ACE710B5040003D094F83D001E
:1014700010B107E0012010BD002084F83C00204698
:1014800000F00CF8022084F83D00211D206800F0D7
:1014900045FD012084F83D00002010BD704710B5C7
:1014A0000268044631B1042908D008291AD00C2951
:1014B00008D11BE0D06840F0020002E0D06840F0A4
:1014C0000400D0600122206800F08CFD2068816853
:1014D00001F00701062903D0016841F00101016014
:1014E000002010BDD06840F00800EAE7D06840F066
:1014F0001000E6E770B50446006801694FF000058A
:10150000C943890715D4C168C943890711D4E91EA5
:10151000016101202077206880698007204602D081
:10152000FFF7A8FE04E000F040F9204600F0DEF9E5
:10153000257720680169C943490717D4C168C943A1
:10154000490713D46FF0040101610220207720685D
:10155000806910F4407F204602D0FFF78BFE04E044
:1015600000F023F9204600F0C1F9257720680169D1
:10157000C943090716D4C168C943090712D46FF0DB
:1015800008010161042020772068C0698007204697
:1015900002D0FFF76FFE04E000F007F9204600F0EC
:1015A000A5F9257720680169C943C90617D4C16820
:1015B000C943C90613D46FF01001016108202077D8
:1015C0002068C06910F4407F204602D0FFF752FE29
:1015D00004E000F0EAF8204600F088F9257720685A
:1015E0000169C943C90708D1C168C943C90704D102
:1015F000891E0161204600F09DF920680169C943F8
:10160000090609D4C168C943090605D46FF08001F1
:1016100001612046FFF7C6FC20680169C9434906FD
:1016200009D4C168C943490605D46FF0400101617E
:10163000204600F0C0F920680169C94389060BD42F
:10164000C168C943890607D46FF0200101612046B3
:10165000BDE87040FFF7A7BC70BD0000F0B587B0D3
:10166000044614216846FEF7E3FD334B226800244C
:1016700032490225324803269A4234D10A6842F0A0
:1016800001020A600A6802F0010205920A6842F04B
:1016900002020A600A6802F0020205920A6842F039
:1016A00010020A600968012701F0100105918021EC
:1016B0000091CDE90154CDE903476946FFF748F8A9
:1016C0000096CDE90154CDE9034769461D48FFF76F
:1016D0003FF84FF428500090CDE90154CDE903477D
:1016E0006946194823E0194B9A4222D10A6842F010
:1016F00001020A600A6802F0010205920A6842F0DB
:1017000004020A60096801F004010591202100919A
:10171000CDE90154CDE903466946FFF719F84020A9
:101720000090CDE90154CDE9034669460848FFF72A
:101730000FF807B0F0BD0000000001403038024053
:10174000000002400004024000100240000401407A
:101750000008024070B5044690F83C0001280DD006
:10176000012584F83C50022084F83D0042B1042A4F
:101770000AD0082A0CD00C2A11D10DE0022070BD2D
:10178000206800F05BFC0AE0206800F087FC06E0BF
:10179000206800F0B9FC02E0206800F0E9FC84F861
:1017A0003D50002084F83C0070BD704710B5040027
:1017B00003D094F83D0010B107E0012010BD0020D7
:1017C00084F83C00204600F00CF8022084F83D002C
:1017D000211D206800F0A2FB012084F83D000020BC
:1017E00010BD704770B5044690F83C000D460128C6
:1017F0000DD0012684F83C60022084F83D0042B1FF
:10180000042A18D0082A2AD00C2A4DD139E0022007
:1018100070BD206800F012FC2068816941F0080169
:1018200081612068816921F00401816120688169FA
:101830002A69114311E0206800F030FC20688169BA
:1018400041F4006181612068816921F480618161D6
:10185000206881692A6941EA0221816124E02068C7
:1018600000F052FC2068C16941F00801C1612068A4
:10187000C16921F00401C1612068C1692A6911436D
:1018800011E0206800F074FC2068C16941F4006137
:10189000C1612068C16921F48061C1612068C169AA
:1018A0002A6941EA0221C16184F83D60002084F880
:1018B0003C0070BD10B5040003D094F83D0010B199
:1018C00007E0012010BD002084F83C00204600F015
:1018D0000CF8022084F83D00211D206800F01EFB5A
:1018E000012084F83D00002010BD704770470000C3
:1018F00010B504460068012200F074FB0B49206813
:10190000884202D00A49884203D1416C41F4004127
:1019100041642068816801F00701062903D001684D
:1019200041F001010160002010BD000000000140F5
:101930000004014070470246002041B1042909D04B
:1019400008290AD00C2901D11068006C7047106872
:10195000406B70471068806B70471068C06B7047B1
:1019600070B5044690F83C00012812D0012584F897
:101970003C50022084F83D00204600F021FC01008C
:101980004FF0000007D084F83D5084F83C0001205F
:1019900070BD022070BD2168CA6822F04002CA6092
:1019A0002168CA6822F48042CA6084F83D5084F8F5
:1019B0003C00002070BD704770B5040004D094F85E
:1019C0003900002510B106E0012070BD84F83850C0
:1019D000204600F023F8242084F839002068C168EC
:1019E00021F40051C160204600F0ACFC2068016980
:1019F00021F4904101612068416921F02A0141618F
:101A00002068C16841F40051C160E563202084F87A
:101A1000390084F83A00002070BD000010B586B08F
:101A2000044614216846FEF703FC144920688842E6
:101A300021D113480021026842F0100202600068C0
:101A400000F0100005900E481438026842F00102C0
:101A50000260006800F0010005904FF4C060009043
:101A60000220CDE90101032003900720049069467C
:101A70000448FEF76DFE06B010BD000000100140E6
:101A800044380240000002402DE9F843044690F833
:101A900039001F4616460D46202850D1B5B1AEB1CB
:101AA00094F8380001284AD0012084F838004FF01B
:101AB0000008C4F83C80212084F83900FEF724FF98
:101AC000A6848146E68484F8388026E00120BDE8BB
:101AD000F883E08C401EE084A0684B46B0F5805F40
:101AE0004FF000024FF080012046009703D000F035
:101AF000BDFCE8B90DE000F0B9FCC8B92888216840
:101B0000C0F308004860206908B16D1C05E0AD1CF9
:101B100003E0216815F8010B4860E08C0028D8D15B
:101B20004B46002240212046009700F09FFC08B160
:101B30000320CCE7202084F839000020C7E70220EA
:101B4000C5E7FEE7154808B5016841F0800101606E
:101B5000016801F080010091016841F0010101601C
:101B6000016801F001010091016841F0020101608A
:101B7000016801F002010091016841F0100101606B
:101B8000016801F010010091016841F00401016059
:101B9000006800F00400009008BD000030380240EA
:101BA00010B596B000240F941094119412941394CD
:101BB0001C2168461494FEF73BFB202107A8FEF782
:101BC00037FB344832490160A721C0E90114632181
:101BD000C0E9031444618461FFF76FFA08B1FEF7AE
:101BE000B6FD4FF480500F900FA92A48FFF7D6FAA0
:101BF00008B1FEF7ACFD2748FFF7D8FD08B1FEF7A6
:101C0000A6FD2448FFF756FE08B1FEF7A0FD139489
:101C100013A920481494FFF7F1F908B1FEF797FDD6
:101C200000944FF48070CDE9044001940294039431
:101C30000022694617480694FFF78CFD08B1FEF7AD
:101C400086FD60200090042269461248FFF7CAFD15
:101C500008B1FEF77CFD082269460E48FFF7C2FD79
:101C600008B1FEF774FD0794089409944FF40050EE
:101C70000A94CDE90B4007A906480E94FFF794F9A2
:101C800008B1FEF764FD0348FFF7E8FC16B010BD8D
:101C9000000001402000002010B590B000240994FD
:101CA0000A940B94142104A80C94FEF7C1FA2B4853
:101CB0000D940E940094019402944FF0804103948B
:101CC00001605321C0E90114611EC0E9031484615D
:101CD000FFF7F3F908B1FEF73AFD4FF48050099091
:101CE00009A91E48FFF75AFA08B1FEF730FD1B4854
:101CF000FFF7B9FB08B1FEF72AFD0420049050203D
:101D0000CDE9050404A915480894FFF729FE08B198
:101D1000FEF71DFD0D940DA910480E94FFF76EF906
:101D200008B1FEF714FD0120CDE900400294002225
:101D300069460A480394FFF707FB08B1FEF707FD61
:101D4000022000900190042269460448FFF7FCFA43
:101D5000002801D0FEF7FBFC10B010BD6000002091
:101D600010B596B000240F9410941194129413940B
:101D70001C2108A81494FEF75BFA20216846FEF7A0
:101D800057FA294827490160A721C0E901146321B6
:101D9000C0E9031444618461FFF78FF908B1FEF7CD
:101DA000D6FC4FF480500F900FA91F48FFF7F6F9AB
:101DB00008B1FEF7CCFC1C48FFF77CFD08B1FEF72C
:101DC000C6FC139413A918481494FFF717F908B127
:101DD000FEF7BDFC6020CDE908044FF48070CDE92A
:101DE0000C400A940B94002208A90F480E94FFF7A8
:101DF000F9FC08B1FEF7ABFC00944FF40050CDE9BC
:101E00000440029401940394694607480794FFF73D
:101E1000CBF808B1FEF79BFC0348FFF71FFC16B098
:101E200010BD000000040140A00000200C4810B5C7
:101E30000A4901604FF4E1314160002181600C22C8
:101E4000C160C0E904128161C161FFF7B5FD0028DE
:101E500003D0BDE81040FEF77ABC10BD0010014071
:101E6000E0000020FEE7704770477047FEF752BD64
:101E700030B593B030216846FEF7DAF914210CA88A
:101E8000FEF7D6F919480025016841F0805101603C
:101E9000006800F0805011901548016841F48041BD
:101EA00001600068022400F480401190012003903A
:101EB00010200490009406940820CDE90750A82033
:101EC000CDE9090404200B906846FEF7A9FE0CA991
:101ED0000F2081E831004FF4A0500F90E0021090E5
:101EE00005210CA8FEF7B0FD13B030BD403802400C
:101EF000007000400548016841F470010160034929
:101F00004FF00060803908607047000088ED00E005
:101F10000148FFF7EFBA000060000020F0B502684A
:101F2000254C264D264E274F274B4FF0804CA04284
:101F300009D0604507D0A84205D0B04203D0B842CE
:101F400001D0984204D122F0700E4A6842EA0E0293
:101F5000A0421BD0604519D0A84217D0B04215D07E
:101F6000B84213D0984211D0184DA8420ED0184D47
:101F7000A8420BD0174DA84208D0174DA84205D053
:101F8000164DA84202D0164DA84203D122F4407546
:101F9000CA682A434D6922F080022A4302608A6897
:101FA000C2620A688262A04201D0984201D10969E6
:101FB000016301214161F0BD0000014000040040C7
:101FC00000080040000C00400004014000400140B7
:101FD000004401400048014000180040001C00403F
:101FE0000020004010B501F01F030121046A994050
:101FF0008C430462016A9A401143016210BD10B51E
:1020000001F01F030421046A99408C430462016AB1
:102010009A401143016210BD10B5846842EA032260
:1020200024F47F440A432243826010BD826822F078
:1020300070020A4342F0070181607047F0B5026AFE
:1020400022F001020262036A42688469124E24F09F
:1020500073050C682C4323F002058B682B430D4D50
:10206000A84201D0B04205D123F00807CB683B431A
:1020700023F00403A84201D0B04205D14D6922F4F7
:10208000407215438A692A4342608461496841630A
:102090000362F0BD0000014000040140F0B5026A97
:1020A00022F010020262026A436884690D6824F417
:1020B000E64444EA05248D6822F0200242EA051233
:1020C0000F4D104EA84201D0B04206D1CF6822F089
:1020D000800242EA071222F04002A84201D0B04238
:1020E00007D14D6923F4406343EA85038D6943EAD0
:1020F000850343608461496881630262F0BD00002A
:102100000000014000040140F0B5026A22F4807230
:102110000262026A4368C46922F4007224F0730503
:102120000C68124E2C438D6842EA05220E4DA842DF
:1021300001D0B04206D1CF6822F4006242EA072201
:1021400022F48062A84201D0B04207D14D6923F445
:10215000405343EA05138D6943EA05134360C461A4
:102160004968C1630262F0BD000001400004014003
:1021700030B5026A22F480520262046A4268C3697E
:102180000D6823F4E64343EA05238D6824F40054E4
:1021900044EA0534084DA84202D0084DA84204D1B3
:1021A0004D6922F4804242EA85124260C361496867
:1021B0000164046230BD00000000014000040140E1
:1021C00010B503689A6822F070044A68224322F02E
:1021D00007040A6822439A604A6812F00F0F30D150
:1021E0001211082A2DD2DFE802F02C2C2C2C0B2106
:1021F00027040B69D1E902210068FFF70DFF20E0F9
:102200000A68052A10D00268136A146A24F00104CF
:10221000146202689469096924F0F00444EA011127
:102220009161006803620CE0012010BD0A698968B1
:10223000006800F008F804E00A698968006800F0A6
:1022400053F8002010BD10B5036A046A24F001049D
:102250000462846924F0F00444EA021423F00A02C0
:102260000A438461026210BD70B5046A24F001045F
:1022700004628469056A154EB04214D0B0F1804FF3
:1022800011D0134EB0420ED0124EB0420BD0124EAF
:10229000B04208D0114EB04205D0114EB04202D02B
:1022A000104EB04203D124F00304144301E044F083
:1022B00001041A0724F0F00444EA126225F00A032C
:1022C00001F00A0119438261016270BD0000014002
:1022D0000004004000080040000C004000040140E1
:1022E000004001400018004010B5036A23F01003BD
:1022F00003628369046A23F4704343EA023224F0E0
:10230000A00343EA01118261016210BD30B5046A85
:1023100024F0100404628469056A24F4407444EAD9
:10232000022222F470444FF6FF7202EA0332224383
:10233000A02425F0A00304EA01111943826101627F
:1023400030BD00002DE9F041044600680169E268F3
:1023500021F44051114301612169A068E2690843F9
:102360006169114308432168CA6849F20C639A43C2
:102370000243CA6020684169A26921F44071114397
:102380004161E069192764253226B0F5004F354ACE
:10239000354920684FF0000806D0884201D09042AD
:1023A00036D1FEF7FBFB35E0884201D0904202D1E6
:1023B000FEF7F4FB01E0FEF7E1FB61684A18A0FBC1
:1023C000070148EB0803FDF7FBFE0146B0FBF5F003
:1023D0000201B1FBF5F06FF01803584301EB8000E8
:1023E00006EBC000B0FBF5F000F0F80002EB400295
:1023F000B1FBF5F0584301EB800006EBC000B0FBE9
:10240000F5F000F00700216810448860BDE8F08115
:10241000FEF7B4FB61688B0F8A00A0FB0701FDF794
:10242000CFFE0146B0FBF5F06FF01802504301EB10
:10243000800006EB0010B0FBF5F000F0F002B1FBFD
:10244000F5F002EB0012B1FBF5F06FF01803584302
:1024500001EB800006EB0010B0FBF5F000F00F0080
:10246000D1E7000000140140001001402DE9F041C7
:10247000984617460E460446069D1DE0681C1BD074
:102480002DB1FEF741FAA0EB0800A84214D920684C
:10249000C16821F4D071C1602068416921F0010157
:1024A0004161202084F8390084F83A00002084F843
:1024B00038000320BDE8F0812068006836EA00009B
:1024C00004D00020B842D9D00020F3E70120F9E77A
:1024D000FEE700000FB4054B10B503A9044A0298AB
:1024E00000F0EAF810BC5DF814FB0000E92D0008CC
:1024F0001C0000200907090E002804DB00F1E02081
:1025000080F80014704700F00F0000F1E02080F820
:10251000141D704702E008C8121F08C1002AFAD132
:1025200070477047002001E001C1121F002AFBD153
:10253000704700002DE9FF5F82B00021DDE9043023
:10254000020DDDF840B0034318D044F61050A2F25B
:10255000FF3242431514119801281FD0A5EB0B0040
:10256000401C5FEA000A4FF000064E4FDFF838913A
:10257000B046504615D5CAF1000413E01198012465
:102580004AA3012801D16FEA0B010298119AC0E910
:102590000031C0E9024206B0BDE8F09FCBF1000077
:1025A000DFE704460021404A491842EB0450CDE9D8
:1025B000001012E0E00707D032463B46404649464D
:1025C000FDF730FF8046894632463B4610461946A5
:1025D000FDF728FF06460F466410002CEAD1DDE91E
:1025E0000401DDE90023BAF1000F06DAFDF71AFF56
:1025F00042464B46FDF716FF05E0FDF785FF4246D4
:102600004B46FDF781FF04460E460022284BFEF79D
:1026100003F803D84FF0FF30014607E00022254BB6
:1026200020463146FDF757FEFDF7DDFF102409E097
:10263000002C0ADB0A220023FDF7C2FD039B303287
:102640001A55641E50EA0102F2D1641C039AC4F1C7
:1026500011031444119A012A03D0012208430DD119
:102660000AE0084304D000204FF0110B119072E7EC
:10267000A3EB0B056D1E0DE05B4504DD4FF0000282
:1026800005F1010504E003DA4FF00002A5F10105B0
:10269000002AECD002981199C0E90231C0E9004546
:1026A00079E70000000014400000F03F3000000017
:1026B0000000F0430000E03F2DE9FF4F95B09B463E
:1026C0008946064600250FE2252877D100242746B3
:1026D000F84A0121059400E0044316F8013F203B2D
:1026E00001FA03F01042F7D130782A2811D06FF0A8
:1026F0002F033078A0F13002092A16D8059A44F049
:10270000020402EB820203EB42021044761C0590A5
:10271000EFE759F8042B0592002A03DA504244F4FB
:102720000054059044F00204761C30782E2816D10F
:1027300016F8010F44F004042A280DD06FF02F0280
:102740003078A0F13003092B09D807EB870302EB9F
:102750004303C718761CF3E759F8047B761C3078DE
:102760006C280FD006DC4C2817D068280DD06A28BA
:1027700014D104E0742810D07A280FD10DE044F46D
:1027800000140AE044F4801401E044F44014727828
:10279000824202D104F58014761C761C30786628BB
:1027A0000BD013DC582877D009DC002875D04528D9
:1027B000F6D04628F4D047281AD19DE118E06328C6
:1027C00035D0642879D0652812D195E1702873D06E
:1027D00008DC6728F1D069286FD06E280DD06F28EB
:1027E00006D1B5E073282CD0752875D0782874D020
:1027F0005A46179990476D1C75E1C4F302500228A0
:1028000009D003280DD0D9F8001004280DD00D6090
:1028100009F1040967E1D9F80010EA17C1E900528B
:10282000F6E7D9F800100D80F2E70D70F0E719F81F
:10283000041B8DF8001000208DF80100EA460120ED
:1028400003E059F804AB4FF0FF3061074FF000018F
:1028500002D40DE008F101018846B9420FDA804543
:10286000F8DB1AF808100029F4D108E008F101019A
:1028700088468142FADB1AF808100029F6D105983B
:102880005B46A0EB080721463846179A00F094FAF9
:10289000284400EB080507E04DE029E10DE01AF8B7
:1028A000010B5A4617999047B8F10108F7D25B46D9
:1028B00021463846179A13E142E00A220092C4F3F7
:1028C00002524FF0000A022A08D059F804CB032A1A
:1028D0004FEAEC710AD00DE029E02AE009F1070186
:1028E00021F00702F2E802C1914609E00FFA8CFCE0
:1028F0004FEAEC71042A03D14FFA8CFC4FEAEC71D9
:10290000002907DA0A460021DCF1000C61EB020124
:102910002D2202E0220504D52B228DF8042001226D
:1029200003E0E20701D02022F7E7904659E00A21B0
:1029300002E010220DE010214FF0000A00910BE0A0
:1029400010224FF0000A44F004040827009203E02C
:1029500008224FF0000A0092C4F30252022A05D066
:1029600059F804CB0021032A08D009E009F1070136
:1029700021F00702F2E802C1914605E01FFA8CFC43
:10298000042A01D10CF0FF0C4FF00008220728D5D3
:10299000702806D0009B83F0100353EA0A0305D089
:1029A0000EE040228DF80420012208E05CEA0102DA
:1029B00006D030228DF804208DF8050002229046C2
:1029C000009B83F0080353EA0A030AD15CEA010280
:1029D00001D1620705D530228DF804204FF001089F
:1029E0007F1E582804D034A003900EA802900DE05A
:1029F00036A0F9E753466046009AFDF7E1FB8446AE
:102A00000398825C0298401E029002705CEA01000A
:102A1000F0D1029806A9081A00F1200A600702D531
:102A200024F4803400E00127574502DDA7EB0A00BB
:102A300000E0002000EB0A01009005984144401A94
:102A40000590E00306D45B462146179A059800F0EE
:102A5000B3F90544002706E001A85A46C05D17995E
:102A600090476D1C7F1C4745F6DBE0030CD55B46A9
:102A70002146179A059800F09FF9054404E030209C
:102A80005A46179990476D1C0099481E00900029DE
:102A9000F5DC08E0029802995A460078491C029138
:102AA000179990476D1CBAF10001AAF1010AF1DCF7
:102AB00065E1000009280100303132333435363702
:102AC000383961626364656600000000303132337A
:102AD000343536373839414243444546000000001A
:102AE00000F058F90544761C307800287FF4ECADEE
:102AF00019B02846BDE8F08F620700D4062709F117
:102B0000070222F0070CFCE80223E14603F000482C
:102B10005FEA080C02D00FF2702C0DE05FEA045C53
:102B200002D50FF2682C07E05FEAC47C02D00FF2F6
:102B3000602C01E0AFF2700C4FF0FF3823F000433F
:102B4000CDF850C065280CD006DC452809D04628B1
:102B50001DD047283DD13DE0662818D067287ED19A
:102B600038E00021112F01DB112000E0781CCDE9B5
:102B7000000106A90EA8FFF7DDFCDDE90F010E9AA2
:102B800003910021009207F1010A04914DE04FF0FA
:102B900000400097CDE9011006A90EA8FFF7CAFC76
:102BA000DDE90F0203920E9B11990022DDF80CA0C3
:102BB0000093049211B9791C00EB010AB7EB0A00EB
:102BC00004D4C0F1FF3007F1010A0490AAEB07001A
:102BD000019044E0012F00DA01270021112F01DDCF
:102BE000112000E03846CDE9000106A90EA8FFF744
:102BF000A1FCDDE90F010E9A0391002104910092DE
:102C0000BA4621070CD40399514500DA8A46BAF135
:102C1000010F05DD009AAAF10101515C302908D0AD
:102C2000B84202DA10F1040F06DA0121CDE90110F1
:102C300015E0AAF10101E9E7002805DC0499014447
:102C40000491AAEB000102E0411C514500DD8A46D7
:102C50000499401A401C01904FF000400290200758
:102C600004D40198504501DBCDF8048000208DF894
:102C70004F0002980DF14F07B0F1004F25D02B20E7
:102C80000E9002984FF0020800280CDA40420290A1
:102C90002D200E9007E00A210298FDF7E7FA303167
:102CA000029007F8011DB8F10001A8F10108F2DC5B
:102CB00002980028EFD1791E0E980870307800F045
:102CC000200040F0450007F8020D12A8C01B00F1DB
:102CD00007081498007800B1012000EB0A01019860
:102CE00001EBE07105984144401A401E0590E00355
:102CF00006D45B462146179A059800F05DF8054416
:102D00001498007818B15A46179990476D1CE00343
:102D100024D55B462146179A059800F04DF80544E6
:102D20001CE00498002807DBDDE90301884203DD8D
:102D30000098405C179901E0179930205A46904757
:102D4000049805F10105401C04900198401E019073
:102D500004D12E205A46179990476D1CBAF10001F4
:102D6000AAF1010ADDDC05E017F8010B5A461799B4
:102D700090476D1CB8F10001A8F10108F4DC5B4636
:102D80002146179A0598ABE62D0000002B000000A5
:102D9000200000002DE9F041044600251E4617469C
:102DA000880404D405E039462020B0476D1C641E19
:102DB000F9D52846BDE8F0812DE9F041044600250B
:102DC0001E469046C80301D5302700E0202788041E
:102DD00004D505E041463846B0476D1C641EF9D560
:102DE0002846BDE8F081000013B54FF6FF730122BD
:102DF00069460248FEF748FE00981CBDE00000202E
:102E0000FDF790FDFFF734F8FEF79CFEFEF7C8FED5
:102E1000FEF742FFFEF7A4FFFFF708F8002119486C
:102E2000FEF766FD04211748FEF762FD08211548EC
:102E3000FEF75EFD00211448FEF75AFD00211148FF
:102E4000FEF724F904210F48FEF720F908210D4868
:102E5000FEF71CF900210C48FEF718F90949322049
:102E60000A6850630A6890630968C863064909687C
:102E7000486300210548FEF712FB04210348FEF7D2
:102E80000EFBFEE720000020A000002060000020D4
:102E9000000000000000000001020304060708090A
:102EA0000000000001020304C82E000800000020FA
:102EB0002000000014250008E82E00082000002053
:102EC00000050000242500080000000000000000AC
:102ED00000000000010000001000000000000000E1
:082EE0000024F40000000000D2
:040000050800018965
:00000001FF
