:020000040800F2
:10000000F00400209D010008C9070008C50700088A
:10001000C707000825070008D512000800000000E7
:10002000000000000000000000000000410900087E
:10003000270700080000000049080008190A000806
:10004000B7010008B7010008B7010008B7010008B0
:10005000B7010008B7010008B7010008B7010008A0
:10006000B7010008B7010008B7010008B701000890
:10007000B7010008B7010008B7010008B701000880
:10008000B7010008B7010008B7010008B701000870
:10009000B7010008B7010008B7010008B701000860
:1000A000B7010008B7010008B7010008B701000850
:1000B000DD0A0008B7010008B7010008B701000811
:1000C000B7010008B7010008B7010008B701000830
:1000D000B701000819110008B7010008B7010008AE
:1000E000B7010008B7010008B7010008B701000810
:1000F000B7010008B7010008B7010008B701000800
:10010000B7010008B7010008B7010008B7010008EF
:10011000B7010008B7010008B7010008B7010008DF
:10012000B7010008B7010008B7010008B7010008CF
:10013000B7010008B7010008B7010008B7010008BF
:10014000B7010008B7010008B7010008B7010008AF
:10015000B7010008B7010008B7010008B70100089F
:10016000B7010008B7010008B7010008B70100088F
:10017000B7010008B7010008B7010008B70100087F
:10018000B7010008B7010008DFF80CD000F02AFA28
:1001900000480047351D0008F0040020064880474D
:1001A00006480047FEE7FEE7FEE7FEE7FEE7FEE75C
:1001B000FEE7FEE7FEE7FEE71D0A000889010008EA
:1001C00000F0004230F000400AD0C10D01F560712E
:1001D000C0F3160042EA0151C208400711437047BC
:1001E00000200146704730B50B4601460020202212
:1001F000012409E021FA02F59D4205D303FA02F534
:10020000491B04FA02F52844151EA2F10102F1DC93
:1002100030BD2DE9F05F0546002092469B4688469A
:100220000646814640241BE0284641464746224672
:1002300000F0F9F953465A46C01A914110D31146BD
:100240001846224600F0E0F92D1A67EB01084F46E8
:1002500022460120002100F0D7F917EB00094E419A
:10026000201EA4F10104DFDC484631462A464346FD
:10027000BDE8F09F2DE9FE4F804681EA0300C00FE4
:100280000C46009021F0004123F00045B8EB02003D
:10029000A94105D24046214690461C460B460246DF
:1002A00023F00040104347D0270DC7F30A00C3F3E3
:1002B0000A510290401A019040286BDAC3F31300F0
:1002C00040F4801B0098924620B10023D2EB030A31
:1002D00063EB0B0B01985946C0F14002504600F009
:1002E00093F906460D4650465946019A00F0ABF97F
:1002F00010EB08006141002487EA115284EAE77399
:100300001A4340D0009A62B3019A012A4FEA075279
:1003100015DC001B61EB02014FF0004202EA0752BC
:10032000CDE90042001C41F5801132462B4600F019
:10033000ABF903B0BDE8F08F40462146F9E7001B5A
:1003400061EB0201001C41F5801300185B4120188D
:10035000A2F5001747EB030140EAD570B6196D41CD
:1003600011E06D084FEA360645EAC0754FEA0752BC
:10037000001B61EB0201001C41F5801149084FEAA6
:1003800030000019514132462B4603B0BDE8F04F12
:1003900000F06BB90098012240000023D0EB02026C
:1003A00063EBE073009821464FEAE074B8EB00007D
:1003B00061EB0401E9E783F000435BE781F0004172
:1003C00058E72DE9FE4F81EA030404F0004421F0D0
:1003D000004100944FF0000B23F0004350EA010469
:1003E0005ED052EA03045BD0C3F30A54C1F30A554A
:1003F0002C44A4F2F3340194A0FB0254C1F3130182
:1004000041F48011C3F3130343F4801301FB02444E
:1004100000FB034E840A970A44EA815447EA835753
:10042000A4FB076802958D0A05FB07854FEA932C0C
:1004300004FB0C542705029D4FEA065847EA16377D
:10044000B5EB08056EEB070C870E920E47EA811795
:1004500042EA8312A7FB0201B6EB0B0164EB000436
:100460002B0D43EA0C335E1844EB1C50DA46514620
:10047000E7FB0201C5F313044FEA0B3343EA1453BD
:100480004FEA0432019C43EA0603A4F10C040294EF
:10049000009CCDE900B400F0F7F803B0BDE8F08FA0
:1004A00000200146F9E72DE9F04D81EA030404F04C
:1004B000004B21F0004514464FF0000A23F00041A4
:1004C00050EA050220D054EA01021DD0C5F30A57B4
:1004D0000246C5F31303C1F31300C1F30A5640F4F7
:1004E000801543F48013A7EB0608101BD64608F2CC
:1004F000FD3873EB050002D308F1010801E0921802
:100500005B41B8F1000F03DA00200146BDE8F08D31
:1005100000204FF48011064684460EE0171B73EB53
:10052000050705D3121B63EB050306434CEA010CD8
:1005300049084FEA300092185B4150EA0107EDD1BB
:1005400052EA030012D082EA040083EA050108435C
:1005500005D0101BAB4106D20122002306E0002289
:100560004FF0004302E06FF0010253101AEB060057
:100570004CEB085110EB0A0041EB0B01BDE8F04DCC
:1005800000F073B8C1F30A52C1F3130140F2FF3314
:1005900041F480119A4202DA00200146704740F28D
:1005A00033439A42A2F2334202DC524200F03BB89B
:1005B00000F02AB830B5041E71F1000404DB4FF0DE
:1005C0000044404264EB0101141E73F1000405DB9A
:1005D0001C464FF00043524263EB0403994208BFAC
:1005E000904230BD064C074D06E0E06840F0010344
:1005F00094E8070098471034AC42F6D3FFF7C8FDE3
:10060000301E0008501E0008202A04DB203A00FAA1
:1006100002F1002070479140C2F1200320FA03F359
:10062000194390407047202A04DB203A21FA02F057
:100630000021704721FA02F3D040C2F1200291401C
:10064000084319467047202A06DBCB17203A41FAA7
:1006500002F043EAE07306E041FA02F3D040C2F14F
:100660002002914008431946704710B5141E73F1DB
:10067000000408DA401C41F1000192185B411A4362
:1006800001D120F0010010BD2DE9F04D92469B46AE
:1006900011B1B1FA81F202E0B0FA80F22032904654
:1006A000FFF7B2FF04460F4640EA0A0041EA0B0199
:1006B00053465A46084313D0114653EA010019D055
:1006C000C8F140025046FFF7AEFF05460E465046C1
:1006D00059464246FFF798FF084305D0012004E041
:1006E00020463946BDE8F08D0020054346EAE07615
:1006F0002C4337430A986305E40AA0EB0800002264
:10070000FD0A44EA47540A3002D500200146E9E7D1
:10071000010510196941DDE9084500196941BDE885
:10072000F04DA2E7FEE770472DE9F04100220127D6
:100730004FF0030C07FA02F50B682B40AB422CD1AB
:10074000066853000CFA03F4A64306600E79D0F84D
:1007500000809E4046EA080606600E79012E01D010
:10076000022E12D18668A64386604E79D0F80880A2
:100770009E4046EA080686604668AE434660456885
:100780008E799640B6B235434560C568A543C560CD
:10079000CC799C40C3681C43C460521C102AC9D346
:1007A000BDE8F08110B54B07DB0E9A40C90800EB9D
:1007B0008100016A0F249C40A1430162016A114338
:1007C000016210BDFEE7FEE77047000030B50F2361
:1007D000C27801250178002A1FD0154A126802F458
:1007E000E062C2F5E062C2F30722C2F10404D34022
:1007F0004278A24084781C401443220101F1E02198
:1008000081F80024007800F01F018D40400980002D
:1008100000F1E020C0F8005130BD01F01F0085401C
:100820004809800000F1E020C0F8805130BD000090
:100830000CED00E0024908430249086070470000DF
:100840000000FA050CED00E070470000054A0029A1
:1008500003D0116801431160704711688143116032
:100860007047000030380240054A002903D0116863
:1008700001431160704711688143116070470000A7
:1008800040380240054A002903D011680143116035
:10089000704711688143116070470000443802407E
:1008A00070B5244B196801F00C01234C00291ED0AF
:1008B000661004291DD008291DD00460196801F0B4
:1008C000F00109091D4A545C0168E14041601C685F
:1008D00004F4E054A40A145D21FA04F484601B6853
:1008E00003F460435B0BD25CD140C16070BD046017
:1008F000E4E70660E2E70F4A121F1168C1F3805572
:10090000116801F03F0135B1B6FBF1F11468C4F391
:100910008814614305E0B4FBF1F11468C4F3881452
:1009200061431268C2F30142521C5200B1FBF2F162
:100930000160C3E7083802400024F40000000020F2
:10094000704700000CB50022019200922749086808
:1009500040F4803008604FF4A043086800F4003091
:1009600000900198401C0190009810B9019898429D
:10097000F3D10868800302D50120009000E00092C6
:100980000098012831D119484030026842F0805265
:1009900002601748026842F440420260134808307F
:1009A00002680260026842F400420260026842F497
:1009B000A0520260021F0F4B13600A6842F080725F
:1009C0000A600A689201FCD50B4A40F20571116079
:1009D000016821F003010160016841F0020101603A
:1009E0000168C1F381010229FAD10CBD003802402F
:1009F0000070004008544007003C02404FF0E021E6
:100A0000042804D0086920F00400086170470869D0
:100A100040F00400086170477047000010B51248AC
:100A2000016841F4700101601048016841F0010162
:100A300001600E4A00210832116002680C4B1A4016
:100A40000260031D0B4A1A60026822F480220260D1
:100A500006480C300160FFF775FF03494FF0006056
:100A60008039086010BD000088ED00E000380240C9
:100A7000FFFFF6FE1030002470B5048C24F0010452
:100A80000484058B048C25F0F3054FF6FF7606EA07
:100A9000031313432B4324F00A020A4342F00101DB
:100AA0000383018470BD70B5048C24F010040484A9
:100AB000058B068C4FF6FF7404EA011125F473458B
:100AC00004EA03332B4304EA02221A4326F0A0036C
:100AD0000B4343F010010283018470BD7CB54FF0DD
:100AE0008045284600F003F9264C6080284600F037
:100AF00000F920802288618823A000F0EDFB608847
:100B000090B320886421484300EE100A6088F8EE14
:100B1000400A00EE100AB8EE400A80EE801A84ED1A
:100B2000011A6088DFED200A00EE100AB8EE400AD4
:100B300080EE801A84ED021A94ED020A10EE100A7B
:100B4000FFF73EFB94ED010A05460E4610EE100A33
:100B5000FFF736FB41EC100BCDE9005653EC102BA0
:100B600012A000F0B9FB06E0FFE79FED190A84ED43
:100B7000010A84ED020ABDE87C400621154800F018
:100B800099B800001000002049433156616C75652A
:100B9000203D202564202049433256616C75652034
:100BA0003D2025642000000000247449D5BCBFD539
:100BB000B1C8A3BA25302E32662525202020C6B51F
:100BC000C2CAA3BA25302E3266487A0A0000000055
:100BD00000000000000C00407CB501210520FFF75B
:100BE00035FE4020009002208DF8040003208DF88F
:100BF000050000208DF806008DF807000B4C6946B3
:100C00002046FFF791FD20210091094D69462846B5
:100C1000FFF78AFD032206212046FFF7C3FD0322CA
:100C200005212846FFF7BEFD7CBD000000080240FC
:100C30000000024030B589B001210220FFF722FEFA
:100C4000FFF7CAFFA720ADF818000024ADF81A403E
:100C500063200790ADF820408DF82240144D06A97E
:100C6000284600F01BFA6021ADF804100221ADF80F
:100C700010100121ADF806100421ADF80810322142
:100C800003910820ADF812004001ADF81400ADF852
:100C9000164001A9284600F039F80121284600F045
:100CA0000CF80121284600F014F809B030BD00000E
:100CB00000040140C94301827047002904D0018823
:100CC00041F0010101807047018821F0010101809C
:100CD0007047002905D030F8441F41F400410180DD
:100CE000704730F8441FC1F30E0101807047406B1C
:100CF0007047806B7047002A03D082890A43828143
:100D0000704782898A4382817047000030B5028C27
:100D100022F001020284058C8388028B22F070028B
:100D200022F003020C88144325F002028D8915433A
:100D30004A882A430D4DA84202D00D4DA8420FD13A
:100D400022F00805CA892A4322F004058A882A432A
:100D500023F4807323F400730D8A1D434B8A2B43C5
:100D60008380048389684163028430BD00000140B0
:100D70000004014070B5028C22F010020284028C43
:100D80008388048B24F4E04424F440760D884FF6E5
:100D9000FF7404EA0525354322F020028E8904EA17
:100DA000061616434A8804EA02123243114EB04234
:100DB00002D0114EB04217D122F08002CE8904EA4F
:100DC0000616164326F040068A8804EA02123243C9
:100DD00023F4806323F400630E8A04EA86061E432C
:100DE0004B8A04EA830333438380058389688163E4
:100DF000028470BD000001400004014070B5028C07
:100E000022F480720284028C8388848B24F0700424
:100E100024F003040D88254322F400728E894FF6D6
:100E2000FF7404EA062616434A8804EA0222324383
:100E3000114EB04202D0114EB04217D122F40066DA
:100E4000CA8904EA0222324322F480668A8804EACC
:100E50000222324323F4805323F400530E8A04EA1F
:100E600006161E434B8A04EA0313334383808583AB
:100E70008968C163028470BD000001400004014024
:100E800070B5028C22F480520284058C8288838B98
:100E900023F4E04323F440760C884FF6FF7303EA13
:100EA0000424344325F400558E8903EA06362E4384
:100EB0004D8803EA05353543084EB04202D0084E4E
:100EC000B04205D122F480460A8A03EA82123243F4
:100ED0008280848389680164058470BD00000140BC
:100EE000000401402DE9F04107460C46002501268B
:100EF0006188002900D10225A288012A00D102269A
:100F00002088238990B13846FFF7CDFDE188384627
:100F100000F0B8F82389324629463846FFF7ACFD81
:100F2000E1883846BDE8F04100F0A4B83846FFF744
:100F3000A3FDE188384600F09DF823893246294612
:100F40003846FFF7B0FDE1883846BDE8F04100F0D3
:100F500099B80000F0B589B001210846FFF784FC7C
:100F600001210846FFF772FC0126019602258DF843
:100F7000085003208DF8090000248DF80A408DF8F0
:100F80000B502D4F01A93846FFF7CEFB012200215F
:100F90003846FFF707FCA01E07905320ADF8180055
:100FA000ADF81A406F0706A9384600F077F8ADF89B
:100FB0000C40ADF80E40ADF81060ADF81240ADF841
:100FC000144003A93846FFF78DFF0420ADF80C004C
:100FD000ADF80E50ADF81050ADF81240ADF8144019
:100FE00003A93846FFF77EFF5021384600F026F867
:100FF0000421384600F030F88021384600F024F80B
:1010000003213846FFF756FE012207213846FFF735
:1010100072FE01213846FFF750FE1C208DF80000BB
:101020008DF801408DF802408DF803606846FFF7A7
:10103000CDFB09B0F0BD000000000240028922F0A3
:1010400070020A4302817047028922F08002028105
:1010500002890A4302817047028922F00702028155
:1010600002890A4302817047416370478163704778
:10107000C1637047028B22F00C020283028B0A4389
:1010800002837047028B22F440620283028B4FF688
:10109000FF7303EA01210A430283704730B50288D7
:1010A000164C174DA0420DD0A8420BD0B0F1804F86
:1010B00008D0144B984205D0134B984202D0134BE2
:1010C000984203D122F070034A881A43104B984289
:1010D00006D0104B984203D022F440730A891A4379
:1010E00002804A68C2620A880285A04201D0A842F2
:1010F00001D1897A01860121818230BD0000014041
:10110000000401400004004000080040000C0040C2
:10111000001000400014004070B5164C40F22551FC
:10112000204600F039F800280ED0204600F0CEF816
:10113000C1B2114A1088030406D444044FF00003DE
:1011400007D50A2901D0138070BD40F400401080FB
:1011500070BD0D290AD0094DC0F30D042955401C5E
:1011600080B21080C728F3D9138070BD40F480404E
:10117000108070BD001001402000002028000020D9
:10118000002904D0818941F400518181704781890F
:1011900021F400518181704770B5002440F66A1235
:1011A000C1F3421301F01F05012606FA05F2012BD7
:1011B0000CD0022B0DD0838A1340090A8E40008880
:1011C00030400BB100B10124204670BD838913402B
:1011D000F3E7038A1340F0E710B540F66A13C1F352
:1011E000421301F01F040121A140012B07D0022B63
:1011F00007D014303AB102680A43026010BD0C30C7
:10120000F8E71030F6E702688A43026010BD00007C
:101210007FB504460D46208A20F44051E8880843F3
:101220002082A08941F20C618843A9882A89114350
:101230006A8902431143A181A08A20F44071A889E0
:101240000843A0826846FFF72BFB1E48844202D069
:101250001D48844201D1039800E00298A189090445
:1012600008D500EBC00101EB001029684900B0FB74
:10127000F1F007E000EBC00101EB001029688900E4
:10128000B0FBF1F06422B0FBF2F109010B096FF041
:1012900018056B4300EB8300A3891D044FF0320354
:1012A00007D503EBC000B0FBF2F000F007000843E5
:1012B00006E003EB0010B0FBF2F000F00F00084373
:1012C00020817FBD00100140001401408088C0F3E0
:1012D00008007047FEE700000FB4054B10B503A9E6
:1012E000044A029800F0DAF810BC5DF814FB000024
:1012F000211D00082400002002E008C8121F08C1B8
:10130000002AFAD170477047002001E001C1121F86
:10131000002AFBD1704700002DE9FF5F82B0002159
:10132000DDE90430020DDDF840B0034318D044F687
:101330001050A2F2FF3242431514119801281FD019
:10134000A5EB0B00401C5FEA000A4FF000064E4F71
:10135000DFF83891B046504615D5CAF1000413E0C5
:10136000119801244AA3012801D16FEA0B010298C8
:10137000119AC0E90031C0E9024206B0BDE8F09F11
:10138000CBF10000DFE704460021404A491842EB58
:101390000450CDE9001012E0E00707D032463B468A
:1013A00040464946FFF70DF88046894632463B469F
:1013B00010461946FFF705F806460F466410002C44
:1013C000EAD1DDE90401DDE90023BAF1000F06DA14
:1013D000FEF7F7FF42464B46FEF7F3FF05E0FFF747
:1013E00062F842464B46FFF75EF804460E4600227E
:1013F000284BFFF7DFF803D84FF0FF30014607E036
:101400000022254B20463146FEF734FFFFF7BAF89D
:10141000102409E0002C0ADB0A220023FEF7F9FE63
:10142000039B30321A55641E50EA0102F2D1641C4B
:10143000039AC4F111031444119A012A03D0012222
:1014400008430DD10AE0084304D000204FF0110BEF
:10145000119072E7A3EB0B056D1E0DE05B4504DDFB
:101460004FF0000205F1010504E003DA4FF000023D
:10147000A5F10105002AECD002981199C0E90231CA
:10148000C0E9004579E70000000014400000F03F8B
:10149000300000000000F0430000E03F2DE9FF4F66
:1014A00095B09B468946064600250FE2252877D150
:1014B00000242746F84A0121059400E0044316F869
:1014C000013F203B01FA03F01042F7D130782A287F
:1014D00011D06FF02F033078A0F13002092A16D80E
:1014E000059A44F0020402EB820203EB420210442C
:1014F000761C0590EFE759F8042B0592002A03DAD1
:10150000504244F40054059044F00204761C3078B4
:101510002E2816D116F8010F44F004042A280DD005
:101520006FF02F023078A0F13003092B09D807EBB8
:10153000870302EB4303C718761CF3E759F8047BD3
:10154000761C30786C280FD006DC4C2817D0682821
:101550000DD06A2814D104E0742810D07A280FD155
:101560000DE044F400140AE044F4801401E044F473
:1015700040147278824202D104F58014761C761CE5
:10158000307866280BD013DC582877D009DC002887
:1015900075D04528F6D04628F4D047281AD19DE1C9
:1015A00018E0632835D0642879D0652812D195E1F8
:1015B000702873D008DC6728F1D069286FD06E28B6
:1015C0000DD06F2806D1B5E073282CD0752875D0C2
:1015D000782874D05A46179990476D1C75E1C4F36A
:1015E0000250022809D003280DD0D9F80010042891
:1015F0000DD00D6009F1040967E1D9F80010EA1770
:10160000C1E90052F6E7D9F800100D80F2E70D703D
:10161000F0E719F8041B8DF8001000208DF8010088
:10162000EA46012003E059F804AB4FF0FF306107B0
:101630004FF0000102D40DE008F101018846B942E3
:101640000FDA8045F8DB1AF808100029F4D108E019
:1016500008F1010188468142FADB1AF808100029D6
:10166000F6D105985B46A0EB080721463846179A45
:1016700000F094FA284400EB080507E04DE029E16A
:101680000DE01AF8010B5A4617999047B8F1010876
:10169000F7D25B4621463846179A13E142E00A2208
:1016A0000092C4F302524FF0000A022A08D059F8FF
:1016B00004CB032A4FEAEC710AD00DE029E02AE0BE
:1016C00009F1070121F00702F2E802C1914609E0A1
:1016D0000FFA8CFC4FEAEC71042A03D14FFA8CFC10
:1016E0004FEAEC71002907DA0A460021DCF1000C10
:1016F00061EB02012D2202E0220504D52B228DF898
:101700000420012203E0E20701D02022F7E79046FF
:1017100059E00A2102E010220DE010214FF0000AEA
:1017200000910BE010224FF0000A44F00404082757
:10173000009203E008224FF0000A0092C4F3025224
:10174000022A05D059F804CB0021032A08D009E069
:1017500009F1070121F00702F2E802C1914605E014
:101760001FFA8CFC042A01D10CF0FF0C4FF000088A
:10177000220728D5702806D0009B83F0100353EA77
:101780000A0305D00EE040228DF80420012208E073
:101790005CEA010206D030228DF804208DF80500A5
:1017A00002229046009B83F0080353EA0A030AD101
:1017B0005CEA010201D1620705D530228DF80420D0
:1017C0004FF001087F1E582804D034A003900EA8C3
:1017D00002900DE036A0F9E753466046009AFEF706
:1017E00018FD84460398825C0298401E02900270A5
:1017F0005CEA0100F0D1029806A9081A00F1200A5B
:10180000600702D524F4803400E00127574502DD4B
:10181000A7EB0A0000E0002000EB0A010090059809
:101820004144401A0590E00306D45B462146179ACE
:10183000059800F0B3F90544002706E001A85A46D0
:10184000C05D179990476D1C7F1C4745F6DBE00390
:101850000CD55B462146179A059800F09FF9054480
:1018600004E030205A46179990476D1C0099481E95
:1018700000900029F5DC08E0029802995A460078A9
:10188000491C0291179990476D1CBAF10001AAF109
:10189000010AF1DC65E10000092801003031323332
:1018A000343536373839616263646566000000009C
:1018B0003031323334353637383941424344454686
:1018C0000000000000F058F90544761C307800282C
:1018D0007FF4ECAD19B02846BDE8F08F620700D464
:1018E000062709F1070222F0070CFCE80223E14673
:1018F00003F000485FEA080C02D00FF2702C0DE0F4
:101900005FEA045C02D50FF2682C07E05FEAC47C52
:1019100002D00FF2602C01E0AFF2700C4FF0FF38F4
:1019200023F00043CDF850C065280CD006DC4528D4
:1019300009D046281DD047283DD13DE0662818D063
:1019400067287ED138E00021112F01DB112000E053
:10195000781CCDE9000106A90EA8FFF7DDFCDDE942
:101960000F010E9A03910021009207F1010A0491E0
:101970004DE04FF000400097CDE9011006A90EA8F8
:10198000FFF7CAFCDDE90F0203920E9B11990022BA
:10199000DDF80CA00093049211B9791C00EB010A48
:1019A000B7EB0A0004D4C0F1FF3007F1010A04903C
:1019B000AAEB0700019044E0012F00DA0127002183
:1019C000112F01DD112000E03846CDE9000106A904
:1019D0000EA8FFF7A1FCDDE90F010E9A039100218B
:1019E00004910092BA4621070CD40399514500DABC
:1019F0008A46BAF1010F05DD009AAAF10101515C96
:101A0000302908D0B84202DA10F1040F06DA0121B9
:101A1000CDE9011015E0AAF10101E9E7002805DC94
:101A2000049901440491AAEB000102E0411C5145D4
:101A300000DD8A460499401A401C01904FF0004096
:101A40000290200704D40198504501DBCDF80480B2
:101A500000208DF84F0002980DF14F07B0F1004FB4
:101A600025D02B200E9002984FF0020800280CDAA7
:101A7000404202902D200E9007E00A210298FEF7C6
:101A8000B2FB3031029007F8011DB8F10001A8F156
:101A90000108F2DC02980028EFD1791E0E98087038
:101AA000307800F0200040F0450007F8020D12A841
:101AB000C01B00F107081498007800B1012000EB6A
:101AC0000A01019801EBE07105984144401A401E5B
:101AD0000590E00306D45B462146179A059800F06E
:101AE0005DF805441498007818B15A461799904744
:101AF0006D1CE00324D55B462146179A059800F03B
:101B00004DF805441CE00498002807DBDDE90301DB
:101B1000884203DD0098405C179901E01799302056
:101B20005A469047049805F10105401C049001981D
:101B3000401E019004D12E205A46179990476D1CE3
:101B4000BAF10001AAF1010ADDDC05E017F8010B8A
:101B50005A46179990476D1CB8F10001A8F1010889
:101B6000F4DC5B462146179A0598ABE62D00000091
:101B70002B000000200000002DE9F0410446002564
:101B80001E461746880404D405E039462020B04795
:101B90006D1C641EF9D52846BDE8F0812DE9F041A1
:101BA000044600251E469046C80301D5302700E0B4
:101BB0002027880404D505E041463846B0476D1C0F
:101BC000641EF9D52846BDE8F08100001CB501214E
:101BD0001020FEF73BFE02208DF8040000208DF857
:101BE00006008DF8070003208DF805004FF4FE4035
:101BF0000090144C69462046FEF796FD012208210C
:101C00002046FEF7CFFD012209212046FEF7CAFD3E
:101C100001220A212046FEF7C5FD01220B212046A4
:101C2000FEF7C0FD01220C212046FEF7BBFD01227C
:101C30000D212046FEF7B6FD01220E212046FEF7BB
:101C4000B1FD1CBD0010024030B589B0012108462D
:101C5000FEF718FEFFF7BAFF40F2E7300790A72023
:101C6000ADF818000024ADF82040ADF81A408DF80A
:101C700022401F4D06A92846FFF710FA6021ADF853
:101C800004100221ADF810100121ADF80610042156
:101C9000ADF808104FF4FA7103910820ADF8120066
:101CA0004001ADF81400ADF8164001A92846FFF731
:101CB0002DF84FF4C870039001A92846FFF75AF891
:101CC0004FF49670039001A92846FFF797F8C820B3
:101CD000039001A92846FFF7D3F801212846FEF713
:101CE000ECFF01212846FEF7F4FF09B030BD0000EB
:101CF0000000014010B504466FF00400FEF77EFEC0
:101D00000649E008087000EB4002C2EBC0104FF635
:101D1000FF7202EAC000488010BD00001C000020D5
:101D200003490A885206FCD5C2B28A807047000077
:101D3000001001404FF44070FEF77CFDA820FFF733
:101D4000D9FF4FF4E13000F01DF8FFF77DFFFEF7FB
:101D500071FF0A4C64212046FFF786F9C82120460E
:101D6000FFF784F94FF496712046FFF781F932218D
:101D70000348FFF779F9FFF7EDF8FEE700000140AF
:101D800000040140F0B587B0054601210846FEF782
:101D90005DFD01211020FEF775FD234F072209216B
:101DA0003846FEF7FFFC07220A213846FEF7FAFC08
:101DB0004FF4C060059002208DF818008DF81900CE
:101DC00000248DF81A4001268DF81B6005A93846BD
:101DD000FEF7AAFC0195ADF80840ADF80A40ADF851
:101DE0000C40ADF810400C20ADF80E000F4D01A9CD
:101DF0002846FFF70DFA01212846FFF7C1F9012215
:101E000040F225512846FFF7E7F925208DF800001C
:101E100005208DF801008DF802408DF803606846BA
:101E2000FEF7D4FC07B0F0BD0000024000100140F6
:101E3000501E00080000002028000000F8120008D2
:101E4000781E000828000020C804000008130008BD
:101E50000000000001020304010203040607080950
:101E60000000000000000000000000000000000072
:081E700000000000000000006A
:040000050800018965
:00000001FF
