:020000040800F2
:10000000180400209D0100088902000885020008EC
:1000100087020008E50100086107000800000000F1
:10002000000000000000000000000000C502000801
:10003000E7010008000000008B02000881030008AF
:10004000B7010008B7010008B7010008B7010008B0
:10005000B7010008B7010008B7010008B7010008A0
:10006000B7010008B7010008B7010008B701000890
:10007000B7010008B7010008B7010008B701000880
:10008000B7010008B7010008B7010008B701000870
:10009000B7010008B7010008B7010008B701000860
:1000A000B7010008B7010008B7010008B701000850
:1000B000B7010008B7010008B7010008B701000840
:1000C000B7010008B7010008B7010008B701000830
:1000D000B7010008B7010008B7010008B701000820
:1000E000B7010008B7010008B7010008B701000810
:1000F000B7010008B7010008B7010008B701000800
:10010000B7010008B7010008B7010008B7010008EF
:10011000B7010008B7010008B7010008B7010008DF
:10012000B7010008B7010008B7010008B7010008CF
:10013000B7010008B7010008B7010008B7010008BF
:10014000B7010008B7010008B7010008B7010008AF
:10015000B7010008B7010008B7010008B70100089F
:10016000B7010008B7010008B7010008B70100088F
:10017000B7010008B7010008B7010008B70100087F
:10018000B7010008B7010008DFF80CD000F018F83C
:1001900000480047C10800081804002006488047AE
:1001A00006480047FEE7FEE7FEE7FEE7FEE7FEE75C
:1001B000FEE7FEE7FEE7FEE7850300088901000889
:1001C000064C074D06E0E06840F0010394E80700A4
:1001D00098471034AC42F6D3FFF7DAFFF80800086E
:1001E00018090008FEE770472DE9F04100220127B9
:1001F0004FF0030C07FA02F50B682B40AB422CD1F1
:10020000066853000CFA03F4A64306600E79D0F892
:1002100000809E4046EA080606600E79012E01D055
:10022000022E12D18668A64386604E79D0F80880E7
:100230009E4046EA080686604668AE4346604568CA
:100240008E799640B6B235434560C568A543C56012
:10025000CC799C40C3681C43C460521C102AC9D38B
:10026000BDE8F08110B54B07DB0E9A40C90800EBE2
:100270008100016A0F249C40A1430162016A11437D
:10028000016210BDFEE7FEE770477047054A00298E
:1002900003D01168014311607047116881431160F8
:1002A0007047000030380240054A002903D0116829
:1002B000014311607047116881431160704700006D
:1002C00044380240704700000CB5002201920092B1
:1002D0002749086840F4803008604FF4A04308685C
:1002E00000F4003000900198401C0190009810B973
:1002F00001989842F3D10868800302D5012000904C
:1003000000E000920098012831D11948403002687D
:1003100042F0805202601748026842F44042026094
:100320001348083002680260026842F4004202602A
:10033000026842F4A0520260021F0F4B13600A6869
:1003400042F080720A600A689201FCD50B4A40F2C2
:1003500005711160016821F003010160016841F03D
:10036000020101600168C1F381010229FAD10CBDCB
:10037000003802400070004019544007003C024021
:100380007047000010B51248016841F47001016027
:100390001048016841F0010101600E4A0021083255
:1003A000116002680C4B1A400260031D0B4A1A6070
:1003B000026822F48022026006480C300160FFF7D8
:1003C00083FF03494FF000608039086010BD0000D2
:1003D00088ED00E000380240FFFFF6FE10300024F8
:1003E0007CB501210520FFF751FF4020009002203D
:1003F0008DF8040003208DF8050000208DF806001C
:100400008DF807000B4C69462046FFF7EDFE2021D2
:100410000091094D69462846FFF7E6FE03220621B2
:100420002046FFF71FFF032205212846FFF71AFF8A
:100430007CBD0000000802400000024070B588B09A
:10044000204842F210710068B0FBF1F085B205203F
:10045000B5FBF0F601210220FFF726FFFFF7C0FFF2
:100460000024ADF81440ADF816400695ADF81C40D8
:100470008DF81E40144D05A9284600F033F960217F
:10048000ADF800100221ADF80C100121ADF80210FA
:100490000420ADF8040002960820ADF80E004001DB
:1004A000ADF81000ADF812406946284600F028F873
:1004B0000121284600F00AF80121284600F012F830
:1004C00008B070BD0000002000040140002904D0E5
:1004D000018841F0010101807047018821F001018C
:1004E00001807047002905D030F8441F41F40041D5
:1004F0000180704730F8441FC1F30E01018070473E
:1005000030B5028C22F001020284058C8388028BB4
:1005100022F0700222F003020C88144325F002023C
:100520008D8915434A882A430D4DA84202D00D4DAE
:10053000A8420FD122F00805CA892A4322F00405F7
:100540008A882A4323F4807323F400730D8A1D43A1
:100550004B8A2B438380048389684163028430BDC6
:10056000000001400004014070B5028C22F010022E
:100570000284028C8388048B24F4E04424F44076C3
:100580000D884FF6FF7404EA0525354322F020025A
:100590008E8904EA061616434A8804EA0212324398
:1005A000114EB04202D0114EB04217D122F080025B
:1005B000CE8904EA0616164326F040068A8804EA25
:1005C0000212324323F4806323F400630E8A04EAA8
:1005D00086061E434B8A04EA8303334383800583E4
:1005E00089688163028470BD0000014000040140FD
:1005F00070B5028C22F480720284028C8388848B12
:1006000024F0700424F003040D88254322F40072C2
:100610008E894FF6FF7404EA062616434A8804EAD8
:1006200002223243114EB04202D0114EB04217D1D5
:1006300022F40066CA8904EA0222324322F4806668
:100640008A8804EA0222324323F4805323F40053BD
:100650000E8A04EA06161E434B8A04EA0313334348
:10066000838085838968C163028470BD0000014076
:100670000004014070B5028C22F480520284058C83
:100680008288838B23F4E04323F440760C884FF672
:10069000FF7303EA0424344325F400558E8903EAEA
:1006A00006362E434D8803EA05353543084EB042E1
:1006B00002D0084EB04205D122F480460A8A03EAED
:1006C000821232438280848389680164058470BD0C
:1006D000000001400004014041637047816370479E
:1006E000C163704730B50288164C174DA0420DD03B
:1006F000A8420BD0B0F1804F08D0144B984205D0DF
:10070000134B984202D0134B984203D122F070034E
:100710004A881A43104B984206D0104B984203D097
:1007200022F440730A891A4302804A68C2620A8826
:100730000285A04201D0A84201D1897A0186012117
:10074000818230BD000001400004014000040040EF
:1007500000080040000C0040001000400014004061
:10076000FEE702E008C8121F08C1002AFAD170474C
:100770007047002001E001C1121F002AFBD1704721
:100780001CB501211020FFF781FD02208DF8040027
:1007900000208DF806008DF8070003208DF8050075
:1007A0004FF4FE400090144C69462046FFF71CFDB4
:1007B000012208212046FFF755FD0122092120468C
:1007C000FFF750FD01220A212046FFF74BFD0122D1
:1007D0000B212046FFF746FD01220C212046FFF7A2
:1007E00041FD01220D212046FFF73CFD01220E2193
:1007F0002046FFF737FD1CBD001002402DE9F043F5
:1008000089B001210846FFF74FFD2B4842F21071D5
:100810000068B0FBF1F084B20520B4FBF0F6A50847
:100820000320B4FBF0F74FEA5408FFF7A9FF079441
:100830000024ADF81840ADF82040ADF81A408DF80E
:100840002240DFF8789006A94846FFF74BFF60206A
:10085000ADF804000220ADF810000120ADF806004C
:100860000420ADF8080003960820ADF812004001FE
:10087000ADF81400ADF8164001A94846FFF740FE58
:10088000039501A94846FFF76FFE039701A9484663
:10089000FFF7AEFECDF80C8001A94846FFF7EAFE4F
:1008A00001214846FFF712FE01214846FFF71AFED4
:1008B00009B0BDE8F0830000000000200000014006
:1008C000FFF79CFFFFF7BAFD094D42F2D004214625
:1008D0002846FFF701FF21462846FFF7FFFE214685
:1008E0002846FFF7FDFE21460248FFF7F5FEFEE72A
:1008F0000000014000040140180900080000002029
:1009000014000000620700082C09000814000020F1
:100910000404000072070008007A030A00000000C7
:0C092000000000000102030406070809A3
:040000050800018965
:00000001FF
