:020000040800F2
:100000000011002045010008832300087D2000081E
:100010008123000821070008032A000800000000CF
:100020000000000000000000000000005701000870
:1000300023070008000000005B010008A52300085A
:100040005F0100085F0100085F0100085F01000810
:100050005F0100085F0100085F0100085F01000800
:100060005F0100085F0100085F0100085F010008F0
:100070005F0100085F0100085F0100085F010008E0
:100080005F0100085F0100085F0100085F010008D0
:100090005F0100085F0100085F0100085F010008C0
:1000A0005F0100085F0100085F0100085F010008B0
:1000B0005F010008592400085F0100085F01000883
:1000C0005F0100085F0100085F0100085F01000890
:1000D0005F0100085F0100085F0100085F01000880
:1000E0005F0100085F0100085F0100085F01000870
:1000F0005F0100085F0100085F0100085F01000860
:100100005F0100085F0100085F0100085F0100084F
:100110005F0100085F0100085F0100085F0100083F
:100120005F0100085F0100085F0100085F0100082F
:10013000DFF80CD000F0E2FA004800471133000865
:10014000001100200648804706480047FEE7FEE70A
:10015000FEE7FEE7FEE7FEE7FEE7FEE7FEE7FEE777
:100160001124000831010008202A04DB203A21FA7A
:1001700002F00021704721FA02F3D040C2F12002C0
:1001800091400843194670472DE9FE4F804681EAA9
:100190000300C00F0C46009021F0004123F0004501
:1001A000B8EB0200A94105D24046214690461C46C4
:1001B0000B46024623F00040104347D0270DC7F3FB
:1001C0000A00C3F30A510290401A019040286BDAEA
:1001D000C3F3130040F4801B0098924620B1002323
:1001E000D2EB030A63EB0B0B01985946C0F14002B6
:1001F000504600F0D5F906460D4650465946019A3C
:1002000000F0DDF910EB08006141002487EA11528B
:1002100084EAE7731A4340D0009A62B3019A012A34
:100220004FEA075215DC001B61EB02014FF0004260
:1002300002EA0752CDE90042001C41F58011324626
:100240002B4600F0DDF903B0BDE8F08F40462146B3
:10025000F9E7001B61EB0201001C41F58013001857
:100260005B412018A2F5001747EB030140EAD57067
:10027000B6196D4111E06D084FEA360645EAC075C2
:100280004FEA0752001B61EB0201001C41F580118F
:1002900049084FEA30000019514132462B4603B05D
:1002A000BDE8F04F00F09DB9009801224000002306
:1002B000D0EB020263EBE073009821464FEAE07452
:1002C000B8EB000061EB0401E9E783F000435BE772
:1002D00081F0004158E72DE9FE4F81EA030404F064
:1002E000004421F0004100944FF0000B23F0004344
:1002F00050EA01045ED052EA03045BD0C3F30A540F
:10030000C1F30A552C44A4F2F3340194A0FB025427
:10031000C1F3130141F48011C3F3130343F48013B9
:1003200001FB024400FB034E840A970A44EA81540D
:1003300047EA8357A4FB076802958D0A05FB0785EA
:100340004FEA932C04FB0C542705029D4FEA0658F4
:1003500047EA1637B5EB08056EEB070C870E920ED1
:1003600047EA811742EA8312A7FB0201B6EB0B01B1
:1003700064EB00042B0D43EA0C335E1844EB1C5075
:10038000DA465146E7FB0201C5F313044FEA0B338B
:1003900043EA14534FEA0432019C43EA0603A4F1F2
:1003A0000C040294009CCDE900B400F029F903B0DC
:1003B000BDE8F08F00200146F9E72DE9F04D81EA14
:1003C000030404F0004B21F0004514464FF0000AEE
:1003D00023F0004150EA050220D054EA01021DD06A
:1003E000C5F30A570246C5F31303C1F31300C1F363
:1003F0000A5640F4801543F48013A7EB0608101B3F
:10040000D64608F2FD3873EB050002D308F1010867
:1004100001E092185B41B8F1000F03DA00200146B9
:10042000BDE8F08D00204FF48011064684460EE0B2
:10043000171B73EB050705D3121B63EB050306437C
:100440004CEA010C49084FEA300092185B4150EA2F
:100450000107EDD152EA030012D082EA040083EAD8
:100460000501084305D0101BAB4106D20122002331
:1004700006E000224FF0004302E06FF0010253104B
:100480001AEB06004CEB085110EB0A0041EB0B0194
:10049000BDE8F04D00F0A5B80EB5C10F80EAE070E0
:1004A0000844CA07002140F233438DE80E000A4693
:1004B0000B4600F0A5F803B000BD0EB540F2334185
:1004C00002910021CDE900110A460B4600F098F890
:1004D00003B000BD70B5C1F30A5201F0004500241D
:1004E000C1F3130140F2FF3341F480119A4201DA63
:1004F000002070BD40F233439A42A2F2334203DC43
:100500005242FFF731FE00E090402C43F1D04042D0
:1005100070BD30B50B46014600202022012409E0C1
:1005200021FA02F59D4205D303FA02F5491B04FAAC
:1005300002F52844151EA2F10102F1DC30BD2DE9BF
:10054000F05F0546002092469B4688460646814657
:1005500040241BE02846414647462246FFF704FE5A
:1005600053465A46C01A914110D3114618462246A6
:1005700000F016F82D1A67EB01084F4622460120BD
:10058000002100F00DF817EB00094E41201EA4F1E8
:100590000104DFDC484631462A464346BDE8F09F69
:1005A000202A04DB203A00FA02F100207047914033
:1005B000C2F1200320FA03F3194390407047202A28
:1005C00006DBCB17203A41FA02F043EAE07306E07B
:1005D00041FA02F3D040C2F120029140084319468B
:1005E000704710B5141E73F1000408DA401C41F185
:1005F000000192185B411A4301D120F0010010BDA7
:100600002DE9F04D92469B4611B1B1FA81F202E01C
:10061000B0FA80F220329046FFF7C2FF04460F4640
:1006200040EA0A0041EA0B0153465A46084313D0F8
:10063000114653EA010019D0C8F140025046FFF7B5
:1006400093FD05460E46504659464246FFF7A8FF21
:10065000084305D0012004E020463946BDE8F08D6E
:100660000020054346EAE0762C4337430A986305A9
:10067000E40AA0EB08000022FD0A44EA47540A30CD
:1006800002D500200146E9E7010510196941DDE9BD
:10069000084500196941BDE8F04DA2E7C1F30A52CF
:1006A000C1F3130140F2FF3341F480119A4202DAA0
:1006B00000200146704740F233439A42A2F233428F
:1006C00002DC5242FFF750BDFFF76ABF30B5041E8F
:1006D00071F1000404DB4FF00044404264EB01017F
:1006E000141E73F1000405DB1C464FF00043524218
:1006F00063EB0403994208BF904230BD064C074D9E
:1007000006E0E06840F0010394E8070098471034E1
:10071000AC42F6D3FFF710FDB0330008D033000829
:10072000FEE7FEE700B585B00948816941F00801A0
:100730008161806900F00800009001200190002094
:100740000290039001A9034800F05AF805B000BDDB
:1007500000100240000C014010B5002201211D20B4
:1007600000F0CAF9BDE810401D2000F0B9B9000042
:1007700010B58CB01948C16941F00201C161C0696E
:1007800000F002000190FFF7CDFFFFF7E5FF1548ED
:10079000134901600B214160002484604FF6FF7112
:1007A000C160046101F0BDF84FF48050089008A9C1
:1007B0000C4801F0F4F80694079406A9094801F0E2
:1007C00054F802940120039004940594082202A98D
:1007D000044801F073F90CB010BD00000010024095
:1007E000000400408400002031B500F019F90446EF
:1007F00000F016F90099001B8842F9D338BD0000BB
:100800002DE9F84F00230024DFF8DC914FF00F08AA
:1008100009F1040A0AF1040B0BF1040E0127A740A9
:100820000A683A40BA4275D1DFF8C0C14D68A5EBFD
:100830000C0665452BD00DDC032D34D005DC35B31B
:10084000012D19D0022D2FD11BE0112D16D0122D04
:100850002AD119E0B6F5881F19D006DCB6F5803F1D
:1008600015D0B6F5801F1FD111E0B6F5001F0ED0D0
:10087000B6F5041F18D10AE0CB6815E0CB681B1D44
:1008800012E0CB6808330FE0CB680C330CE08B68C8
:1008900023B1012B04D00823476105E0042303E0C2
:1008A0000823076100E00023FF2A01D8054601E084
:1008B00000F1040502D84FEA840603E0A4F108061B
:1008C0004FEA86062F6808FA06FC27EA0C0703FAA7
:1008D00006F647EA06072F604D68ED007ED5444DC9
:1008E000AE6946F00106AE61AD6905F001050095FF
:1008F000404D24F003067719BE68A5072D0F08FAAE
:1009000005FC26EA0C06DFF8F0C0604503D14FF085
:10091000000C25E062E0DFF8E4C0604502D14FF052
:10092000010C1DE0DFF8D8C0604502D14FF0020C89
:1009300016E0DFF8D0C0604502D14FF0030C0FE0A5
:10094000DFF8C4C0604502D14FF0040C08E0DFF8C6
:10095000BCC0604502D14FF0050C01E04FF0060C21
:100960000CFA05FC4CEA060CC7F808C04D68ED030C
:1009700005D5D9F800501543C9F8005004E0D9F85E
:1009800000509543C9F800504D68AD0305D5DAF81D
:1009900000501543CAF8005004E0DAF800509543BF
:1009A000CAF800504D68ED0205D5DBF8005015433C
:1009B000CBF8005004E0DBF800509543CBF8005032
:1009C0004D68AD0205D5DEF800501543CEF8005055
:1009D00004E0DEF800509543CEF80050641C102C63
:1009E000FFF41CAFBDE8F88F0004014000001110B7
:1009F000001002400000014000080140000C0140CE
:100A0000001001400014014000180140001C01408A
:100A10008068084201D00120704700207047000024
:100A20000148006870470000040000200248016887
:100A3000491C0160704700000400002010B5074801
:100A4000016841F010010160032000F075F80020FA
:100A500000F006F800F016F8002010BD002002405B
:100A600010B5044600F0D6F94FF47A72B0FBF2F0FC
:100A700000F0C0FE00222146501E00F03DF800208C
:100A800010BD000008B51548816941F00101816180
:100A9000806900F001000090052000F04DF8002270
:100AA00011466FF00B0000F027F8002211466FF09E
:100AB0000A0000F021F8002211466FF0090000F052
:100AC0001BF800221146101F00F016F80022BDE8A6
:100AD00008401146501E00F00FB800000010024000
:100AE00000F01F02012191404009800000F1E02048
:100AF000C0F8001170470000F0B40D460D4B1B68A4
:100B0000C3F30223C3F10704042C00D90424191DE4
:100B1000072901D2002300E0DB1E012606FA04F1BA
:100B2000491E294099409E40761E16403143F0BC34
:100B300001F028BC0CED00E000F00701054A106848
:100B40004FF6FF03184040EA0120034908431060B4
:100B5000704700000CED00E00000FA052DE9F047B9
:100B600004460F46DFF8A492D9F80000A84D00F023
:100B700007010120430446064FF0020C41F2883879
:100B8000B9426FD2D9F8001021F007013943C9F8F2
:100B90000010D9F8001001F00701B94201D0BDE8FA
:100BA000F0872178890705D56968A26821F0F001EE
:100BB000114369602178C90761D0616801290BD0B0
:100BC00002291FD09CFAACF2B2FA82F242F0200263
:100BD00052092DD02A682CE093FAA3F2B2FA82F2DD
:100BE00042F02002520901D02A6800E06A6A93FAB2
:100BF000A3F3B3FA83F303F01F039840024223D117
:100C00000120CCE796FAA6F2B2FA82F242F0200274
:100C1000520901D02A6800E06A6A96FAA6F3B3FA8C
:100C200083F303F01F03984002420DD10120B6E781
:100C30006A6A9CFAACF3B3FA83F303F01F0398409B
:100C4000024201D10120AAE7686820F003000843AE
:100C50006860FFF7E5FE0646606801280AD00228B2
:100C600015D021E025E0FFF7DBFE801B404501D9D0
:100C7000032094E76868C0F381000128F3D1ADE058
:100C8000FFF7CEFE801B404501D9032087E7686847
:100C9000C0F381000228F3D1A0E0FFF7C1FE801B62
:100CA000404501D903207AE7686810F00C0FF4D1B1
:100CB00094E02178890705D56968A26821F0F001E0
:100CC000114369602178C90779D0616801290BD087
:100CD00002291FD09CFAACF2B2FA82F242F0200252
:100CE00052092DD02A682CE093FAA3F2B2FA82F2CC
:100CF00042F02002520901D02A6800E06A6A93FAA1
:100D0000A3F3B3FA83F303F01F039840024223D105
:100D1000012044E796FAA6F2B2FA82F242F02002EB
:100D2000520901D02A6800E06A6A96FAA6F3B3FA7B
:100D300083F303F01F03984002420DD101202EE7F8
:100D40006A6A9CFAACF3B3FA83F303F01F0398408A
:100D5000024201D1012022E7686820F00300084325
:100D60006860FFF75DFE06466068012809D002282A
:100D700014D020E0FFF754FE801B404501D903202A
:100D80000DE76868C0F381000128F3D117E0FFF791
:100D900047FE801B404501D9032000E76868C0F387
:100DA00081000228F3D10AE0FFF73AFE801B40459C
:100DB00001D90320F3E6686810F00C0FF4D1D9F8DC
:100DC000000020F007003843C9F80000D9F80000FF
:100DD00000F00700B84201D00120E0E6207840078B
:100DE00005D56868E16820F4E06008436860207811
:100DF000000706D56868216920F4605040EAC10008
:100E000068600020FFF72CFE0020C8E600200240AA
:100E10000010024000B500F043F808494968F0228C
:100E200092FAA2F201F0F001B2FA82F2D140044A41
:100E3000515CC8400349086000BD0000001002403A
:100E4000A03300080000002000B5FFF7E3FF0749CA
:100E500049684FF4E06292FAA2F201F4E061B2FA5A
:100E600082F2D140024A515CC84000BD00100240ED
:100E7000A033000800B5FFF7CDFF074949684FF4DC
:100E8000605292FAA2F201F46051B2FA82F2D140B9
:100E9000024A515CC84000BD00100240A033000867
:100EA00010B585B01AA0D0E90031D0E90220CDE913
:100EB0000131CDE903201AA000680090194B596850
:100EC000194801F00C02042A1DD0082A1BD14FF446
:100ED000701494FAA4F401F47012B4FA84F4E240A9
:100EE00001ACA25CC90310D559684FF4003393FAE2
:100EF000A3F301F40031B3FA83F3D9401DF80110D4
:100F0000B0FBF1F0504305B010BD08485043FAE77C
:100F100002030405060708090A0B0C0D0E0F10103A
:100F2000010200000010024000127A0000093D009A
:100F30002DE9F84F0446F94D20784FF00106C0071F
:100F400075D068687704C0F38100012807D068680D
:100F5000C0F3810002281DD16868C0031AD597FA32
:100F6000A7F0B0FA80F040F02000400901D02868D6
:100F700000E0686A97FAA7F1B1FA81F101F01F0267
:100F800006FA02F1084252D0606800284FD10120D1
:100F9000BDE8F88F286820F480302860286820F4A5
:100FA00080202860FFF73CFD804607E0FFF738FD12
:100FB000A0EB0800642801D90320E9E797FAA7F01D
:100FC000B0FA80F040F02000400901D0286800E02D
:100FD000686A97FAA7F1B1FA81F101F01F0106FAE8
:100FE00001F10842E2D16068B0F5803F11D0A8B1AC
:100FF000B0F5A02F1CD0286820F480302860286825
:1010000020F4802028606068C8B3FFF709FD80469F
:101010001FE0286840F480302860F4E7286820F456
:1010200080302860286820F480202860EBE748E0C2
:10103000286840F480202860286840F480302860C8
:10104000E1E7FFF7EDFCA0EB0800642801D90320DD
:101050009EE797FAA7F0B0FA80F040F02000400930
:1010600001D0286800E0686A97FAA7F1B1FA81F127
:1010700001F01F0106FA01F10842E2D021E0FFE78A
:10108000FFF7CEFC804607E0FFF7CAFCA0EB0800A4
:10109000642801D903207BE797FAA7F0B0FA80F023
:1010A00040F02000400901D0286800E0686A97FA03
:1010B000A7F1B1FA81F101F01F0106FA01F108422E
:1010C000E2D12078DFF8588280074FF0000B4FF014
:1010D000020732D568684FF0F80A10F00C0F07D0FD
:1010E0006868C0F38100022828D16868C00325D44D
:1010F00097FAA7F0B0FA80F040F02000400901D044
:10110000286800E0686A97FAA7F1B1FA81F101F066
:101110001F0106FA01F1084204D02069012801D01C
:10112000012035E728689AFAAAF26169B2FA82F2D8
:1011300020F0F8009140084328605CE0206990B3FB
:1011400096FAA6F0B0FA80F048F82060FFF768FC45
:10115000814607E0FFF764FCA0EB0900022801D9F3
:10116000032015E797FAA7F0B0FA80F040F02000CE
:10117000400901D0286800E0686A97FAA7F1B1FA3F
:1011800081F101F01F0106FA01F10842E2D028685E
:101190009AFAAAF26169B2FA82F220F0F80091405C
:1011A0000843286027E0FFE796FAA6F0B0FA80F03F
:1011B00048F820B0FFF734FC814607E0FFF730FC29
:1011C000A0EB0900022801D90320E1E697FAA7F075
:1011D000B0FA80F040F02000400901D0286800E01B
:1011E000686A97FAA7F1B1FA81F101F01F0106FAD6
:1011F00001F10842E2D12078000770D5A069C0B3A0
:1012000096FAA6F0B0FA80F008EB8000C0F880648F
:10121000FFF706FC814607E0FFF702FCA0EB0900A0
:10122000022801D90320B3E697FAA7F0B0FA80F0BC
:1012300040F06000B6EB501F01D128680BE097FA30
:10124000A7F0B0FA80F040F06000B7EB501F01D17A
:10125000286A00E0686A97FAA7F1B1FA81F101F013
:101260001F0206FA02F10842D6D00120FFF7BCFAAD
:1012700035E0FFE796FAA6F0B0FA80F008EB8000C0
:10128000C0F880B4FFF7CCFB814607E0FFF7C8FB4E
:10129000A0EB0900022801D9032079E697FAA7F00C
:1012A000B0FA80F040F06000B6EB501F01D1286822
:1012B0000BE097FAA7F0B0FA80F040F06000B7EBCF
:1012C000501F01D1286A00E0686A97FAA7F1B1FAC5
:1012D00081F101F01F0206FA02F10842D6D120780E
:1012E000400770D5E86940F08050E861E86900F097
:1012F00080500090DFF82CA0DAF8000040F48070F5
:10130000CAF80000FFF78CFB81460DE0FFF788FB71
:10131000A0EB0900642807D9032039E60010024039
:101320000000424200700040DAF80000C005EDD530
:10133000286A20F001002862286A20F00400286250
:10134000FFF76EFB814641F2883A07E0FFF768FB42
:10135000A0EB0900504501D9032019E697FAA7F040
:10136000B0FA80F040F04000B6EB501F01D1286881
:101370000BE097FAA7F0B0FA80F040F04000B7EB2E
:10138000501F01D1286A00E0686A97FAA7F1B1FA04
:1013900081F101F01F0106FA01F10842D6D1E0689F
:1013A000012811D0A8B105281CD0286A20F001001E
:1013B0002862286A20F004002862E068C8B3FFF7BA
:1013C0002FFB81461FE06EE0286A40F00100286292
:1013D000F3E7286A20F001002862286A20F0040060
:1013E0002862EAE7286A40F004002862286A40F090
:1013F00001002862E1E7FFF713FBA0EB090050456D
:1014000001D90320C4E597FAA7F0B0FA80F040F0C4
:101410004000B6EB501F01D128680CE097FAA7F006
:10142000B0FA80F040F04000B7EB501F02D1286ABC
:1014300001E00BE0686A97FAA7F1B1FA81F101F0D7
:101440001F0206FA02F10842D5D02CE0FFF7E8FAB5
:10145000814607E0FFF7E4FAA0EB0900504501D907
:10146000032095E597FAA7F0B0FA80F040F040002D
:10147000B6EB501F01D128680BE097FAA7F0B0FA3D
:1014800080F040F04000B7EB501F01D1286A00E027
:10149000686A97FAA7F1B1FA81F101F01F0206FA22
:1014A00002F10842D6D1E06980B36968C1F38101D5
:1014B000022970D04FF080794FF00077022809D0D0
:1014C00099FAA9F0B0FA80F048F820B0FFF7A8FA2E
:1014D000044668E099FAA9F0B0FA80F048F820B024
:1014E000FFF79EFA824607E0FFF79AFAA0EB0A00A0
:1014F000022801D903204BE597FAA7F0B0FA80F053
:1015000040F02000400902D0286801E060E0686AED
:1015100097FAA7F1B1FA81F101F01F0106FA01F182
:101520000842E1D1206AB0F5803F05D16868A16822
:1015300020F4003008436860D4E908010843696872
:1015400021F474110843686099FAA9F0B0FA80F0A8
:1015500048F82060FFF764FA044606E0FFF760FAF7
:10156000001B022801D9032012E597FAA7F0B0FA70
:1015700080F040F02000400901D0296800E0696A4D
:1015800097FAA7F0B0FA80F000F01F0006FA00F01A
:101590000142E3D01CE01DE0FFF742FA001B0228E5
:1015A00001D90320F4E497FAA7F0B0FA80F040F0F4
:1015B0002000400901D0296800E0696A97FAA7F085
:1015C000B0FA80F000F01F0006FA00F00142E3D10B
:1015D0000020DDE40120DBE44FF0E021042804D00A
:1015E000086920F0040008617047086940F00400B1
:1015F000086170472DE9FF473C4C2078002872D0E5
:101600006088401C60806088C8286CD16068039046
:1016100000266660039800F033FD02900298344D76
:1016200010F1030F02DB0298032803DD28880299DA
:10163000084428802888B0F5617F02D340F28330C7
:101640002880A7683868FEF727FFCDE900013A68CF
:10165000618828A001F0D6F960884FF47A77B7FB4B
:10166000F0F0FEF72AFFDDE90023FEF734FEDFF895
:10167000B48000224346FEF7A0FEDFF8AC900022C3
:101680004B46FEF79AFE02460B4628A001F0BAF937
:101690000398FEF712FFCDE900016188039A30A09C
:1016A00001F0B0F96088B7FBF0F0FEF706FFDDE966
:1016B0000023FEF710FE00224346FEF77EFE0022C6
:1016C0004B46FEF77AFE02460B4630A001F09AF92F
:1016D0002A883BA0029901F095F92A88022101206D
:1016E00000F084FD6680BDE8FF8700000800002050
:1016F000140000200AC9E8B6A8C4BFB1EACBD9B625
:10170000C8202D3E20B1E0C2EBC6F7D4DA256473C1
:10171000CAB1BCE4BCC6CAFD2564B8F6C2F6B3E5DE
:101720000A00000000002640000041402020202048
:10173000202020202020202020202020CFE0B5B114
:10174000D3DACAB5BCCAC4BFB1EACBD9B6C8CEAA2F
:10175000A3BA25302E3266C8A62F730A00000000F7
:10176000B5B1C7B0B5E7BBFACBD9B6C82D3E20B1ED
:10177000E0C2EBC6F7D4DA256473CAB1BCE4BCC6D8
:10178000CAFD2564B8F6C2F6B3E50A002020202081
:10179000202020202020202020202020CFE0B5B1B4
:1017A000D3DAB5B1C7B0CAB5BCCACBD9B6C8CEAA10
:1017B000A3BA25302E3266C8A62F730A0000000097
:1017C000D4F6C1BFCABD504944CBE3B7A8BCC6CA12
:1017D000FDBDE1B9FBD6B5A3BA2564202020C9E838
:1017E000D6C3D0C2B5C4D5BCBFD5B1C8CEAAA3BAE2
:1017F00025640A0010B5401EB0F1807F01D301209E
:1018000010BD4FF0E02460610F21601700F0BAFDB9
:101810000020A06107202061002010BD10B5FFF757
:10182000E9FE10BD7047704730B590F83820012AA6
:1018300019D0012200F8382F02234370D1E9003477
:101840002343D1E902452C4323430C6923434C69CC
:10185000896923430B4350F8381C4B6442700021C4
:101860000170002030BD022030BD30B590F8382026
:10187000012A20D0012380F83830022280F8392054
:101880000268546824F070045460026854680D685B
:101890002C4354600268946824F0800494600268C9
:1018A000946849680C43946080F83930002180F8CE
:1018B0003810002030BD022030BD10B5044604228F
:1018C000206800F01EFE2068416C41F40041416434
:1018D0002068016841F001010160002010BD10B5D1
:1018E00004460022206800F00CFE2168086A41F2DC
:1018F0001112104240F2444306D1086A184203D143
:10190000486C20F4004048642068016A114206D106
:10191000016A194203D1016821F001010160002030
:1019200010BD10B50446002C03D094F8390010B156
:1019300007E0012010BD002084F83800204600F0A8
:101940000DF8022084F83900211D206800F08AFD7E
:10195000012084F83900002010BD000008B500689F
:101960000649884208D10648816941F400618161D5
:10197000806900F40060009008BD0000002C014068
:1019800000100240022180F8391001680A6842F014
:1019900001020A60012180F839100020704770B5FB
:1019A000044694F83800012817D0012584F83850EF
:1019B000022084F839002068826822F0770222F43D
:1019C0007F428260086850283AD00DDC20285FD022
:1019D00005DCA0B3102864D155E0022070BD30288A
:1019E0005BD040285DD13FE0602833D070280CD018
:1019F000B0F5805F03D0B0F5005F52D113E02068EE
:101A0000816821F0070181604BE0CB68D1E90121B9
:101A1000206800F081FD2068816821F0770141F0A5
:101A2000770181603DE0CB68D1E90121206800F0B9
:101A300073FD2068816841F48041816031E01DE0E0
:101A4000CA684968206800F049FE5021206800F00B
:101A50006DFD26E0CA684968206800F087FE6021B5
:101A6000206800F063FD1CE0CA684968206800F047
:101A700035FE4021206800F059FD12E00021206869
:101A800000F054FD0DE01021206800F04FFD08E04B
:101A90002021206800F04AFD03E03021206800F09A
:101AA00045FD383465700020207070BD02484168E3
:101AB000491C4160704700000800002070B50446D2
:101AC0000D4694F83800012820D0012684F83860AB
:101AD000022084F83900DAB1042A2AD0082A3AD040
:101AE000D5E90012EB68206800F086FE2068C16925
:101AF00021F44061C1612068C169AA6841EA0221FC
:101B0000C161383466700020207070BD022070BD45
:101B1000D5E90012EB68206800F0F2FD20688169C9
:101B200021F00C01816120688169AA6811438161FB
:101B3000E7E7D5E90012EB68206800F029FE20688D
:101B4000816921F44061816120688169AA6841EA64
:101B500002218161D5E7D5E90012EB68206800F029
:101B600032FE2068C16921F00C01C1612068C169A1
:101B7000AA681143C161C4E710B504460029226870
:101B800006D0042909D008290CD00C2913D10EE065
:101B9000D06840F00200D0600DE0D06840F0040052
:101BA000D06008E0D06840F00800D06003E0D06862
:101BB00040F01000D0600122206800F097FC2068FF
:101BC000016841F001010160002010BD70B50446BC
:101BD000206801694FF00005C943890716D4C16820
:101BE000C943890712D4E91E0161012020762068CB
:101BF0008069800703D02046FFF758FF05E02046A4
:101C000000F09BF8204600F023F925762068016952
:101C1000C943490718D4C168C943490714D46FF0B0
:101C200004010161022020762068806910F4407F61
:101C300003D02046FFF73AFF05E0204600F07DF88C
:101C4000204600F005F9257620680169C943090797
:101C500017D4C168C943090713D46FF008010161A3
:101C6000042020762068C069800703D02046FFF753
:101C70001DFF05E0204600F060F8204600F0E8F87F
:101C8000257620680169C943C90618D4C168C943CB
:101C9000C90614D46FF01001016108202076206875
:101CA000C06910F4407F03D02046FFF7FFFE05E037
:101CB000204600F042F8204600F0CAF82576206859
:101CC0000169C943C90708D1C168C943C90704D11B
:101CD000891E0161204600F007F920680169C943A7
:101CE000090609D4C168C943090605D46FF080010B
:101CF00001612046FFF796FD20680169C943490646
:101D000009D4C168C943490605D46FF04001016197
:101D1000204600F0EAF820680169C94389060BD41F
:101D2000C168C943890607D46FF0200101612046CC
:101D3000BDE87040FFF777BD70BD704770B50446D1
:101D40000D4694F8380001280DD0012684F838603B
:101D5000022084F8390042B1042A1AD0082A2DD072
:101D60000C2A53D13EE0022070BD2946206800F0C5
:101D7000E5FB2068816941F0080181612068816983
:101D800021F004018161206881692A691143816120
:101D90003CE02946206800F005FC2068816941F498
:101DA000006181612068816921F48061816120681E
:101DB00081692A6941EA0221816127E02946206878
:101DC00000F02AFC2068C16941F00801C161206867
:101DD000C16921F00401C1612068C1692A69114308
:101DE000C16113E02946206800F04EFC2068C169FB
:101DF00041F40061C1612068C16921F48061C16161
:101E00002068C1692A6941EA0221C16138346670DB
:101E10000020207070BD10B50446002C03D094F84B
:101E2000390010B107E0012010BD002084F838000F
:101E3000204600F00CF8022084F83900211D2068AB
:101E400000F010FB012084F83900002010BD70471D
:101E50007047000010B504460122206800F046FBE0
:101E600008482168814202D00748814203D1486C6A
:101E700040F4004048642068016841F001010160BD
:101E8000002010BD002C01400034014010B5044674
:101E90000022206800F02AFB114841F2111221684B
:101EA0009310814202D00F48814209D1086A104242
:101EB00006D1086A184203D1486C20F400404864F7
:101EC0002068016A114206D1016A194203D10168F2
:101ED00021F001010160012084F83900002010BDCB
:101EE000002C0140003401407047704770B5044633
:101EF000002C04D094F83900002510B106E0012030
:101F000070BD84F83850204600F020F8022084F894
:101F100039002068C16821F40051C160204600F0FA
:101F200087FC2068016921F49041016120684169C2
:101F300021F02A0141612068C16841F40051C1606B
:101F4000E563012084F83900002070BD10B586B02B
:101F50000068114988421DD11048816941F48041CF
:101F60008161806900F4804001904FF4007002901C
:101F70000220039003200590094C02A92046FEF799
:101F80003FFC2115029100210391049102A92046F2
:101F9000FEF736FC06B010BD0038014000100240CC
:101FA000000801402DE9F04104460D46984694F89A
:101FB0003900012804D0222802D00220BDE8F08197
:101FC0009DB192B194F83800012810D0012684F810
:101FD00038600027E76394F83900222809D01220DE
:101FE00084F83900A284E2842EE00120E6E7022092
:101FF000E4E7322084F83900F4E7401EE084A0686A
:10200000B0F5805F08D0434600228021204600F0D2
:1020100095FCA8B10320D1E7434600228021204649
:1020200000F08CFC08B10320C8E728882168C0F3C1
:1020300008004860206908B16D1C05E0AD1C03E094
:10204000216815F8010B4860E08C0028D5D1434683
:1020500000224021204600F071FC08B10320ADE7CA
:1020600094F83900322805D084F8396084F8387043
:102070000020A3E7222084F83900F7E7FEE70000FC
:102080002DE9F04716498E683168A1EB0009706AA6
:10209000FEF702FAB269F369FEF71DF907468846B2
:1020A000306AFEF7F9F932697369FEF714F90446EC
:1020B0000D464846FEF7F0F9B268F368FEF70BF9F3
:1020C00022462B46FEF701F93A464346FEF75CF8F6
:1020D000FEF700FA316A7162C6F82090BDE8F08719
:1020E000080000200A480021806801624162094A14
:1020F00009498260C1601146084A016142614FF09E
:102100003331074A8161C2613221016070470000AA
:10211000080000209A999999999909409999F13F55
:102120003333C3BF10B50C4C08212046FEF770FCBA
:1021300038B91420FEF758FB08212046FEF768FC4A
:1021400008B1002010BD08212046FEF761FC0028E0
:10215000F9D0012010BD00000018014010B50C4C52
:1021600010212046FEF754FC38B91420FEF73CFB42
:1021700010212046FEF74CFC08B1002010BD1021B4
:102180002046FEF745FC0028F9D0012010BD0000D4
:102190000018014070B586B01248816941F04001D5
:1021A0008161816901F040010191816941F0400143
:1021B0008161806900F040000190082002900025B4
:1021C000039501240494084E02A93046FEF718FB3B
:1021D000102102910395049402A93046FEF710FBEA
:1021E00006B070BD001002400018014010B5144642
:1021F00001280BD0022818D100211548FFF746FE10
:10220000BDE8104000211248FFF769BB01290DD03D
:10221000022914D000210E48FFF738FE00210C4897
:10222000FFF75DFB0A480068446310BD00210848C1
:10223000FFF710FE00210648FFF751FBF2E70021EF
:102240000348FFF723FE00210148FFF736FBE9E7CB
:102250004800002000B585B01248816941F00401B2
:102260008161816901F004010091816941F00801F7
:102270008161806900F0080000904FF48070019047
:10228000022002900320049001A90748FEF7B8FA43
:102290004FF40050019001A90448FEF7B1FA05B0CF
:1022A00000BD00000010024000080140000C014089
:1022B00010B594B01F481E490160012141600024FF
:1022C000846040F28331C16004614461FFF729FBFF
:1022D0004FF48050109010A91648FFF760FB154886
:1022E000FFF799FD0E940F940EA91248FFF7BDFA5F
:1022F0000794089409940A940B944FF400500C909E
:102300000D9407A90B48FFF78FFA602000900A4848
:10231000008801900294039404940594069400228A
:1023200069460448FFF70AFDFFF794FF14B010BD9B
:10233000002C0140480000201400002082B00D480D
:10234000816941F004018161806900F0040001901D
:102350000A48094901604FF4E13141600021816080
:10236000C16001610C2242618161C16102B0FFF76D
:10237000BDBD00000010024000380140C000002038
:10238000FEE770470907090E002806DA00F00F0083
:1023900000F1E02080F8141D704700F1E02080F883
:1023A0000014704710B5FEF741FBBDE81040FFF781
:1023B00035BA30B58FB00120059000040690002496
:1023C000079402250C950D904FF4E0100E9005A88F
:1023D000FEF7AEFD0F200090019502946802039075
:1023E000049402216846FEF7B9FBFEF713FD4FF493
:1023F0007A71B0FBF1F0FFF7FDF90420FFF7ECF87C
:1024000000221146501EFEF777FB0FB030BD0000D2
:102410000D48016841F00101016041680B4A11401B
:10242000416001680A4A11400160016821F480217D
:102430000160416821F4FE0141604FF41F01816099
:102440000449C00308607047001002400000FFF814
:10245000FFFFF6FE08ED00E00148FFF7B7BB000004
:10246000840000202DE9F04102681B4D1B4E1C4FDB
:10247000DFF870C01C4B4FF08048A84209D098424A
:1024800007D0404505D0B04203D0B84201D06045E6
:1024900003D122F070044A682243A84209D098422E
:1024A00007D0404505D0B04203D0B84201D06045C6
:1024B00003D122F44074CA68224302608A68C2626F
:1024C0000A688262A84201D0984201D10969016379
:1024D00001214161BDE8F081002C01400004004071
:1024E00000080040000C00400034014010B50123FA
:1024F0008B40046A9C430462036A8A40134303626C
:1025000010BD10B504238B40046A9C430462036A27
:102510008A401343036210BD10B5846824F47F44DD
:1025200042EA03220A432243826010BD826822F0FD
:1025300070020A4342F0070181607047F0B5026AF9
:1025400022F001020262026A4368846924F0700486
:1025500024F003050C682C4322F002058A682A4304
:102560000E4E0F4FB04201D0B84205D122F00805FF
:10257000CA682A4322F00402B04201D0B84207D10F
:1025800023F4807323F400734D691D438B692B433F
:1025900043608461496841630262F0BD002C0140E0
:1025A00000340140F0B5026A22F010020262036AB0
:1025B0004268846924F4E04424F440740D6844EAD9
:1025C000052423F020038D6843EA0513104D114EB6
:1025D000A84201D0B04206D123F08003CF6843EA7D
:1025E000071323F04003A84201D0B04209D122F4DE
:1025F000806222F400624D6942EA85028D6942EAF6
:10260000850242608461496881630362F0BD000015
:10261000002C014000340140F0B5026A22F48072BF
:102620000262026A4368C46924F0700424F003055E
:102630000C682C4322F400728D6842EA0522104D8A
:10264000104EA84201D0B04206D122F40062CF68F9
:1026500042EA072222F48062A84201D0B04209D1A6
:1026600023F4805323F400534D6943EA05138D6925
:1026700043EA05134360C4614968C1630262F0BD67
:10268000002C01400034014030B5026A22F480522F
:102690000262046A4268C36923F4E04323F440738E
:1026A0000D6843EA052324F400548D6844EA053498
:1026B000084DA84202D0084DA84204D122F480421D
:1026C0004D6942EA85124260C3614968016404624F
:1026D00030BD0000002C01400034014010B5036AF9
:1026E000046A24F001040462846924F0F00444EADA
:1026F000021423F00A020A438461026210BD000042
:1027000070B5046A24F0010404628469056A124EFB
:10271000B0420ED0114EB0420BD0B0F1804F08D075
:102720000F4EB04205D00F4EB04202D00E4EB04216
:1027300003D124F00304144301E044F0010424F025
:10274000F0041A0744EA126225F00A0301F00A01B4
:1027500019438261016270BD002C014000340140C8
:102760000004004000080040000C004010B5036A5F
:1027700023F0100303628469036A24F4704444EA7A
:10278000023223F0A00343EA01118261016210BD0D
:1027900030B5046A24F0100404628569046A25F4E3
:1027A000407545EA022222F470454FF6FF7202EAB4
:1027B00003322A4324F0A003A02404EA01111943A0
:1027C0008261016230BD30B5046A24F48074046211
:1027D000C469056A24F00304144324F0F0041A07C2
:1027E00044EA126225F420634FF4206404EA0121D4
:1027F0001943C261016230BD30B5046A24F48054CB
:102800000462C569046A25F4407545EA022222F48F
:1028100070454FF6FF7202EA03322A4324F4204344
:102820004FF4204404EA01311943C261016230BD12
:102830002DE9F041044620680169E26821F4405125
:1028400011430161A1682069014360690143206867
:10285000C26841F20C639A430A43C260206841692E
:10286000A26921F440711143416133492068642514
:102870003226884230D1FEF7FDFA00EBC00101EBB1
:10288000001061688900B0FBF1F0B0FBF5F7FEF7CE
:10289000F1FA00EBC00101EB001061688900B0FBA8
:1028A000F1F8FEF7E7FA00EBC00101EB00106168F8
:1028B0008900B0FBF1F0B0FBF5F06FF01801484370
:1028C00008EB800006EB0010B0FBF5F0216867F321
:1028D0001F108860BDE8F081FEF7B6FA00EBC0017A
:1028E00001EB001061688900B0FBF1F0B0FBF5F777
:1028F000FEF7AAFA00EBC00101EB00106168890045
:10290000B0FBF1F8FEF7A0FA00EBC00101EB0010FC
:1029100061688900B0FBF1F0B0FBF5F06FF01801D1
:10292000484308EB800006EB0010B0FBF5F021688F
:1029300067F31F108860CDE7003801402DE9F047AC
:1029400004460F4692461D46FEF76AF806464FF0CB
:1029500000084FF00109BAF1000F23D04AE0681CCB
:1029600020D025B1FEF75CF8801BA8421AD9206858
:10297000C16821F08001C1602068C16821F0200198
:10298000C1602068C16821F48071C160206841691C
:1029900021F00101416184F8399084F838800320E6
:1029A000BDE8F0872068006837EA0000D7D126E04C
:1029B000681C1FD025B1FEF733F8801BA84219D937
:1029C0002068C16821F08001C1602068C16821F0E1
:1029D0002001C1602068C16821F48071C160206855
:1029E000416921F00101416184F8399084F838800F
:1029F0000320D5E72068006837EA0000D8D000201F
:102A0000CEE7FEE70FB4054B10B503A9044A0298C0
:102A100000F0DAF810BC5DF814FB0000F932000891
:102A20001800002002E008C8121F08C1002AFAD1CD
:102A300070477047002001E001C1121F002AFBD13E
:102A4000704700002DE9FF5F82B00021DDE904300E
:102A5000020DDDF840B0034318D044F61050A2F246
:102A6000FF3242431514119801281FD0A5EB0B002B
:102A7000401C5FEA000A4FF000064E4FDFF8389125
:102A8000B046504615D5CAF1000413E01198012450
:102A90004AA3012801D16FEA0B010298119AC0E9FB
:102AA0000031C0E9024206B0BDE8F09FCBF1000062
:102AB000DFE704460021404A491842EB0450CDE9C3
:102AC000001012E0E00707D032463B464046494638
:102AD000FDF701FC8046894632463B4610461946C2
:102AE000FDF7F9FB06460F466410002CEAD1DDE93C
:102AF0000401DDE90023BAF1000F06DAFDF7EBFB74
:102B000042464B46FDF7E7FB05E0FDF756FC424623
:102B10004B46FDF752FC04460E460022284BFDF7BB
:102B2000D5FD03D84FF0FF30014607E00022254BCA
:102B300020463146FDF728FBFDF7B0FD102409E0E3
:102B4000002C0ADB0A220023FDF7F9FC039B30323C
:102B50001A55641E50EA0102F2D1641C039AC4F1B2
:102B600011031444119A012A03D0012208430DD104
:102B70000AE0084304D000204FF0110B119072E7D7
:102B8000A3EB0B056D1E0DE05B4504DD4FF000026D
:102B900005F1010504E003DA4FF00002A5F101059B
:102BA000002AECD002981199C0E90231C0E9004531
:102BB00079E70000000014400000F03F3000000002
:102BC0000000F0430000E03F2DE9FF4F95B09B4629
:102BD0008946064600250FE2252877D1002427469E
:102BE000F84A0121059400E0044316F8013F203B18
:102BF00001FA03F01042F7D130782A2811D06FF093
:102C00002F033078A0F13002092A16D8059A44F033
:102C1000020402EB820203EB42021044761C059090
:102C2000EFE759F8042B0592002A03DA504244F4E6
:102C30000054059044F00204761C30782E2816D1FA
:102C400016F8010F44F004042A280DD06FF02F026B
:102C50003078A0F13003092B09D807EB870302EB8A
:102C60004303C718761CF3E759F8047B761C3078C9
:102C70006C280FD006DC4C2817D068280DD06A28A5
:102C800014D104E0742810D07A280FD10DE044F458
:102C900000140AE044F4801401E044F44014727813
:102CA000824202D104F58014761C761C30786628A6
:102CB0000BD013DC582877D009DC002875D04528C4
:102CC000F6D04628F4D047281AD19DE118E06328B1
:102CD00035D0642879D0652812D195E1702873D059
:102CE00008DC6728F1D069286FD06E280DD06F28D6
:102CF00006D1B5E073282CD0752875D0782874D00B
:102D00005A46179990476D1C75E1C4F3025002288A
:102D100009D003280DD0D9F8001004280DD00D607B
:102D200009F1040967E1D9F80010EA17C1E9005276
:102D3000F6E7D9F800100D80F2E70D70F0E719F80A
:102D4000041B8DF8001000208DF80100EA460120D8
:102D500003E059F804AB4FF0FF3061074FF000017A
:102D600002D40DE008F101018846B9420FDA80452E
:102D7000F8DB1AF808100029F4D108E008F1010185
:102D800088468142FADB1AF808100029F6D1059826
:102D90005B46A0EB080721463846179A00F094FAE4
:102DA000284400EB080507E04DE029E10DE01AF8A2
:102DB000010B5A4617999047B8F10108F7D25B46C4
:102DC00021463846179A13E142E00A220092C4F3E2
:102DD00002524FF0000A022A08D059F804CB032A05
:102DE0004FEAEC710AD00DE029E02AE009F1070171
:102DF00021F00702F2E802C1914609E00FFA8CFCCB
:102E00004FEAEC71042A03D14FFA8CFC4FEAEC71C3
:102E1000002907DA0A460021DCF1000C61EB02010F
:102E20002D2202E0220504D52B228DF80420012258
:102E300003E0E20701D02022F7E7904659E00A219B
:102E400002E010220DE010214FF0000A00910BE08B
:102E500010224FF0000A44F004040827009203E017
:102E600008224FF0000A0092C4F30252022A05D051
:102E700059F804CB0021032A08D009E009F1070121
:102E800021F00702F2E802C1914605E01FFA8CFC2E
:102E9000042A01D10CF0FF0C4FF00008220728D5BE
:102EA000702806D0009B83F0100353EA0A0305D074
:102EB0000EE040228DF80420012208E05CEA0102C5
:102EC00006D030228DF804208DF8050002229046AD
:102ED000009B83F0080353EA0A030AD15CEA01026B
:102EE00001D1620705D530228DF804204FF001088A
:102EF0007F1E582804D034A003900EA802900DE045
:102F000036A0F9E753466046009AFDF718FB844661
:102F10000398825C0298401E029002705CEA0100F5
:102F2000F0D1029806A9081A00F1200A600702D51C
:102F300024F4803400E00127574502DDA7EB0A00A6
:102F400000E0002000EB0A01009005984144401A7F
:102F50000590E00306D45B462146179A059800F0D9
:102F6000B3F90544002706E001A85A46C05D179949
:102F700090476D1C7F1C4745F6DBE0030CD55B4694
:102F80002146179A059800F09FF9054404E0302087
:102F90005A46179990476D1C0099481E00900029C9
:102FA000F5DC08E0029802995A460078491C029123
:102FB000179990476D1CBAF10001AAF1010AF1DCE2
:102FC00065E10000092801003031323334353637ED
:102FD0003839616263646566000000003031323365
:102FE0003435363738394142434445460000000005
:102FF00000F058F90544761C307800287FF4ECADD9
:1030000019B02846BDE8F08F620700D4062709F101
:10301000070222F0070CFCE80223E14603F0004817
:103020005FEA080C02D00FF2702C0DE05FEA045C3E
:1030300002D50FF2682C07E05FEAC47C02D00FF2E1
:10304000602C01E0AFF2700C4FF0FF3823F000432A
:10305000CDF850C065280CD006DC452809D046289C
:103060001DD047283DD13DE0662818D067287ED185
:1030700038E00021112F01DB112000E0781CCDE9A0
:10308000000106A90EA8FFF7DDFCDDE90F010E9A8D
:1030900003910021009207F1010A04914DE04FF0E5
:1030A00000400097CDE9011006A90EA8FFF7CAFC61
:1030B000DDE90F0203920E9B11990022DDF80CA0AE
:1030C0000093049211B9791C00EB010AB7EB0A00D6
:1030D00004D4C0F1FF3007F1010A0490AAEB070005
:1030E000019044E0012F00DA01270021112F01DDBA
:1030F000112000E03846CDE9000106A90EA8FFF72F
:10310000A1FCDDE90F010E9A0391002104910092C8
:10311000BA4621070CD40399514500DA8A46BAF120
:10312000010F05DD009AAAF10101515C302908D098
:10313000B84202DA10F1040F06DA0121CDE90110DC
:1031400015E0AAF10101E9E7002805DC0499014432
:103150000491AAEB000102E0411C514500DD8A46C2
:103160000499401A401C01904FF000400290200743
:1031700004D40198504501DBCDF8048000208DF87F
:103180004F0002980DF14F07B0F1004F25D02B20D2
:103190000E9002984FF0020800280CDA404202908C
:1031A0002D200E9007E00A210298FDF7B2F9303188
:1031B000029007F8011DB8F10001A8F10108F2DC46
:1031C00002980028EFD1791E0E980870307800F030
:1031D000200040F0450007F8020D12A8C01B00F1C6
:1031E00007081498007800B1012000EB0A0101984B
:1031F00001EBE07105984144401A401E0590E00340
:1032000006D45B462146179A059800F05DF8054400
:103210001498007818B15A46179990476D1CE0032E
:1032200024D55B462146179A059800F04DF80544D1
:103230001CE00498002807DBDDE90301884203DD78
:103240000098405C179901E0179930205A46904742
:10325000049805F10105401C04900198401E01905E
:1032600004D12E205A46179990476D1CBAF10001DF
:10327000AAF1010ADDDC05E017F8010B5A4617999F
:1032800090476D1CB8F10001A8F10108F4DC5B4621
:103290002146179A0598ABE62D0000002B00000090
:1032A000200000002DE9F041044600251E46174687
:1032B000880404D405E039462020B0476D1C641E04
:1032C000F9D52846BDE8F0812DE9F04104460025F6
:1032D0001E469046C80301D5302700E02027880409
:1032E00004D505E041463846B0476D1C641EF9D54B
:1032F0002846BDE8F081000013B54FF6FF730122A8
:1033000069460248FEF74EFE00981CBDC000002032
:10331000FDF794FBFFF74DF8FEF73CFFFFF70EF8C3
:10332000FEF7E0FEFDF724FA1348FEF72BFBFEF74D
:10333000BFFF1248FEF726FB08210F48FEF71CFCD2
:10334000002202210120FEF751FF0D4C01202070C8
:103350000CA0FFF757FBFEF7E5FE012803D1A0689C
:103360000168491D0160FEF7F9FE0128F3D1A0684C
:103370000168491F0160EEE784000020480000203A
:1033800008000020D4F6C1BFCABD504944CBE3B702
:10339000A8BFD8D6C6B5E7BBFAD0FDD7AA0A0000A9
:1033A00000000000010203040102030406070809EB
:1033B000D0330008000000201C000000242A000870
:1033C000EC3300081C000020E4100000342A000840
:1033D00000A24A04000000000000000000000000FD
:0C33E000200000200000000000000000A1
:0400000508000131BD
:00000001FF
