:020000040800F2
:1000000018120020ED480008D9470008DB47000817
:10001000DD470008DF470008E14700080000000056
:100020000000000000000000000000000949000876
:10003000E3470008000000000D490008E5470008FC
:100040001149000815490008194900081D49000810
:100050002149000825490008294900082D490008C0
:100060003149000835490008394900083D49000870
:100070004149000845490008494900084D49000820
:100080005149000855490008594900085D490008D0
:100090006149000865490008694900086D49000880
:1000A0007149000875490008794900087D49000830
:1000B00081490008F147000885490008894900087E
:1000C0008D490008914900089549000899490008A0
:1000D0009D490008A1490008A5490008A949000850
:1000E000AD490008B1490008B5490008B949000800
:1000F000BD490008C1490008C5490008C9490008B0
:10010000CD490008D1490008D5490008D94900085F
:10011000DD490008E1490008E5490008E94900080F
:10012000ED490008F1490008F5490008F9490008BF
:100130002DE9F14FB2B09946924600230691CDE9E0
:1001400000333C9A0F930DF14A0114914A7011E06B
:10015000329E57462C4617F8011B0698B0470028D8
:10016000069000F026810F98401C641E0F90F2D17B
:100170003296AA449AF80000252808D100210022CE
:1001800009910A920B910C920D910E920FE06A4622
:100190004FF0FF31504601F07FF8050002D10F9873
:1001A00000F066BED4D50125E3E741F001011AF85D
:1001B000010F2028F9D023280CD02B2804D02D287B
:1001C00005D0302809D00BE041F00201EFE741F003
:1001D0000401ECE741F00801E9E741F01001E6E72E
:1001E0002A280FD1D9F8002052F8040BC9F80020B2
:1001F0000028119003D54042119041F004010AF10A
:10020000010A14E01192DFF8EC3B0AE011989842E1
:1002100005DA00EB800402EB4402303A11920AF155
:10022000010A9AF80020A2F130000A28EED39AF8C9
:1002300000002E2803D04FF0FF32109229E01AF868
:10024000010F2A2809D1D9F8000050F8042BC9F869
:10025000000010920AF1010A1BE02D280CBF0AF1E0
:10026000010A002000221092DFF8882B0BE040B931
:10027000109B934205DA03EB830504EB4504303C05
:1002800010940AF1010A9AF80040A4F130030A2BF5
:10029000EDD3ADF848100FF660309AF8001001F079
:1002A00005F808B11AF8010B8DF84A009DF84A00CC
:1002B000682805D19AF8000068280CD1622106E070
:1002C0006C2804BF9AF800006C2804D171218DF8C5
:1002D0004A100AF1010A1FA808901AF801BBBBF1E5
:1002E00025012DD01C3900F06181091F022940F23F
:1002F0005D810E392AD0491F00F0B384093900F01E
:100300005581891E00F04985491E00F0F584491E7B
:10031000022940F24B81091F00F0EE84491F00F0D2
:10032000BA80491E00F09D84491E65D0C91E21D0A7
:10033000891E00F09684C91E00F0938400F04CBD25
:1003400025238DF87C30012109912AE06C208DF85D
:100350004A00D9F8000050F8042BC9F80000002A20
:1003600043D11499487800283DD04FF0FF340FF660
:10037000902012E09DF84A006C28EAD0D9F80000DD
:1003800050F8044BC9F800000794D4B91499487880
:1003900098B14FF0FF340FF6842000F0A1FF201A2F
:1003A00007D132981FAA04A900F065FD00287FF547
:1003B000E1AE4FF0FF3000F05BBD0FF67C20079000
:1003C000EFE7109D002D04D5204600F0A9FF04465C
:1003D00007E02A46204600F0BFFF002814BF041B98
:1003E0002C460A94DDE70FF65422329804A900F057
:1003F000C8FD0028D5D5DCE7D9F8001051F8040B6A
:10040000C9F8001020F00004002121F0FF351FABD7
:10041000CDE904450793DDE9042308993C2413B989
:100420000AB9109898B102F00F053035641EEEB28B
:100430003A2EA8BF2735120942EA03721B090D554F
:1004400008BF002A03D007980D19A842EBD308195A
:100450000790C4F13C0210980A92824209DABDF872
:100460004810821A4FF6EF7001400C92ADF8481018
:1004700097E7002895D59DF8480000F01400102853
:100480008FD1119B09990C985B1A1B1A9A1A002A92
:1004900087DD0C9285E71499487820B14FF0FF343E
:1004A0000FF69C1079E79DF84A00622862D0682810
:1004B00019D06A2840D06C2806D071284DD07428F5
:1004C0002DD07A281ED064E0D9F8001051F8040B22
:1004D000C9F8001020B94FF0FF340FF67C105CE72C
:1004E0000F9901605DE7D9F8001051F8040BC9F8C5
:1004F000001020B94FF0FF340FF65C104DE70F9954
:1005000001804EE7D9F8001051F8040BC9F800102B
:100510000028E5D14FF0FF340FF63C103DE7D9F845
:10052000001051F8040BC9F800100028D8D14FF082
:10053000FF340FF6241030E7D9F8001051F8040BFF
:10054000C9F8001020B94FF0FF340FF60C1024E763
:100550000F9AD317C0E9002323E7D9F8001051F808
:10056000040BC9F800100028F2D14FF0FF340FF649
:10057000E80012E7D9F8001051F8040BC9F8001090
:1005800020B94FF0FF340FF6D00006E70F99017045
:1005900007E7D9F8001051F8040BC9F8001000283B
:1005A0009ED14FF0FF340FF6B000F6E6D9F80020E8
:1005B000D21D22F00702C9F80020D2E9000108325A
:1005C000C9F80020CDE90401C80F02D009982D21F7
:1005D0000AE0BDF84800810702D509982B2103E005
:1005E000C00705D5099820211FAA1154401C099065
:1005F000DDE9042309991FA8CDE92E2308444BF017
:1006000020016129079015AC0BD01099002902D563
:100610000621109105E001BF4BF02001672901225E
:100620001092DDE9042359004915491C10D11A0321
:100630000ED0ABF1610503211A2D0A9102D20FF6FB
:10064000A43101E00FF6A031032200F0B1FEA8E6CC
:1006500059004915491C0AD11A0308D1ABF16105AB
:1006600003211A2D0A9116D30FF68431ECE7DDE948
:100670000401CDE93001DDE9302323F00047B7F56F
:10068000801F22F000060DD20022002F08BF002E8E
:10069000029203D116E00FF65431D5E702AA00F01A
:1006A000DBFE0FE0DFF8EC0ADFF8EC1A00EB175086
:1006B0000290DDE930234FF0FF301940DFF8DC7A9B
:1006C00010403943CDE904014BF0200061280DD1E1
:1006D000079830210170821CBBF1610F07920CBF9B
:1006E0007821582141700998801C0990DDE90401A6
:1006F00020F0000231F0004308BF002A02D100269A
:10070000002571E14BF02008B8F1610F40F0BE8088
:100710001098002847BF21210391401C0390039F9C
:10072000DDE92E017F1C00220023DDE9044500F0F5
:10073000CBFE02998DF8542038BF85F00045091F83
:10074000002F02910DF155065DDDDFF8541ACDE959
:10075000302140F2FF732E932046294600220023C9
:1007600000F0CAFE4FD24800400D00F11C0215D027
:10077000002A13DD2E9B9A420ADBDDE9300121F0CD
:10078000004205F000400243DDE93001114611E06E
:100790006FF31E5141EA025120460BE024F00000A5
:1007A00035F0004108BF00280FBF29461C2229460A
:1007B00000F0BAFE04460D4600F054FFFF1F002F64
:1007C000804609DD00F06CFF02460B4620462946B4
:1007D00000F078FF04460D46F01D0721B8F1000F28
:1007E0000CDD491E5EBF08F00F0200F8012D4FEA34
:1007F0002818F3D502E0002200F8012D491EFAD591
:10080000C61D002FA8DC0DF15500361A039886424C
:10081000D8BF304600280DF1550430D4B04206DA76
:100820000DF155010A5C082AA8BF0F2100DA00214A
:10083000024615AB134400E0401E13F80159521E46
:100840008D42F9D00F2904D10DF155018B5C5B1C51
:100850008B54002A04D50299091D15AC401C029145
:10086000411E0CD46218ABF13A0613783033DDB276
:100870003A2DA8BFF318491E02F80139F5D5109991
:10088000002940F1AF80421E1092ABE00299DFF8E0
:10089000142947F29750414391FBF2F2DDE92E45CE
:1008A000029225F00045D2F1070204DD20462946D8
:1008B00000F04CFC0BE052420020DFF8EC1800F096
:1008C00045FC02460B462046294600F06DFF0446D3
:1008D000B8F1660F109806BF029F0A3706273F1827
:1008E000142FC8BF142730208DF854000D46002067
:1008F000DFF8B818CDE92E010DF15506002F33DDD4
:100900002046294601F074F801460A4606F108031C
:1009100004200A26B2FBF6F606EB860EA2EB4E0288
:10092000303203F8012C0A22B6FBF2F202EB820EFF
:10093000A6EB4E063036401E03F8026DE9D1083FA3
:10094000002F03F10806D9DD084601F065F80246DC
:100950000B462046294600F0B5FEDDE92E2301F0C6
:1009600069F804460D46CBE70DF15500361A0DF136
:10097000550404E00298401E761E0290641C207804
:100980003028F7D0B8F1660F02D10299491C04E073
:10099000B8F1650F0CBF012100211098081886429C
:1009A000B8BF701E00281DD4B04204DA215C34297F
:1009B000C8BF392100DC30210246631E9D1800E0CB
:1009C000401E15F80169521E8E42F9D0392902D114
:1009D000A15C491CA154002A04D50299491C1C465B
:1009E000401C02910646029D00F05AFC406A0778BE
:1009F000DDF8408030B2002802DC01260FF2F474EA
:100A00004BF02000662808BF6D1C16D0672846D121
:100A100028B210F1040F48DB404546DA9DF8480043
:100A20006D1C010703D430B24045B8BF804628B2E0
:100A3000B8EB000848BF4FF000080FFA85FB079895
:100A40000A99BBF1000F00F3B2804A1C0A923023CE
:100A50004354B8F1000F03DC9DF84800010704D5AA
:100A60000A98411C0A9107990F5418EB0B0FB8BF55
:100A7000C8F100052DB268420D90A84432B29045ED
:100A8000B8BF4646079B0A9836B20B9632462146B7
:100A9000184400F08DFCA8EB06000E90CBE0BBF1F3
:100AA000610F17D14FF0700B19E030B2404504DAF6
:100AB0009DF848100A0758BF8046B8F1010848BFA2
:100AC0004FF00008BBF1670F14BF4FF0450B4FF01C
:100AD000650B04E0BBF1410F08BF4FF0500B0A98C3
:100AE000411C0A91B8F1000F079914F8012B0A5420
:100AF00003DC9DF8480001071AD50A98411C0A91A9
:100B0000B8F1000F07990F5412DD761E30B2804500
:100B100007980A9BB8BF464632B22146184400F0F7
:100B200047FC0A9936B271180A91A8EB06000D909D
:100B300007980A9908442AB2002A80F800B003D422
:100B40002B224270811C04E02D2141701546811C2E
:100B50006D4200202EAA0A2409E02B4693FBF4F5EF
:100B600005EB8506A3EB460302F8013B401C2DB2C2
:100B7000002DF2DC012806DC4BF02002652A04BFC0
:100B8000302201F8012B00282EAA08D1302001F8CC
:100B9000010B06E0401E135C303301F8013B0028D6
:100BA000F8DC079A0A981044091A0B9143E00844AC
:100BB00031B22AB2914219DA32B2214600F0F8FB82
:100BC0000A9936B27118ABEB0606B8F1000F0A911C
:100BD0000D9603DC9DF84800020704D5079847549A
:100BE0000B99491C0B91CDF8388024E0214600F088
:100BF000DFFB0A98761B5844B8F1000F0A9003DC1B
:100C00009DF848100A0703D5411C0A9107990F5413
:100C100030B2804507980A9BB8BF464632B204EB13
:100C20000B01184400F0C4FB0A9836B230180A9041
:100C3000A8EB06000D909DF8480000F01400102865
:100C40007FF4AFAB099A0A990D988A180B9982180C
:100C50000E988A18821811988242BFF6A2AB821AA7
:100C600017E49DF84A00622808D068280ED06A2848
:100C700014D06C281FD0712810D01CE0D9F80010B7
:100C800051F8040BC9F80010C0B21AE0D9F80010EE
:100C900051F8040BC9F8001080B212E0D9F8002016
:100CA000D21D22F00702C9F80020D2E90001083263
:100CB000C9F8002006E0D9F8001051F8040BC9F873
:100CC00000100021CDE904019DF8480001075AD524
:100CD000DDE90423002B08BF002A54D04BF020008C
:100CE000782850D109981FA930220A54401C431C6F
:100CF000099301F800B046E09DF84A00622808D048
:100D000068280ED06A2814D06C281FD0712810D003
:100D10001CE0D9F8001051F8040BC9F8001040B2DB
:100D20001AE0D9F8001051F8040BC9F8001000B20D
:100D300012E0D9F80020D21D22F00702C9F80020E5
:100D4000D2E900010832C9F8002006E0D9F8001005
:100D500051F8040BC9F80010C117CDE904010029AE
:100D600002D509982D210AE0BDF84800810702D577
:100D700009982B2103E0C00705D5099820211FAA57
:100D80001154401C09901FA809990144079104A817
:100D9000594600F056F9FFF704BB9DF84A006C284D
:100DA0000BD001210991D9F8000050F8041BC9F8B3
:100DB00000008DF87C10FFF7F4BAD9F8000050F865
:100DC000041BC9F8000015914FF0FF32109200216A
:100DD000169115AAFFF709BB25210122BBF1000FCF
:100DE0008DF87C1009923FF4DCAA8DF87DB00221C9
:100DF000FFF7AABACBCCCC0C686A6C747A4C0000B2
:100E00007072696E74665F733A2062616420256C4B
:100E10007320617267756D656E7400007072696E23
:100E200074665F733A206261642025732061726783
:100E3000756D656E74000000000000000000000089
:100E40007072696E74665F733A20256E20646973F0
:100E5000616C6C6F776564007072696E74663A20BD
:100E600062616420256E20617267756D656E740025
:100E700033B0BDE8F08F2DE9FC410F4606469046A1
:100E80007A6B7869396ABC6A121AB869521A796A37
:100E9000121AF869521A121A97F83800141B4107EF
:100EA0000FD42020002C8DF800000ADD25460123F8
:100EB0006A463946304600F07DF900285DD16D1E46
:100EC000F5D17B6942463946304600F073F9002877
:100ED00053D130208DF800003D6A002D09DD01233B
:100EE0006A463946304600F065F9002845D16D1E46
:100EF000F5D1BB69FA683946304600F05BF9002845
:100F00003BD130208DF800007D6A002D08DD0123E3
:100F10006A463946304600F04DF970BB6D1EF6D179
:100F2000F868B969FB6942183946304600F042F961
:100F300018BB30208DF80000BD6A002D08DD0123AC
:100F40006A463946304600F035F9B0B96D1EF6D123
:100F500097F8380041070DD52020002C8DF80000AF
:100F600008DD01236A463946304600F023F920B9EE
:100F7000641EF6D10020BDE8F6814FF0FF30BDE8D9
:100F8000F6812DE9F8470D46A3B02F6B002F82465E
:100F9000904648BF6FF0004700F01DFE696B401897
:100FA00001AA0021C2E90011812828BF4FF0FF30BB
:100FB00044D289461EE0A74230DB686920188128A8
:100FC0000BD30021696303AA29465046FFF753FF5C
:100FD0005FEA000922D40020686103AB6E692246F3
:100FE0006946981900F0E4F9A6196E6158F8040BE7
:100FF000A0B13F1B002F11DDD8F8001001AA6846F0
:1010000000F04CF90446002C05D4D8F80000002864
:10101000D1D1641ECFD54FF0FF390EE0B9F1000FEA
:10102000504604D103AA2946FFF725FF8146B9F1AE
:10103000000F02D1002068616863484624B0BDE813
:10104000F0872DE9FC4307466F293E6908BF082455
:1010500005D041F02000782814BF0A2410243C2534
:10106000D7E90023642918BF69299046994605D11C
:10107000002B03D5D8F1000869EB4909B9F1000F3D
:1010800008BFB8F1000F0CD1386B50B9082C39D11A
:1010900097F83800010735D530203B2586F83B000E
:1010A00030E08DF80010404649462246E31700F034
:1010B00097FD3032D0B26D1E3A28019504DB9DF8C1
:1010C0000000A0F151018A18725540464946224657
:1010D000E31700F085FD80465FEA010908BFB8F11B
:1010E000000F03D0F86871198842DCD3082C09D1AD
:1010F00097F83800010705D5705D302802D06D1EC5
:1011000030207055C5F13C02BA617119F960386B35
:10111000824208DA821A3A624FF6EF70398F014044
:101120003987BDE8F38300280ED597F8380000F022
:101130001400102808D17B6B7969386A5B1A1B1A76
:101140009A1A002AC8BF3A62BDE8F3832DE9D0435A
:1011500006460F4614464FF00008DFF8549012E0A0
:10116000E00707D542464B463046394600F062FC60
:1011700006460F464046494642464B4600F05AFC5A
:10118000641080468946002CEAD130463946BDE8D5
:10119000D083000002FCFFFFFFFF0F800000E03F54
:1011A0000000F07FA08601000000F03F84D7974147
:1011B00000002440F8B505460E4617461C460020A0
:1011C0005CB117F8011BB068A847B06030B1F06A95
:1011D000401CF0620020641EF3D1F2BD4FF0FF30DE
:1011E000F2BD00006E616E004E414E00696E6600F9
:1011F000494E4600300030B4002513E050F8042B6F
:10120000D30744BFA9F101039A18091F042942F822
:10121000045BFAD213468C0744BF15809B1CC90798
:1012200048BF1D7050F8041B0029E7D130BC70473F
:101230001C48704770B45368D41801E05B1C491E09
:10124000042B08DA00291FBF057804F8015B10F8A9
:10125000016B002EF2D1536070BC704738B5144654
:101260001D4661B1FFF7E6FF61686A6B2046904753
:101270006FF00102811A02D0491E01D001E003E0A3
:1012800005E00021616032BD6FF0010032BD4FF01A
:10129000FF3032BDDA6B1047024BDFE7014BF9E755
:1012A000014870474000002008000020C9B20278C1
:1012B0008A421AB11CBF10F8012FF9E718BF0020AD
:1012C0007047B1F5807F02D34FF0FF307047017057
:1012D000012070470078401E8041C043C00F704716
:1012E00080B500B906A005490B681BB12222002178
:1012F000984701E000F08CFD222002BD080200208A
:10130000636F6E73747261696E742068616E646C71
:1013100065723A20626164206D6573736167650070
:1013200000F10103810704D010F8011B820781B18D
:10133000FAD10268A2F10131914311F0803104BF6A
:1013400050F8042FF6E709BAB1FA81F100EBD100A9
:10135000401CC01A70470102C9B2830706D0521E52
:1013600022D310F8013B9942F7D11FE0083A13D37A
:1013700002F1040241EA012141EA014150F8043B33
:10138000121F21BF4B40A3F1013C2CEA030C1CF0BF
:10139000803FF3D0C9B2001F083210F8013B521E43
:1013A00028BF91EA030FF8D818BF0120401E7047EC
:1013B00062B38B0708D0521E11F8013B00F8013BC5
:1013C00000F024808B07F6D1830740F0208000BF17
:1013D000103A07D330B4B1E83810103AA0E838100A
:1013E000F9D230BC530724BFB1E80810A0E80810B8
:1013F00044BF51F8043B40F8043BD20724BF31F806
:10140000022B20F8022B44BF0B7803707047121F89
:1014100017D35B0009D151F8043B20F8023B1B0CA9
:10142000121F20F8023BF6D20BE051F8043B00F803
:10143000013B1B0A20F8023B1B0C121F00F8013B6A
:10144000F3D238BF121D521E24BF11F8013B00F821
:10145000013BF8D870472E0010B5144600F002F892
:10146000226010BDC1F30A5343B14A0012F5001FB8
:1014700028D2A3F2FE32A1EB0251704750EA410C90
:1014800020D001F0004C31EA0C01B1FA81F204BF26
:10149000B0FA80F3D2180B3AB2F120032CBF00FA55
:1014A00003F1914041EA0C013EBFC2F1200C20FA49
:1014B0000CF319439040524240F2FD33D21A01EB33
:1014C00003517047002270474FF4001C1CEB410F82
:1014D00094BF1CEB430F09E041EA030C50EA4C0CAB
:1014E00052EA0C0C03D2994208BF9042704714BFD5
:1014F0008B428242704743004FF4001C1CEB410FAB
:1015000094BF1CEB430F09E041EA030C50EA4C0C7A
:1015100052EA0C0C03D28B4208BF8242704714BFC0
:101520009942904270470000124254D440F2FF7C2E
:101530001CEA11530FD0634531D09B1863453CBF63
:1015400001EB0251704701F0004141EA0C510020CB
:10155000AFF30080704750EA410320D001F0004C07
:1015600091EA0C011CD0B1FA81F30B3B9A420DD9E0
:10157000D21A994051EA0C01C3F1200C20FA0CFC5C
:1015800061449840531C40F2FF7CD7E7914041EA08
:101590000C01C2F1200C20FA0CF319439040704763
:1015A000B0FA80F31533202BE0D3202AEED3203A73
:1015B000203B9A4209D9D21A00FA03F141EA0C0100
:1015C0000020531C40F2FF7CB8E700FA02F141EA28
:1015D0000C0100207047524240F2FF7C1CEA11537C
:1015E0000DD06345DBD0B2EB030C3CBFA1EB025145
:1015F00070470CF1010221EA035141F4801150EAD5
:10160000410CCCD001F0004C352A27DC30B481EA03
:101610000C01B2F1200309DAC2F12003044601FAF9
:1016200003F5D0402843D1409C400CE0C3F1200298
:10163000450020FA03F418BF44F0010421FA03F036
:1016400091400C43002174F1004550F1000051EB32
:101650000C01244230BC7FF47BAF70476146002010
:1016600076E70000C1F30A5340F2FE329B1A14DD04
:10167000D3F120034FEAE17208DDC90241EA50517B
:1016800041F00040D84080185040704703F2E130EC
:1016900010B1D24382F00040704700207047000034
:1016A000C11768B14840401AB0FA80F29040D21C8D
:1016B000C907C2F5846241EA025202EBD02140051B
:1016C0007047000070B44FF0004591EA030F40F1FD
:1016D000AB836B40841A71EB030603D2001BB1414C
:1016E000121973414FF4001C1CEB410F34BF7CEB0B
:1016F000430442E00C0DA4EB1356352E4FDC45EAB3
:10170000C323DB0A45EAC121C912B6F120050DDD6C
:1017100063FA05F6EB4086EA0305124218BF45F06E
:101720000105C01851F100010CD213E062FA06F570
:10173000F2405540F3415A40B340F3405A408018BC
:10174000594107D349085FEA30005FEA350528BFF1
:1017500045F0010501F58011420875F1004250F194
:10176000000041EB04514E0016F5001F70BC38BF5D
:1017700070470020090D090570471CEB410F10D27E
:1017800052EA43060BD0BCEB410F05D80C0DAB431E
:10179000661E342EB6DD02E0AB438018594170BCA2
:1017A000704770BC70470000F0B540F2FF7581EAE9
:1017B000030C0CF0004C15EA11541DBF15EA135729
:1017C000AC42AF42E5E0BC41C1F31301C3F31303E4
:1017D000801A994143F4801304D2641E40004941A9
:1017E00080185941C90241EA5051B1FBF3F603FB9D
:1017F0001611A2FB0675D7EBC020A94102D2761EB6
:1018000080185941C90241EA5051B1FBF3FE03FB74
:101810001E11A2FB0E75D7EBC020A94103D2AEF179
:10182000010E80185941890241EA9051760546EA35
:101830008E2EB1FBF3F603FB1611A2FB0675D7EB58
:101840008020A94102D2761E80185941C90241EA7E
:1018500050514EEA060EB1FBF3F603FB1611A2FB44
:101860000675D7EBC020A94102D2761E80185941D7
:10187000C90241EA5051B1FBF3F703FB1711A2FB78
:101880000735D3EBC020A94167F100070CBF004228
:1018900047F0010766F3D5274FEA1E31B80814F563
:1018A000806412DDBD0775F1004250EB0E5051EB24
:1018B000045111F5801F5CBF41EA0C01F0BD4CF0F2
:1018C0007F6141F0E0410020F0BDBD076D0840EAB6
:1018D0000E5041F48011D4F10104B4F120060ADA6B
:1018E000C4F120060200E04001FA06F3E14018438B
:1018F000B24015430EE0342C13DCC6F1200445EA57
:1019000040056D0820FA06F2154321FA06F0A140C1
:101910000D43002175F1004250F1000051EB0C0124
:10192000F0BD00205FEA0C01F0BDCFB992185B4119
:10193000B3FA83F704BFB2FA82F6BF190B3FB7F1CF
:1019400020062FBF02FA06F3BB40C7F1200622FA99
:1019500006F638BF3343BA401CB1E419641E33E7BE
:101960007F4231F00041B1FA81F404BFB0FA80F651
:10197000A4190B3CB4F120062FBF00FA06F1A140D8
:10198000C4F1200620FA06F638BF3143A0403C1BC4
:101990001AE7AC421ABF05EA1357AF4212E050EA09
:1019A00041061CBF52EA4306BFE750EA41073046F2
:1019B00061461CBF41EA0551F0BD52EA430C08BF25
:1019C000C143F0BD00204FF4001616EB410F98BF45
:1019D00016EB430F08BF16EB410F24BFC14305E0D0
:1019E00016EB430F0CBF61464CEA0551F0BD0000F9
:1019F000400D491840EA81200CD2490DA1F58061C3
:101A0000491C40F0004005DBD1F11F0154BFC84024
:101A1000C017704700207047014648B1B0FA80F106
:101A20008840C91CC1F58461090501EBD02140053E
:101A300070470000B0B581EA030C0CF0004C40F296
:101A4000FF7515EA11541DBF15EA1357AC42AF429A
:101A500039E0E41923EA455343F48013C90241F005
:101A6000004141EA505EC7021100A7FB02020028B4
:101A70004FF00000EEFB01204FF00001E3FB0721D7
:101A800018BF42F00102401800214941E3FB0E015A
:101A9000A4F580640F0302D252004041494154F141
:101AA00001046CDD470872F1004250F1000051EB77
:101AB0000451A1F580115CBF41EA0C01B0BD4CEAB4
:101AC00005510020B0BD05EA1357AC4214BFAF4228
:101AD00041E050EA410E1CBF52EA430E02E061466B
:101AE0000020B0BD24423C441BD15FEA070EF6D073
:101AF000090302BF01460020AEF1140EB1FA81F7CE
:101B0000AEEB070401FA07FE0C37C7F1200100FA1B
:101B100007F7C8404EEA000E23EA455343F480130A
:101B2000A2E733F00043B3FA83F704BFB2FA82FEB0
:101B300077440B3FE41BB7F1200E2FBF02FA0EF3E0
:101B4000BB40C7F1200E22FA0EFE38BF43EA0E0357
:101B5000BA40641C82E750EA410E14BF52EA430EB9
:101B60006FF000014FF4001717EB430F8ABF1946BF
:101B700017EB410FB5E74CEA05510020B0BDD4F199
:101B80000104B4F120070FDAC4F12007520828BF7E
:101B900042F0010210FA07F501FA07F7E1BF2A4304
:101BA000E0403843E1400FE0352C98DCC7F12004D9
:101BB00052EA400220FA07F218BF42F0010231FA5D
:101BC00007F0A1400A43002172F1004250F10000E9
:101BD00051EB0C01B0BD80B5FFF72AFB006C02BDD4
:101BE000BBBBE1B1B2F5803F80F07E80022A1ED9F6
:101BF0008C46B1FBF2F102FB11C31B0443EA104314
:101C0000B3FBF2FC02FB1C3380B240EA0343B3FB9C
:101C1000F2F002FB103240EA0C4000237047022A27
:101C200005D98446B0FBF2F002FB10C270474AB1FE
:101C300005D100F0010249085FEA30007047002238
:101C40000023704700F0A6B90B000200002100201D
:101C50007047904271EB030CF6D3B3F5803F2FD25F
:101C6000F0B5B3FA83F7B1FA81F4A7F10F0E3D1B7B
:101C70005340CEF1200602FA0EF2F3415340B5F183
:101C80000F0746D80F3C2C444140C4F12006A04029
:101C9000F1414140B1FBF3F603FB1611A2FB0645EF
:101CA000001BA94102D2761E8018594180EA010228
:101CB00021FA0EF362FA0EF200215A403046F0BDCE
:101CC00030B4B1FBF3FC03FB1C11A2FB0C45001B61
:101CD000A94103D2ACF1010C8018594130BC024635
:101CE0000B46604600217047B2F1807F65D3F0B5A6
:101CF000B2FA82F7B1FA81F4C7F10F063D1B22FA5E
:101D000006F307F1110EF24120355A40B5F10F07E5
:101D1000B8D94140C4F12006A040F1414140B1FB97
:101D2000F3FC03FB1C11A2FB0C45001BA94103D2D1
:101D3000BCF1010C801859410F2F12D30F3FC9037A
:101D400041EA5041B1FBF3F603FB1611A2FB064535
:101D5000D4EBC030A94102D2761E8018594146EA20
:101D6000CC3C07B34140C7F12006B840F1414140A7
:101D7000B1FBF3F603FB1611A2FB0645001BA941BC
:101D800002D2761E8018594180EA010221FA0EF330
:101D9000C7F1200462FA0EF20CFA07F05A402CFA4E
:101DA00004F13043F0BD80EA010221FA0EF3002174
:101DB00062FA0EF260465A40F0BD8C46B1FBF2F179
:101DC00002FB11C31B0243EA1063B3FBF2FC02FBEC
:101DD0001C331B024CEA002043EA1063B3FBF2FC05
:101DE00002FB1C331B024CEA002043EA1063B3FBE6
:101DF000F2FC02FB1C331B024CEA002043EA106396
:101E0000B3FBF2FC02FB1C324CEA002000237047BB
:101E1000012000F0C1B8000070B44FF0004591EA15
:101E2000030F7FF557AC6B40841A71EB030604D2A5
:101E30006E40001BB141121973414FF4001C1CEBA2
:101E4000410F34BF7CEB430683E00C0DA4EB13562B
:101E5000362E00F37C80012E45EAC32341DC43EAA1
:101E6000525312BFD20292025B08240545EAC121F7
:101E700041EA5051D2EBC020994125D407D1B0FAA4
:101E800080F610FA06F162D00020203608E0B1FAA0
:101E900081F6B140C6F1200220FA02F21143B040AF
:101EA0004FEAF474B4EB465434F001064FEA74047C
:101EB0000AD8D6F50016760D04F00044F04061FA19
:101EC00006F25040F1404840C00A40EA415021F03B
:101ED000004128BF5FEA500550F1000044EBD121DA
:101EE00035E0DB0A45EAC121C90AB6F120050EDD5D
:101EF00042EA0242120CC5F1200603FA06F6EB4054
:101F000042EA06056D42984161F100010DE062FA76
:101F100006F5F240554063FA06FC82EA0C02F340F3
:101F20005A406D42904161EB030111F4801F05D1CD
:101F3000641E620502D06D004041494121F48011C8
:101F4000430875F1004350F1000041EB045170BCAF
:101F500070471CEB410F15D223F0004352EA4306B1
:101F60000BD04FEA4C0CBCEB410F04D80C0D661E95
:101F7000342EB7DDEBE7801A994150EA410608BFDD
:101F80000021E4E708BF1CEB430F28BF6FF00001FE
:101F9000DDE700007047000080B5AFF30080024A23
:101FA00011001820ABBEFBE7260002002DE9F84324
:101FB000040000252078C00740F1D980DFF8FC0A32
:101FC000016811F00C01042907D0016811F00C011F
:101FD000082926D10068C00323D54FF480400100B2
:101FE000B1FA81F2D2B2520952F00102D2B2012A00
:101FF00003D1DFF8CC1A096805E00200B2FA82F1D9
:10200000DFF8C01A0968B0FA80F212F01F02D1405E
:10201000C90740F1AC806068002840F0A88001202A
:1020200036E3DFF89C7A386830F4803038603868FE
:1020300030F48020386000F061FD80464FF4804627
:102040003000B0FA80F1C9B2490951F00101C9B2BA
:10205000012901D1386805E03100B1FA81F0DFF8DB
:10206000640A00683100B1FA81F212F01F02D04018
:10207000C00707D500F042FDB0EB08006528DDD3AE
:10208000032005E36068B0F5803F04D1386850F460
:102090008030386020E06068002808D1386830F46B
:1020A00080303860386830F48020386014E0606830
:1020B000B0F5A02F08D1386850F480203860386817
:1020C00050F48030386007E0386830F48030386091
:1020D000386830F4802038606068002823D000F031
:1020E0000DFD05003000B0FA80F1C9B2490951F088
:1020F0000101C9B2012901D1386805E03100B1FA06
:1021000081F0DFF8C00900683100B1FA81F212F005
:102110001F02D040C0072AD400F0F0FC401B652805
:10212000E0D30320B4E200F0E9FC05003000B0FA8F
:1021300080F1C9B2490951F00101C9B2012901D1A7
:10214000386805E03100B1FA81F0DFF878090068FD
:102150003100B1FA81F212F01F02D040C00706D55B
:1021600000F0CCFC401B6528E0D3032090E22078EF
:10217000800740F1B580DFF84409016811F00C0FC9
:1021800007D0016811F00C01082933D10068C003A1
:1021900030D45FF080400100B1FA81F2D2B252092E
:1021A00052F00102D2B2012A03D1DFF814190968F2
:1021B00005E00200B2FA82F1DFF808190968B0FA06
:1021C00080F212F01F02D140C90704D5206901280E
:1021D00001D001205CE2DFF8E80801685FF0F85206
:1021E000B2FA82F331F0F801666916FA03F3194383
:1021F000016075E02069002840D05FF00046B6FA23
:1022000086F00121C0B2DFF8C02812EB8002116015
:1022100000F074FC05005FF080400100B1FA81F22B
:10222000D2B2520952F00102D2B2012A03D1DFF830
:102230009018096805E00200B2FA82F1DFF884180C
:102240000968B0FA80F212F01F02D140C90706D423
:1022500000F054FC401B0328DDD3032018E2DFF814
:10226000600801685FF0F852B2FA82F331F0F801C9
:10227000666916FA03F31943016031E05FF0004626
:10228000B6FA86F00021C0B2DFF83C2812EB8002DB
:10229000116000F033FC05005FF080400100B1FAEE
:1022A00081F2D2B2520952F00102D2B2012A03D114
:1022B000DFF80C18096805E00200B2FA82F1DFF8D5
:1022C00004180968B0FA80F212F01F02D140C90761
:1022D00006D500F013FC401B0328DDD30320D7E113
:1022E0002078000754D5A06900282AD05FF0004666
:1022F000B6FA86F00121C0B2DFF8D02712EB8002D7
:10230000116000F0FBFB05005FF080400100B1FAB6
:1023100081F20200B2FA82F3DFF8A8371B68B0FA44
:1023200080F616F01F06F340DB0706D400F0E6FB4C
:10233000401B0328E8D30320AAE1012000F0E4FBBE
:1023400026E05FF00046B6FA86F00021C0B2DFF862
:102350007C2712EB8002116000F0D0FB05005FF0DB
:1023600080400100B1FA81F20200B2FA82F3DFF894
:1023700054371B68B0FA80F616F01F06F340DB07EF
:1023800006D500F0BBFB401B0328E8D303207FE108
:102390002078400740F1C880DFF83407016851F029
:1023A00080510160006810F0805000900098DFF8C4
:1023B0002467306850F48070306000F09FFB8046E6
:1023C0003068C00507D400F099FBB0EB0800652821
:1023D000F6D303205CE1DFF8006730684008400076
:1023E0003060306830F00400306000F087FB070098
:1023F0005FF080484046B0FA80F14146B1FA81F280
:10240000D2B2520952F00202D2B2022A01D130688D
:1024100002E0DFF8B00600684146B1FA81F212F03E
:102420001F02D040C00708D500F068FBC01B41F276
:1024300089318842DCD303202AE1E068012804D1F5
:10244000306850F0010030601FE0E068002808D1DB
:102450003068400840003060306830F00400306080
:1024600013E0E068052808D1306850F004003060BF
:10247000306850F00100306007E0306840084000EC
:102480003060306830F004003060E068002825D00B
:1024900000F034FB05004046B0FA80F14146B1FA45
:1024A00081F2D2B2520952F00202D2B2022A01D112
:1024B000306802E0DFF80C0600684146B1FA81F2AC
:1024C00012F01F02D040C0072ED400F017FB401BB3
:1024D00041F289318842DED30320D9E000F00EFBBF
:1024E00005004046B0FA80F14146B1FA81F2D2B21D
:1024F000520952F00202D2B2022A01D1306802E03F
:10250000DFF8C00500684146B1FA81F212F01F02FF
:10251000D040C00708D500F0F1FA401B41F28931E4
:102520008842DED30320B3E0E069002800F0AF80EA
:10253000DFF88865306810F00C00082800F0A580EE
:10254000E069022871D15FF08009B9FA89F0DFF8FB
:1025500078750021C0B217EB8000016000F0CEFA60
:1025600080464020B0FA80F1C9B2490951F001011A
:10257000C9B2012903D1DFF84805006805E0402110
:10258000B1FA81F0DFF83C0500684021B1FA81F230
:1025900012F01F02D040C00707D500F0AFFAB0EB31
:1025A00008000328DDD3032072E0206AB0F5803FE5
:1025B00005D1316831F40031A068014331603168E0
:1025C00031F47411206A0143606A0143316080264E
:1025D000B6FA86F00121C0B217EB8007396000F02F
:1025E0008DFA05004020B0FA80F1C9B2490951F0D6
:1025F0000101C9B2012903D1DFF8C404006805E074
:102600004021B1FA81F0DFF8BC0400684021B1FA42
:1026100081F212F01F02D040C00738D400F06EFAE9
:10262000401B0328DED3032032E08026B6FA86F072
:102630000021C0B2DFF8902412EB8002116000F09C
:102640005DFA05004020B0FA80F1C9B2490951F0A5
:102650000101C9B2012903D1DFF86404006805E073
:102660004021B1FA81F0DFF85C0400684021B1FA42
:1026700081F212F01F02D040C00708D500F03EFAE8
:10268000401B0328DED3032002E0012000E00020ED
:10269000BDE8F2832DE9F04104000D000026DFF8CB
:1026A0003C74386810F00700A84280F0BA8038689F
:1026B000C008C00028433860386810F00700A842FE
:1026C00001D001207FE12078800707D5DFF81014C2
:1026D0000A6832F0F002A06802430A602078C0075E
:1026E00040F15881606801281ED14FF480400100FC
:1026F000B1FA81F2D2B2520952F00102D2B2012AE9
:1027000003D1DFF8BC13096805E00200B2FA82F1D8
:10271000DFF8B0130968B0FA80F212F01F02D1405E
:10272000C90741D401204EE1606802281DD1402034
:10273000B0FA80F1C9B2490951F00101C9B20129C9
:1027400003D1DFF87C03006805E04021B1FA81F095
:10275000DFF8700300684021B1FA81F212F01F0225
:10276000D040C00720D401202DE15FF0804001005F
:10277000B1FA81F2D2B2520952F00102D2B2012A68
:1027800003D1DFF83C13096805E00200B2FA82F1D8
:10279000DFF830130968B0FA80F212F01F02D1405E
:1027A000C90701D401200EE1DFF8347339688908C4
:1027B000890060680143396000F0A0F90600606894
:1027C00001280ED1386810F00C00042800F0E280D7
:1027D00000F094F9801B41F289318842F2D3032042
:1027E000F1E0606802280ED1386810F00C0008286B
:1027F00000F0D08000F082F9801B41F289318842DC
:10280000F2D30320DFE0386810F00C0F00F0C28034
:1028100000F074F9801B41F289318842F3D3032020
:10282000D1E02078800707D5DFF8B4120A6832F0CB
:10283000F002A06802430A602078C00740F19E8041
:10284000606801281DD14FF480400100B1FA81F287
:10285000D2B2520952F00102D2B2012A02D19849F1
:10286000096805E00200B2FA82F1DFF8581209683F
:10287000B0FA80F212F01F02D140C9073FD4012004
:10288000A1E0606802281CD14020B0FA80F1C9B2F2
:10289000490951F00101C9B2012902D188480068F3
:1028A00005E04021B1FA81F0DFF81802006840210C
:1028B000B1FA81F212F01F02D040C0071FD40120EC
:1028C00081E05FF080400100B1FA81F2D2B252099A
:1028D00052F00102D2B2012A02D17949096805E019
:1028E0000200B2FA82F1DFF8DC110968B0FA80F276
:1028F00012F01F02D140C90701D4012063E0DFF8C4
:10290000E081D8F800108908890060680143C8F8A0
:10291000001000F0F3F80600606801280ED1D8F826
:10292000000010F00C00042828D000F0E7F8801B0D
:1029300041F289318842F2D3032044E060680228E2
:102940000ED1D8F8000010F00C00082816D000F0C6
:10295000D5F8801B41F289318842F2D3032032E05E
:10296000D8F8000010F00C0F08D000F0C7F8801B5A
:1029700041F289318842F3D3032024E03868C0084B
:10298000C00028433860386810F00700A84201D022
:10299000012018E02078400706D551490A6832F432
:1029A000E062E06802430A602078000707D54C48DF
:1029B000016831F46051226951EAC20101600020CE
:1029C00000F0AEF80020BDE8F081F0B585B001A8B8
:1029D00044491022FEF7FCFC43480088ADF8000093
:1029E00000200021002200230025344E346814F01A
:1029F0000C07042F02D0082F02D028E03B4827E024
:102A00004FF47050B0FA80F70DF1040C14F4701EFE
:102A10003EFA07FE1CF80E703B00E70311D5306844
:102A20004FF48046B6FA86F7EC4610F40030F840D2
:102A30001CF8000001002D48B0FBF1F058430200E3
:102A400003E02B4800FB03F00200100000E02748E1
:102A500005B0F0BD38B5FFF7B8FF184909685FF059
:102A60007062B2FA82F3234C234D11F0F001D94089
:102A7000695CC8402060206832BD10B5FFF7EAFFEE
:102A80000E4909685FF46002B2FA82F31A4C11F43D
:102A9000E061D940615CC84010BD10B5FFF7DAFFB6
:102AA000064909685FF4E012B2FA82F3124C11F49D
:102AB0006051D940615CC84010BD00000410024064
:102AC00000100240241002400000424280044242B2
:102AD0001C10024000700040201002400020024004
:102AE00004100240CC4800085613000800127A0077
:102AF00000093D0004000020DC480008014800688F
:102B0000704700BF0402002031B50024FFF7F6FF34
:102B10000500FFF7F3FF401B00998842F9D331BD50
:102B200010B50400FFF796FF4FF47A71B0FBF1F097
:102B300000F097F8002221005FF0FF3000F075F8F8
:102B4000002010BD10B410F00703504C22684FF65F
:102B5000FF010A404E4951EA03210A43226010BC9A
:102B600070474A480068C0F302207047012210F005
:102B70001F018A40474903005BB25B0941F82320EB
:102B8000704710B4020052B2002A09D50A01424B24
:102B9000040064B214F00F04234403F8042C04E08E
:102BA0000A013E4B040064B21A5510BC704770B461
:102BB000030013F00704D4F10700052801D3042013
:102BC00001E0D4F10700251D072D01D2002500E00A
:102BD000E51E012616FA00F0401E0140A94016FA33
:102BE00005F56D1E2A401143080070BC704710B5F2
:102BF0000400601EB0F1807F01D301200EE0601E52
:102C0000274908600F215FF0FF30FFF7BAFF00206F
:102C100024490860072024490860002010BD10B531
:102C200004002000FFF78EFF10BD2DE9F0410400E5
:102C30000D0016000027FFF794FF804632002900A0
:102C40004046FFF7B4FF0100200040B2FFF799FFB4
:102C5000BDE8F08110B50400200040B2FFF786FF08
:102C600010BD10B504002000FFF7C1FF10BD0428FF
:102C700005D10D490A6852F004020A6004E00A49CD
:102C80000A6832F004020A60704700000CED00E0B0
:102C90000000FA0500E100E018ED00E000E400E0CB
:102CA00014E000E018E000E010E000E080B500F083
:102CB0006FF801BD00B58FB0012005905FF4803042
:102CC00006900021079102210C910D905FF4E01015
:102CD0000E9005A8FFF76AF90F20009002200190DE
:102CE000002002904FF480600390002004900221A5
:102CF0006846FFF7CFFCFFF7ADFE4FF47A71B0FBEB
:102D0000F1F0FFF7AEFF0420FFF7B1FF0022002132
:102D10005FF0FF30FFF789FF0FB000BD10B500F086
:102D200049F9FFF7C7FF00F057F900F0E5F900F0A7
:102D3000BAF800F037FA8C4C200000F097FA00F057
:102D4000D2FF8A4800F092FA0821200000F020FB10
:102D500000220221012001F027F801208449087097
:102D6000844801F06DF800F063F9012805D182482C
:102D700001680968491D0068016000F074F90128C4
:102D8000F1D17D4801680968491F00680160EAE7E0
:102D9000F0B585B07648007800287DD0774E308831
:102DA000401C30803088C82876D175480168019170
:102DB00000210160019800F091F80090009810F156
:102DC000030F02DB0098042804DB00996D48028899
:102DD000891801806B4F3888B0F5617F02DB40F2C3
:102DE00083303880644C20680068FEF759FCCDE9D8
:102DF0000201206802683188634801F021F8DDE9AA
:102E000002454FF47A70318890FBF1F0FEF748FCF0
:102E100022002B00FEF70EFE00225C4BFEF7C4FCE6
:102E200000225B4BFEF7C0FC02000B00594801F08A
:102E300007F80198FEF7F0FDCDE902010198049032
:102E4000049A3188544800F0FBFFDDE902454FF455
:102E50007A70318890FBF1F0FEF722FC22002B0003
:102E6000FEF7E8FD0022494BFEF79EFC0022484B8E
:102E7000FEF79AFC02000B00484800F0E1FF3A8898
:102E800092B20099464800F0DBFF3A880221012007
:102E900000F08AFF0020308005B0F0BD38490A6894
:102EA000521C0A60704734480021026811620021F8
:102EB000026851623B4A3C4B0168C1E90223394A2E
:102EC0003A4B0168C1E904235FF03332384B0168A3
:102ED000C1E9062332210068016070472DE9F843FB
:102EE00084B00400244D28680668361B2868D0E9A1
:102EF00002892A68D2E90401CDE902012868076A3B
:102F00002A68D2E90601CDE900013000FEF7C8FBCE
:102F100042464B46FEF78EFD804689463800FEF756
:102F2000BFFBDDE90223FEF785FD02000B004046F2
:102F30004946FEF7C7FB804689462868406AFEF787
:102F4000AFFBDDE90023FEF775FD42464B46FEF779
:102F500063FFFEF787FB2968096A2A6851622968BE
:102F60000E6205B0BDE8F083600100209C010020E6
:102F7000100200208C480008000000200E020020F3
:102F8000000200200C0200207C47000800002640C0
:102F900000004140E0460008AC4700081447000824
:102FA000484700089A999999999909409999F13F48
:102FB0003333C3BF80B50748016851F01001016089
:102FC0000320FFF72CFE0020FFF7AAFD00F04CFFC6
:102FD000002002BD0020024018B585B02F480168CE
:102FE00051F040010160016811F040010091009929
:102FF000016851F040010160006810F0400000904D
:103000000098082001900020029001200390244C99
:1030100001A9200000F058FF10200190002002902C
:103020000120039001A9200000F04EFF06B010BD62
:1030300010B51B4C0821200001F065F8002810D1C4
:103040001420FFF761FD0821200001F05CF8002842
:1030500007D10821200001F056F80028F9D00120FE
:1030600000E0002010BD10B50D4C1021200001F033
:103070004AF8002810D11420FFF746FD1021200047
:1030800001F041F8002807D11021200001F03BF8A1
:103090000028F9D0012000E0002010BD18100240E7
:1030A0000018014030B585B00400206828498842E6
:1030B00020D12848016851F480410160006810F473
:1030C0008040009000984FF4007001900220029020
:1030D00003200490204D01A9280000F0F5FE4FF4D4
:1030E00080600190002002900020039001A9280038
:1030F00000F0EAFE05B030BD80B51648016851F019
:1031000004010160006810F004000090009813486A
:103110000F4901605FF4E1314160002181600021CD
:10312000C160002101610C21416100218161002108
:10313000C16101F017F801BD11B581B00C004FF667
:10314000FF73012201A9054801F044F8019816BD5A
:103150000038014018100240000801402001002002
:1031600000B585B02E48016851F008010160006883
:1031700010F00800009000980120019000200290BB
:103180000020039001A9274800F09EFE05B000BD75
:1031900080B5002201211D20FFF747FD1D20FFF70C
:1031A00059FD01BD18B58BB01F48016851F00201EF
:1031B0000160006810F0020000900098FFF7D0FF57
:1031C000FFF7E6FF194C1A4820600B2060600020D2
:1031D000A0604FF6FF70E06000202061200000F04A
:1031E00029F84FF48050079007A9200000F0B0FAAA
:1031F000002001900020029001A9200001F0C4F9F4
:1032000000200390012004900020059000200690EB
:10321000082203A9200000F0B0F90CB010BD000096
:1032200018100240000C01401C10024060010020F8
:103230000004004010B50400002C01D1012014E06E
:1032400094F93900002805D1002084F838002000C6
:1032500000F099FD022084F83900211D206800F05B
:1032600005FB012084F83900002010BD0100022078
:1032700081F839000868006850F001000A681060A1
:10328000012081F839000020704710B50400002C9F
:1032900001D1012014E094F93900002805D1002063
:1032A00084F83800200001F0ABF9022084F83900DE
:1032B000211D206800F0DAFA012084F8390000208E
:1032C00010BD38B504000D0001222900206800F06F
:1032D000D2FC2068DFF82411884204D02068DFF88F
:1032E0002011884201D1012000E00020C0B2002856
:1032F00005D02068406C50F4004021684864206884
:10330000006850F0010021680860002032BD38B527
:1033100004000D0000222900206800F0ACFC2068A9
:10332000DFF8D810884204D02068DFF8D410884233
:1033300001D1012000E00020C0B2002811D0206897
:10334000006A41F2111108420BD12068006A40F274
:103350004441084205D12068406C30F400402168A7
:1033600048642068006A41F2111108420BD12068BC
:10337000006A40F24441084205D1206800684008D4
:10338000400021680860012084F83900002032BD27
:1033900038B504000D002800002806D004280BD002
:1033A000082810D00C2815D01BE02068C06850F009
:1033B00002002168C86014E02068C06850F0040072
:1033C0002168C8600DE02068C06850F008002168DE
:1033D000C86006E02068C06850F010002168C8602E
:1033E000FFE701222900206800F045FC2068006802
:1033F00050F0010021680860002032BD002C01401F
:103400000034014010B504002068006980071AD517
:103410002068C068800716D57FF002002168086127
:10342000012020762068806910F0030F03D020006F
:10343000FFF734FD05E0200001F0E3F8200001F083
:10344000E1F8002020762068006940071AD520683E
:10345000C068400716D57FF004002168086102208B
:1034600020762068806910F4407F03D02000FFF7A9
:1034700015FD05E0200001F0C4F8200001F0C2F8BD
:10348000002020762068006900071AD52068C068EF
:10349000000716D57FF00800216808610420207617
:1034A0002068C06910F0030F03D02000FFF7F6FC7E
:1034B00005E0200001F0A5F8200001F0A3F80020AD
:1034C000207620680069C0061AD52068C068C0064A
:1034D00016D57FF01000216808610820207620684A
:1034E000C06910F4407F03D02000FFF7D7FC05E04F
:1034F000200001F086F8200001F084F800202076FA
:1035000020680069C0070AD52068C068C00706D5D2
:103510007FF0010021680861200001F074F8206844
:10352000006900060AD52068C068000606D57FF04D
:10353000800021680861200001F066F820680069B9
:1035400040060AD52068C068400606D57FF04000D6
:1035500021680861200001F058F8206800698006A1
:103560000AD52068C068800606D57FF02000216853
:103570000861200001F04AF810BD70B505000E008A
:10358000140095F93800012801D102205FE00120E4
:1035900085F83800022085F83900002C12D1F36834
:1035A00072683168286800F07EFA2868806930F017
:1035B0000C002968886128688169B068014328681F
:1035C00081613DE0042C13D1F3687268316828688A
:1035D00000F0C0FA2868806930F44060296888618A
:1035E00028688069B16850EA01202968886127E06D
:1035F000082C12D1F36872683168286800F0E0FA8C
:103600002868C06930F00C002968C8612868C16961
:10361000B06801432868C16112E0F36872683168DC
:10362000286800F0EDFA2868C06930F44060296825
:10363000C8612868C069B16850EA01202968C8617A
:10364000012085F83900002085F83800002070BD81
:1036500070B504000D00160094F93800012801D15E
:10366000022074E0012084F83800022084F8390038
:103670003000002806D004281BD0082831D00C28A0
:1036800046D05DE02900206800F034F920688069A8
:1036900050F00800216888612068806930F00400DB
:1036A00021688861206881692869014320688161F7
:1036B00046E02900206800F053F92068806950F442
:1036C0000060216888612068806930F4806021682A
:1036D000886120688069296950EA01202168886131
:1036E0002EE02900206800F078F92068C06950F0C9
:1036F00008002168C8612068C06930F004002168B2
:10370000C8612068C169286901432068C16117E068
:103710002900206800F09BF92068C06950F400601F
:103720002168C8612068C06930F480602168C86180
:103730002068C069296950EA01202168C861FFE753
:10374000012084F83900002084F83800002070BD82
:1037500070B504000D00002194F93800012801D152
:10376000022082E0012084F83800022084F8390029
:103770002068866836F0770636F47F4620688660D3
:103780002868002856D0102859D020285CD030282E
:103790005FD0402844D050282ED0602836D07028E2
:1037A0000DD0B0F5805F03D0B0F5005F17D055E0C5
:1037B00020688068C008C000216888604EE0EB681F
:1037C0006A68A968206800F049FA2068806830F0CB
:1037D000770050F077000600206886603EE0EB68D6
:1037E0006A68A968206800F039FA2068806850F497
:1037F00080402168886031E0EA686968206800F0EC
:1038000095F95021206800F01CFA27E0EA68696801
:10381000206800F0C0F96021206800F012FA1DE075
:10382000EA686968206800F081F94021206800F0AA
:1038300008FA13E00021206800F003FA0EE01021DE
:10384000206800F0FEF909E02021206800F0F9F975
:1038500004E03021206800F0F4F9FFE7012084F84B
:103860003900002084F83800002070BD10B4002218
:103870000468DFF8A432984212D0DFF8A022904208
:103880000ED0B0F1804F0BD0DFF89422904207D0D9
:10389000DFF89022904203D0DFF88C22904203D1CF
:1038A00034F070044A68144398420FD0DFF86C2259
:1038B00090420BD0B0F1804F08D0994A904205D089
:1038C000984A904202D0984A904203D134F440740E
:1038D000CA68144304608A68C2620A6882629842B5
:1038E00002D08E4A904201D10A69026301224261EC
:1038F00010BC7047F0B5002600275FF0000C026A8C
:10390000520852000262056A4368846934F0700408
:10391000A408A4000A68144335F002058A68154318
:10392000DFF8F4E1704502D07C4A904205D135F0D1
:103930000805CA68154335F00405704502D0774A7A
:10394000904207D133F4807333F400734A69134310
:103950008A691343436084614A6842630562F0BD2B
:10396000F0B4002500260027026A32F0100202623D
:10397000036A4468826932F4E04232F44072D1F85A
:1039800000C052EA0C2233F02003D1F808C053EAF9
:103990000C13DFF884C1604502D0604DA84206D107
:1039A00033F08003CD6853EA051333F040036045DC
:1039B00002D05A4DA84209D134F4806434F4006432
:1039C0004D6954EA85048D6954EA85044460826136
:1039D0004D6885630362F0BC7047F0B40026002791
:1039E0005FF0000C026A32F480720262046A456879
:1039F000C36933F070039B089B000A68134334F4D7
:103A000000748A6854EA0224434A904202D0434E2A
:103A1000B04206D134F40064CE6854EA062434F48B
:103A20008064904202D03D4A904209D135F48055DD
:103A300035F400554A6955EA02158A6955EA0215B6
:103A40004560C3614A68C2630462F0BC7047F0B469
:103A5000002200240026036A33F480530362056ABF
:103A60004768C36933F4E04333F44073D1F800C0CE
:103A700053EA0C2335F40055D1F808C055EA0C354B
:103A8000DFF894C0604502D0244A904204D137F454
:103A900080474A6957EA82174760C3614A680264EF
:103AA0000562F0BC7047F0B400240027056A6D0879
:103AB0006D0005628569066ADFF85CC060450ED05E
:103AC000164CA0420BD0B0F1804F08D0144CA0424D
:103AD00005D0144CA04202D0134CA04201D10124C5
:103AE00000E00024E4B2002C03D0AD08AD00154383
:103AF00001E055F0010535F0F0051C0114F0F0046B
:103B0000254336F00A0611F00A0426438561066251
:103B1000F0BC704700000000002C01400034014060
:103B20000004004000080040000C004070B4002376
:103B30000025066A046A640864000462846934F03B
:103B4000F00454EA021436F00A060E438461066259
:103B500070BC7047F0B400240026056A35F01005EB
:103B600005628569076A35F4407555EA022535F422
:103B700070455FEA033C1CF4704C5CEA050537F0C5
:103B8000A0075FEA011C1CF0A00C5CEA0707856136
:103B90000762F0BC704770B400230025046A34F05B
:103BA000100404628469066A34F4704454EA0234EE
:103BB00036F0A00656EA01168461066270BC7047B2
:103BC000F0B400240026056A35F480750562C569E5
:103BD000076AAD08AD00154335F0F0055FEA031C38
:103BE0001CF0F00C5CEA050537F420675FEA012C55
:103BF0001CF4206C5CEA0707C5610762F0BC7047E3
:103C0000F0B400240026056A35F480550562C569C4
:103C1000076A35F4407555EA022535F470455FEAC8
:103C2000033C1CF4704C5CEA050537F420475FEA5E
:103C3000013C1CF4204C5CEA0707C5610762F0BC3C
:103C4000704710B40022836833F070030C00A4B2F4
:103C500054F007042343836010BC704770B4002401
:103C6000856835F47F4552EA010656EA0326354356
:103C7000856070BC704770B4002401258D40036AD4
:103C8000AB430362066A12FA01F31E43066270BC7C
:103C90007047000000B585B06348016851F0040129
:103CA0000160016811F0040100910099016851F070
:103CB00008010160006810F00800009000984FF4BF
:103CC00080700190022002900320049001A95748BF
:103CD00000F0FAF84FF40050019001A9544800F0A8
:103CE000F3F805B000BD10B594B0524C52482060B6
:103CF000012060600020A06040F28330E06000207E
:103D00002061002060612000FFF794FA4FF480509A
:103D1000109010A92000FFF71BFD2000FFF7B5FA57
:103D200000200090002001906946200000F02CFC4B
:103D30000020099000200A9000200B9000200C9099
:103D400000200D904FF400500E9000200F9009A914
:103D5000200000F0F5FB60200290384800880390B6
:103D6000002004900020059000200690002007907D
:103D700000200890002202A92000FFF769FCFFF74D
:103D800089FF14B010BD81B001682B4A914209D15E
:103D900025490A6852F400620A60096811F400615A
:103DA0000091009901B07047F8B504000E001500AD
:103DB0002000C0B2012802D002282BD033E030000E
:103DC000C0B2012809D11B4F00213800FFF779FA52
:103DD0000021380000F088FB16E03000C0B2022855
:103DE00009D1144F00213800FFF791FA0021380063
:103DF00000F064FB08E00F4F00213800FFF787FA5E
:103E00000021380000F070FB280080B209490968E1
:103E1000486308E0074F00213800FFF778FA0021D7
:103E2000380000F061FBF1BD1810024000080140AD
:103E3000000C01409C010020002C01400C020020DD
:103E40000EB4C0B5024603A800210190009101AB59
:103E50000121044878440C30FCF76AF906BC5DF88F
:103E600010FB00BF450A000080B51648016851F0FC
:103E700001010160006810F0010000900098052029
:103E8000FEF7CDFE002200217FF00B00FEF7CDFEF5
:103E9000002200217FF00A00FEF7C7FE0022002169
:103EA0007FF00900FEF7C1FE002200217FF0030031
:103EB000FEF7BBFE002200215FF0FF30FEF7B5FEEB
:103EC00001BD00BF181002402DE9F84702000B00A9
:103ED00000250026002100275FF000085FF0000E9B
:103EE000BEF1100F80F00D81012010FA0EF00500D8
:103EF000186828400600AE4240F00081586800284B
:103F000031D0012820D0022825D003283CD0112808
:103F10001DD0122823D0DFF804C2604523D0DFF87B
:103F200000C260451FD0DFF8FCC160451BD0DFF840
:103F3000F8C1604517D0DFF8F4C1604513D0DFF851
:103F4000F0C160450FD022E0D86807001FE0D868B4
:103F5000001D07001BE0D8680830070017E0D8688C
:103F60000C30070013E09868002802D104200700F5
:103F700009E09868012803D108200700156102E0D4
:103F800008200700556102E000200700FFE7B6F5B2
:103F9000807F01D2140000E0141DB6F5807F02D2AC
:103FA0005FEA8E0803E0BEF108085FEA88085FF068
:103FB0000F09D4F800C019FA08F03CEA000C17FA0F
:103FC00008F050EA0C0CC4F800C05868C00040F17A
:103FD00095805848D0F800C05CF0010CC0F800C0D3
:103FE000006810F0010000900098DFF84CC17046A6
:103FF00080085CF820A01EF00300C0B2800019FA0F
:1040000000F93AEA090A4D48824202D15FF00009FC
:104010001FE04B48824202D15FF0010919E0494894
:10402000824202D15FF0020913E04748824202D186
:104030005FF003090DE04548824202D15FF00409B8
:1040400007E04348824202D15FF0050901E05FF0DA
:1040500006091EF00300C0B2800019FA00F95146AB
:1040600059EA0101704680084CF820105868C003D6
:1040700007D53848D0F800C056EA0C0CC0F800C08C
:1040800006E03448D0F800C03CEA060CC0F800C096
:104090005868800307D53048D0F800C056EA0C0CA9
:1040A000C0F800C006E02C48D0F800C03CEA060C7E
:1040B000C0F800C05868C00207D52848D0F800C032
:1040C00056EA0C0CC0F800C006E02448D0F800C046
:1040D0003CEA060CC0F800C05868800207D52048AA
:1040E000D0F800C056EA0C0CC0F800C006E01C482E
:1040F000D0F800C03CEA060CC0F800C01EF1010E6A
:10410000EEE6BDE8F187020090680B009BB2184212
:1041100001D0012000E0002040B2704700001110E3
:1041200000001210000021100000221000003110C9
:104130000000321018100240080001400008014041
:10414000000C014000100140001401400018014023
:10415000001C014000040140040401400804014027
:104160000C04014010B50400002C01D1012030E006
:10417000A0690028FFD194F93900002805D100205A
:1041800084F838002000FEF78DFF022084F8390003
:104190002068C06830F400502168C860200000F03A
:1041A00008F92068006930F49040216808612068AF
:1041B000406930F02A00216848612068C06850F4E6
:1041C00000502168C8600020E063012084F83900B5
:1041D000002010BD2DE9F84305000C0016001F005B
:1041E000002095F93990B9F1010F02D0B9F1220FF1
:1041F0006AD1002C03D0300080B2002801D1012008
:1042000063E095F93800012801D102205DE001202A
:1042100085F838000020E86395F93900222803D199
:10422000322085F8390002E0122085F83900AE848A
:10423000EE84E88C00282DD0E88C401EE884A86825
:10424000B0F5805F17D13B0000228021280000F0EC
:104250003EF8002801D0032037E0A046B8F800005F
:10426000C005C00D296848602869002801D1A41C38
:10427000DFE7641CDDE73B0000228021280000F01E
:1042800026F8002801D003201FE020782968486024
:10429000641CCEE73B0000224021280000F017F804
:1042A000002801D0032010E095F93900322803D10D
:1042B000222085F8390002E0012085F8390000202D
:1042C00085F83800002000E00220BDE8F2832DE9E7
:1042D000F84305000E0017001C005FF00009FEF710
:1042E0000DFC8046380040B200282FD128680068B5
:1042F0003040B0425AD014F1010FF7D0002C05D055
:10430000FEF7FCFBB0EB08008442EFD22868C068DF
:1043100030F080002968C8602868C06830F020004C
:104320002968C8602868C06830F480702968C8604F
:10433000286840694008400029684861012085F8E4
:104340003900002085F83800032030E02868006834
:104350003040B0422AD114F1010FF7D0002C05D023
:10436000FEF7CCFBB0EB08008442EFD22868C068AF
:1043700030F080002968C8602868C06830F02000EC
:104380002968C8602868C06830F480702968C860EF
:10439000286840694008400029684861012085F884
:1043A0003900002085F83800032000E00020BDE837
:1043B000F283F8B5040000212068026932F440520B
:1043C000E068024320680261A568206905436069CE
:1043D00005432068C268374802402A432068C2600B
:1043E0002068426932F44072A06902432068426149
:1043F0002068314A90422DD1FEF74FFB0700FEF7AF
:104400004CFB0600FEF749FB19214F4362689200FE
:10441000B7FBF2F26423B2FBF3F24E4363689B00F6
:10442000B6FBF3F301FB00F160688000B1FBF0F034
:104430006421B0FBF1F1642000FB1133180132302C
:104440006421B0FBF1F010F00F0050EA0210216877
:1044500088602CE0FEF711FB0700FEF70EFB06005C
:10446000FEF70BFB19214F4362689200B7FBF2F293
:104470006423B2FBF3F24E4363689B00B6FBF3F395
:1044800001FB00F160688000B1FBF0F06421B0FB3B
:10449000F1F1642000FB1133180132306421B0FBCC
:1044A000F1F010F00F0050EA021021688860F1BDB1
:1044B00000000000F3E9FFFF0038014038B50400B8
:1044C0000D0004222900206800F08CF82068406C60
:1044D00050F40040216848642068006850F00100F2
:1044E00021680860002032BD38B504000D000022AC
:1044F0002900206800F076F841F211102168096A5D
:1045000001420BD12168096A40F24442114205D1AF
:104510002168496C31F40041226851642168096ABC
:1045200001420BD12068006A40F24441084205D1A3
:10453000206800684008400021680860002032BD03
:10454000020092F93800012801D102201BE001206D
:1045500082F83800022082F839000B68486803436B
:1045600088680343C86803430869034348690343F1
:104570008869034310684364012082F839000020F1
:1045800082F8380000207047020092F938000128B4
:1045900001D1022024E0012082F83800022082F8B4
:1045A00039001068406830F0700013685860106877
:1045B000436808680343106843601068806830F0FF
:1045C0008000136898601068836848680343106827
:1045D0008360012082F83900002082F83800002032
:1045E0007047000070B4002404258D40036AAB437B
:1045F0000362066A12FA01F31E43066270BC70473A
:104600007047704770477047704770477047F0B405
:104610000246106895681318506803EB5004C007F1
:104620001CD54D441AE013F8017B05F8017B491EA7
:10463000F9D198B113F8011BC6F38106032E08BF08
:1046400013F8016B01EB06214942801C294405D077
:1046500011F8016B05F8016B401EF9D1A3420ED091
:1046600013F8016B16F0030104BF13F8011BC91CFA
:1046700030090F28DBD113F8010B0F30D7E7F0BC5E
:1046800002F10C00704700000F49086850F001006B
:1046900008600E4A13680E48034013600B680D480B
:1046A00003400B60086830F480200860106830F424
:1046B000FE0010605FF41F00074908605FF00060B3
:1046C00006490860704700000010024004100240D4
:1046D0000000FFF8FFFFF6FE0810024008ED00E0C2
:1046E00020202020202020202020202020202020CA
:1046F000CFE0B5B1D3DACAB5BCCAC4BFB1EACBD931
:10470000B6C8CEAAA3BA25302E3266C8A62F730A21
:104710000000000020202020202020202020202019
:1047200020202020CFE0B5B1D3DAB5B1C7B0CAB5EB
:10473000BCCACBD9B6C8CEAAA3BA25302E3266C819
:10474000A62F730A00000000D4F6C1BFCABD5049AD
:1047500044CBE3B7A8BCC6CAFDBDE1B9FBD6B5A33F
:10476000BA2564202020C9E8D6C3D0C2B5C4D5BCC0
:10477000BFD5B1C8CEAAA3BA25640A000AC9E8B653
:10478000A8C4BFB1EACBD9B6C8202D3E20B1E0C243
:10479000EBC6F7D4DA256473CAB1BCE4BCC6CAFD63
:1047A0002564B8F6C2F6B3E50A000000B5B1C7B09B
:1047B000B5E7BBFACBD9B6C82D3E20B1E0C2EBC6F7
:1047C000F7D4DA256473CAB1BCE4BCC6CAFD25645B
:1047D000B8F6C2F6B3E50A007047FEE7FEE7FEE76B
:1047E000FEE7FEE780B500F00BF8FEF75FFA01BDCB
:1047F00080B50248FEF706FE01BD00006001002002
:1048000002480168491C0160704700BF0402002093
:1048100010B5074979441831064C7C44163404E03D
:104820000A68081D114488470146A142F8D110BD0D
:104830000800000024000000BFC9FFFF4401000081
:10484000D000002000000000C7FDFFFFB001000005
:10485000A00000000000002000F00DF8002801D0AA
:10486000FFF7D6FFAFF300800020AFF30080FEF724
:1048700055FA00F002F80120704700F001B800007E
:1048800007463846FDF788FBFBE70000D4F6C1BFBA
:10489000CABD504944CBE3B7A8BFD8D6C6B5E7BB1D
:1048A000FAD0FDD7AA0A000038B504460D462846BE
:1048B00000F006F8A84218BF0024204632BD0000D0
:1048C0000149FEF739BC00BF88000020020304053F
:1048D000060708090A0B0C0D0E0F1010000000004F
:1048E0000102030401020304060708090148804786
:1048F0000148004789460008FD480008AFF30080E2
:10490000AFF30080FFF7A8FFFFF7FEBFFFF7FEBF82
:10491000FFF7FEBFFFF7FEBFFFF7FEBFFFF7FEBFCB
:10492000FFF7FEBFFFF7FEBFFFF7FEBFFFF7FEBFBB
:10493000FFF7FEBFFFF7FEBFFFF7FEBFFFF7FEBFAB
:10494000FFF7FEBFFFF7FEBFFFF7FEBFFFF7FEBF9B
:10495000FFF7FEBFFFF7FEBFFFF7FEBFFFF7FEBF8B
:10496000FFF7FEBFFFF7FEBFFFF7FEBFFFF7FEBF7B
:10497000FFF7FEBFFFF7FEBFFFF7FEBFFFF7FEBF6B
:10498000FFF7FEBFFFF7FEBFFFF7FEBFFFF7FEBF5B
:10499000FFF7FEBFFFF7FEBFFFF7FEBFFFF7FEBF4B
:1049A000FFF7FEBFFFF7FEBFFFF7FEBFFFF7FEBF3B
:1049B000FFF7FEBFFFF7FEBFFFF7FEBFFFF7FEBF2B
:1049C000FFF7FEBFFFF7FEBFFFF7FEBFFFF7FEBF1B
:1049D000FFF7FEBFFFF7FEBFFFF7FEBFFFF7FEBF0B
:1049E000FFF7FEBFFFF7FEBFFFF7FEBFFFF7FEBFFB
:1049F000FFF7FEBFFFF7FEBFFFF7FEBFF00A07D8C5
:104A000001002000A24A04261500080452FF01E319
:104A100056141410010000F614F0071601000000EF
:104A200008000020000123D5122F40020000C3120D
:104A30003C2101100302040101D0441220902108FE
:0C4A400052D050610812CC08F212B86489
:04000005080048FDAA
:00000001FF
